{
  "abi": [
    {
      "inputs": [
        {
          "internalType": "address",
          "name": "_pool",
          "type": "address"
        },
        {
          "internalType": "uint256",
          "name": "_protocolFee",
          "type": "uint256"
        },
        {
          "internalType": "uint256",
          "name": "_maxTotalSupply",
          "type": "uint256"
        }
      ],
      "stateMutability": "nonpayable",
      "type": "constructor"
    },
    {
      "anonymous": false,
      "inputs": [
        {
          "indexed": true,
          "internalType": "address",
          "name": "owner",
          "type": "address"
        },
        {
          "indexed": true,
          "internalType": "address",
          "name": "spender",
          "type": "address"
        },
        {
          "indexed": false,
          "internalType": "uint256",
          "name": "value",
          "type": "uint256"
        }
      ],
      "name": "Approval",
      "type": "event"
    },
    {
      "anonymous": false,
      "inputs": [
        {
          "indexed": false,
          "internalType": "uint256",
          "name": "feesToVault0",
          "type": "uint256"
        },
        {
          "indexed": false,
          "internalType": "uint256",
          "name": "feesToVault1",
          "type": "uint256"
        },
        {
          "indexed": false,
          "internalType": "uint256",
          "name": "feesToProtocol0",
          "type": "uint256"
        },
        {
          "indexed": false,
          "internalType": "uint256",
          "name": "feesToProtocol1",
          "type": "uint256"
        }
      ],
      "name": "CollectFees",
      "type": "event"
    },
    {
      "anonymous": false,
      "inputs": [
        {
          "indexed": true,
          "internalType": "address",
          "name": "sender",
          "type": "address"
        },
        {
          "indexed": true,
          "internalType": "address",
          "name": "to",
          "type": "address"
        },
        {
          "indexed": false,
          "internalType": "uint256",
          "name": "shares",
          "type": "uint256"
        },
        {
          "indexed": false,
          "internalType": "uint256",
          "name": "amount0",
          "type": "uint256"
        },
        {
          "indexed": false,
          "internalType": "uint256",
          "name": "amount1",
          "type": "uint256"
        }
      ],
      "name": "Deposit",
      "type": "event"
    },
    {
      "anonymous": false,
      "inputs": [
        {
          "indexed": true,
          "internalType": "address",
          "name": "to",
          "type": "address"
        },
        {
          "indexed": false,
          "internalType": "uint256",
          "name": "amount",
          "type": "uint256"
        }
      ],
      "name": "EthRefund",
      "type": "event"
    },
    {
      "anonymous": false,
      "inputs": [
        {
          "indexed": false,
          "internalType": "int24",
          "name": "tick",
          "type": "int24"
        },
        {
          "indexed": false,
          "internalType": "uint256",
          "name": "totalAmount0",
          "type": "uint256"
        },
        {
          "indexed": false,
          "internalType": "uint256",
          "name": "totalAmount1",
          "type": "uint256"
        },
        {
          "indexed": false,
          "internalType": "uint256",
          "name": "totalSupply",
          "type": "uint256"
        }
      ],
      "name": "Snapshot",
      "type": "event"
    },
    {
      "anonymous": false,
      "inputs": [
        {
          "indexed": true,
          "internalType": "address",
          "name": "from",
          "type": "address"
        },
        {
          "indexed": true,
          "internalType": "address",
          "name": "to",
          "type": "address"
        },
        {
          "indexed": false,
          "internalType": "uint256",
          "name": "value",
          "type": "uint256"
        }
      ],
      "name": "Transfer",
      "type": "event"
    },
    {
      "anonymous": false,
      "inputs": [
        {
          "indexed": true,
          "internalType": "address",
          "name": "sender",
          "type": "address"
        },
        {
          "indexed": true,
          "internalType": "address",
          "name": "to",
          "type": "address"
        },
        {
          "indexed": false,
          "internalType": "uint256",
          "name": "shares",
          "type": "uint256"
        },
        {
          "indexed": false,
          "internalType": "uint256",
          "name": "amount0",
          "type": "uint256"
        },
        {
          "indexed": false,
          "internalType": "uint256",
          "name": "amount1",
          "type": "uint256"
        }
      ],
      "name": "Withdraw",
      "type": "event"
    },
    {
      "stateMutability": "payable",
      "type": "fallback"
    },
    {
      "inputs": [],
      "name": "acceptGovernance",
      "outputs": [],
      "stateMutability": "nonpayable",
      "type": "function"
    },
    {
      "inputs": [],
      "name": "accruedProtocolFees0",
      "outputs": [
        {
          "internalType": "uint256",
          "name": "",
          "type": "uint256"
        }
      ],
      "stateMutability": "view",
      "type": "function"
    },
    {
      "inputs": [],
      "name": "accruedProtocolFees1",
      "outputs": [
        {
          "internalType": "uint256",
          "name": "",
          "type": "uint256"
        }
      ],
      "stateMutability": "view",
      "type": "function"
    },
    {
      "inputs": [
        {
          "internalType": "address",
          "name": "owner",
          "type": "address"
        },
        {
          "internalType": "address",
          "name": "spender",
          "type": "address"
        }
      ],
      "name": "allowance",
      "outputs": [
        {
          "internalType": "uint256",
          "name": "",
          "type": "uint256"
        }
      ],
      "stateMutability": "view",
      "type": "function"
    },
    {
      "inputs": [
        {
          "internalType": "address",
          "name": "spender",
          "type": "address"
        },
        {
          "internalType": "uint256",
          "name": "amount",
          "type": "uint256"
        }
      ],
      "name": "approve",
      "outputs": [
        {
          "internalType": "bool",
          "name": "",
          "type": "bool"
        }
      ],
      "stateMutability": "nonpayable",
      "type": "function"
    },
    {
      "inputs": [
        {
          "internalType": "address",
          "name": "account",
          "type": "address"
        }
      ],
      "name": "balanceOf",
      "outputs": [
        {
          "internalType": "uint256",
          "name": "",
          "type": "uint256"
        }
      ],
      "stateMutability": "view",
      "type": "function"
    },
    {
      "inputs": [],
      "name": "baseLower",
      "outputs": [
        {
          "internalType": "int24",
          "name": "",
          "type": "int24"
        }
      ],
      "stateMutability": "view",
      "type": "function"
    },
    {
      "inputs": [],
      "name": "baseUpper",
      "outputs": [
        {
          "internalType": "int24",
          "name": "",
          "type": "int24"
        }
      ],
      "stateMutability": "view",
      "type": "function"
    },
    {
      "inputs": [
        {
          "internalType": "uint256",
          "name": "amount0",
          "type": "uint256"
        },
        {
          "internalType": "uint256",
          "name": "amount1",
          "type": "uint256"
        },
        {
          "internalType": "address",
          "name": "to",
          "type": "address"
        }
      ],
      "name": "collectProtocol",
      "outputs": [],
      "stateMutability": "nonpayable",
      "type": "function"
    },
    {
      "inputs": [],
      "name": "decimals",
      "outputs": [
        {
          "internalType": "uint8",
          "name": "",
          "type": "uint8"
        }
      ],
      "stateMutability": "view",
      "type": "function"
    },
    {
      "inputs": [
        {
          "internalType": "address",
          "name": "spender",
          "type": "address"
        },
        {
          "internalType": "uint256",
          "name": "subtractedValue",
          "type": "uint256"
        }
      ],
      "name": "decreaseAllowance",
      "outputs": [
        {
          "internalType": "bool",
          "name": "",
          "type": "bool"
        }
      ],
      "stateMutability": "nonpayable",
      "type": "function"
    },
    {
      "inputs": [
        {
          "internalType": "uint256",
          "name": "amount0Desired",
          "type": "uint256"
        },
        {
          "internalType": "uint256",
          "name": "amount1Desired",
          "type": "uint256"
        },
        {
          "internalType": "uint256",
          "name": "amount0Min",
          "type": "uint256"
        },
        {
          "internalType": "uint256",
          "name": "amount1Min",
          "type": "uint256"
        },
        {
          "internalType": "address",
          "name": "to",
          "type": "address"
        }
      ],
      "name": "deposit",
      "outputs": [
        {
          "internalType": "uint256",
          "name": "shares",
          "type": "uint256"
        },
        {
          "internalType": "uint256",
          "name": "amount0",
          "type": "uint256"
        },
        {
          "internalType": "uint256",
          "name": "amount1",
          "type": "uint256"
        }
      ],
      "stateMutability": "nonpayable",
      "type": "function"
    },
    {
      "inputs": [
        {
          "internalType": "uint256",
          "name": "amountTokenDesired",
          "type": "uint256"
        },
        {
          "internalType": "uint256",
          "name": "amountTokenMin",
          "type": "uint256"
        },
        {
          "internalType": "uint256",
          "name": "amountEthMin",
          "type": "uint256"
        },
        {
          "internalType": "address",
          "name": "to",
          "type": "address"
        }
      ],
      "name": "depositEth",
      "outputs": [
        {
          "internalType": "uint256",
          "name": "shares",
          "type": "uint256"
        },
        {
          "internalType": "uint256",
          "name": "amount0",
          "type": "uint256"
        },
        {
          "internalType": "uint256",
          "name": "amount1",
          "type": "uint256"
        }
      ],
      "stateMutability": "payable",
      "type": "function"
    },
    {
      "inputs": [
        {
          "internalType": "int24",
          "name": "tickLower",
          "type": "int24"
        },
        {
          "internalType": "int24",
          "name": "tickUpper",
          "type": "int24"
        },
        {
          "internalType": "uint128",
          "name": "liquidity",
          "type": "uint128"
        }
      ],
      "name": "emergencyBurn",
      "outputs": [],
      "stateMutability": "nonpayable",
      "type": "function"
    },
    {
      "inputs": [],
      "name": "getBalance0",
      "outputs": [
        {
          "internalType": "uint256",
          "name": "",
          "type": "uint256"
        }
      ],
      "stateMutability": "view",
      "type": "function"
    },
    {
      "inputs": [],
      "name": "getBalance1",
      "outputs": [
        {
          "internalType": "uint256",
          "name": "",
          "type": "uint256"
        }
      ],
      "stateMutability": "view",
      "type": "function"
    },
    {
      "inputs": [
        {
          "internalType": "int24",
          "name": "tickLower",
          "type": "int24"
        },
        {
          "internalType": "int24",
          "name": "tickUpper",
          "type": "int24"
        }
      ],
      "name": "getPositionAmounts",
      "outputs": [
        {
          "internalType": "uint256",
          "name": "amount0",
          "type": "uint256"
        },
        {
          "internalType": "uint256",
          "name": "amount1",
          "type": "uint256"
        }
      ],
      "stateMutability": "view",
      "type": "function"
    },
    {
      "inputs": [],
      "name": "getTotalAmounts",
      "outputs": [
        {
          "internalType": "uint256",
          "name": "total0",
          "type": "uint256"
        },
        {
          "internalType": "uint256",
          "name": "total1",
          "type": "uint256"
        }
      ],
      "stateMutability": "view",
      "type": "function"
    },
    {
      "inputs": [],
      "name": "governance",
      "outputs": [
        {
          "internalType": "address",
          "name": "",
          "type": "address"
        }
      ],
      "stateMutability": "view",
      "type": "function"
    },
    {
      "inputs": [
        {
          "internalType": "address",
          "name": "spender",
          "type": "address"
        },
        {
          "internalType": "uint256",
          "name": "addedValue",
          "type": "uint256"
        }
      ],
      "name": "increaseAllowance",
      "outputs": [
        {
          "internalType": "bool",
          "name": "",
          "type": "bool"
        }
      ],
      "stateMutability": "nonpayable",
      "type": "function"
    },
    {
      "inputs": [],
      "name": "limitLower",
      "outputs": [
        {
          "internalType": "int24",
          "name": "",
          "type": "int24"
        }
      ],
      "stateMutability": "view",
      "type": "function"
    },
    {
      "inputs": [],
      "name": "limitUpper",
      "outputs": [
        {
          "internalType": "int24",
          "name": "",
          "type": "int24"
        }
      ],
      "stateMutability": "view",
      "type": "function"
    },
    {
      "inputs": [],
      "name": "maxTotalSupply",
      "outputs": [
        {
          "internalType": "uint256",
          "name": "",
          "type": "uint256"
        }
      ],
      "stateMutability": "view",
      "type": "function"
    },
    {
      "inputs": [],
      "name": "name",
      "outputs": [
        {
          "internalType": "string",
          "name": "",
          "type": "string"
        }
      ],
      "stateMutability": "view",
      "type": "function"
    },
    {
      "inputs": [],
      "name": "pendingGovernance",
      "outputs": [
        {
          "internalType": "address",
          "name": "",
          "type": "address"
        }
      ],
      "stateMutability": "view",
      "type": "function"
    },
    {
      "inputs": [],
      "name": "pool",
      "outputs": [
        {
          "internalType": "contract IUniswapV3Pool",
          "name": "",
          "type": "address"
        }
      ],
      "stateMutability": "view",
      "type": "function"
    },
    {
      "inputs": [],
      "name": "protocolFee",
      "outputs": [
        {
          "internalType": "uint256",
          "name": "",
          "type": "uint256"
        }
      ],
      "stateMutability": "view",
      "type": "function"
    },
    {
      "inputs": [
        {
          "internalType": "int256",
          "name": "swapAmount",
          "type": "int256"
        },
        {
          "internalType": "uint160",
          "name": "sqrtPriceLimitX96",
          "type": "uint160"
        },
        {
          "internalType": "int24",
          "name": "_baseLower",
          "type": "int24"
        },
        {
          "internalType": "int24",
          "name": "_baseUpper",
          "type": "int24"
        },
        {
          "internalType": "int24",
          "name": "_bidLower",
          "type": "int24"
        },
        {
          "internalType": "int24",
          "name": "_bidUpper",
          "type": "int24"
        },
        {
          "internalType": "int24",
          "name": "_askLower",
          "type": "int24"
        },
        {
          "internalType": "int24",
          "name": "_askUpper",
          "type": "int24"
        }
      ],
      "name": "rebalance",
      "outputs": [],
      "stateMutability": "nonpayable",
      "type": "function"
    },
    {
      "inputs": [
        {
          "internalType": "address",
          "name": "_address",
          "type": "address"
        }
      ],
      "name": "setAddressWeth",
      "outputs": [],
      "stateMutability": "nonpayable",
      "type": "function"
    },
    {
      "inputs": [
        {
          "internalType": "address",
          "name": "_governance",
          "type": "address"
        }
      ],
      "name": "setGovernance",
      "outputs": [],
      "stateMutability": "nonpayable",
      "type": "function"
    },
    {
      "inputs": [
        {
          "internalType": "uint256",
          "name": "_maxTotalSupply",
          "type": "uint256"
        }
      ],
      "name": "setMaxTotalSupply",
      "outputs": [],
      "stateMutability": "nonpayable",
      "type": "function"
    },
    {
      "inputs": [
        {
          "internalType": "uint256",
          "name": "_protocolFee",
          "type": "uint256"
        }
      ],
      "name": "setProtocolFee",
      "outputs": [],
      "stateMutability": "nonpayable",
      "type": "function"
    },
    {
      "inputs": [
        {
          "internalType": "address",
          "name": "_strategy",
          "type": "address"
        }
      ],
      "name": "setStrategy",
      "outputs": [],
      "stateMutability": "nonpayable",
      "type": "function"
    },
    {
      "inputs": [],
      "name": "strategy",
      "outputs": [
        {
          "internalType": "address",
          "name": "",
          "type": "address"
        }
      ],
      "stateMutability": "view",
      "type": "function"
    },
    {
      "inputs": [
        {
          "internalType": "contract IERC20",
          "name": "token",
          "type": "address"
        },
        {
          "internalType": "uint256",
          "name": "amount",
          "type": "uint256"
        },
        {
          "internalType": "address",
          "name": "to",
          "type": "address"
        }
      ],
      "name": "sweep",
      "outputs": [],
      "stateMutability": "nonpayable",
      "type": "function"
    },
    {
      "inputs": [],
      "name": "symbol",
      "outputs": [
        {
          "internalType": "string",
          "name": "",
          "type": "string"
        }
      ],
      "stateMutability": "view",
      "type": "function"
    },
    {
      "inputs": [],
      "name": "tickSpacing",
      "outputs": [
        {
          "internalType": "int24",
          "name": "",
          "type": "int24"
        }
      ],
      "stateMutability": "view",
      "type": "function"
    },
    {
      "inputs": [],
      "name": "token0",
      "outputs": [
        {
          "internalType": "contract IERC20",
          "name": "",
          "type": "address"
        }
      ],
      "stateMutability": "view",
      "type": "function"
    },
    {
      "inputs": [],
      "name": "token1",
      "outputs": [
        {
          "internalType": "contract IERC20",
          "name": "",
          "type": "address"
        }
      ],
      "stateMutability": "view",
      "type": "function"
    },
    {
      "inputs": [],
      "name": "totalSupply",
      "outputs": [
        {
          "internalType": "uint256",
          "name": "",
          "type": "uint256"
        }
      ],
      "stateMutability": "view",
      "type": "function"
    },
    {
      "inputs": [
        {
          "internalType": "address",
          "name": "recipient",
          "type": "address"
        },
        {
          "internalType": "uint256",
          "name": "amount",
          "type": "uint256"
        }
      ],
      "name": "transfer",
      "outputs": [
        {
          "internalType": "bool",
          "name": "",
          "type": "bool"
        }
      ],
      "stateMutability": "nonpayable",
      "type": "function"
    },
    {
      "inputs": [
        {
          "internalType": "address",
          "name": "sender",
          "type": "address"
        },
        {
          "internalType": "address",
          "name": "recipient",
          "type": "address"
        },
        {
          "internalType": "uint256",
          "name": "amount",
          "type": "uint256"
        }
      ],
      "name": "transferFrom",
      "outputs": [
        {
          "internalType": "bool",
          "name": "",
          "type": "bool"
        }
      ],
      "stateMutability": "nonpayable",
      "type": "function"
    },
    {
      "inputs": [
        {
          "internalType": "uint256",
          "name": "amount0",
          "type": "uint256"
        },
        {
          "internalType": "uint256",
          "name": "amount1",
          "type": "uint256"
        },
        {
          "internalType": "bytes",
          "name": "data",
          "type": "bytes"
        }
      ],
      "name": "uniswapV3MintCallback",
      "outputs": [],
      "stateMutability": "nonpayable",
      "type": "function"
    },
    {
      "inputs": [
        {
          "internalType": "int256",
          "name": "amount0Delta",
          "type": "int256"
        },
        {
          "internalType": "int256",
          "name": "amount1Delta",
          "type": "int256"
        },
        {
          "internalType": "bytes",
          "name": "data",
          "type": "bytes"
        }
      ],
      "name": "uniswapV3SwapCallback",
      "outputs": [],
      "stateMutability": "nonpayable",
      "type": "function"
    },
    {
      "inputs": [],
      "name": "weth",
      "outputs": [
        {
          "internalType": "address",
          "name": "",
          "type": "address"
        }
      ],
      "stateMutability": "view",
      "type": "function"
    },
    {
      "inputs": [
        {
          "internalType": "uint256",
          "name": "shares",
          "type": "uint256"
        },
        {
          "internalType": "uint256",
          "name": "amount0Min",
          "type": "uint256"
        },
        {
          "internalType": "uint256",
          "name": "amount1Min",
          "type": "uint256"
        },
        {
          "internalType": "address",
          "name": "to",
          "type": "address"
        }
      ],
      "name": "withdraw",
      "outputs": [
        {
          "internalType": "uint256",
          "name": "amount0",
          "type": "uint256"
        },
        {
          "internalType": "uint256",
          "name": "amount1",
          "type": "uint256"
        }
      ],
      "stateMutability": "nonpayable",
      "type": "function"
    },
    {
      "inputs": [
        {
          "internalType": "uint256",
          "name": "shares",
          "type": "uint256"
        },
        {
          "internalType": "uint256",
          "name": "amount0Min",
          "type": "uint256"
        },
        {
          "internalType": "uint256",
          "name": "amount1Min",
          "type": "uint256"
        },
        {
          "internalType": "address",
          "name": "to",
          "type": "address"
        }
      ],
      "name": "withdrawEth",
      "outputs": [
        {
          "internalType": "uint256",
          "name": "amount0",
          "type": "uint256"
        },
        {
          "internalType": "uint256",
          "name": "amount1",
          "type": "uint256"
        }
      ],
      "stateMutability": "nonpayable",
      "type": "function"
    }
  ],
  "bytecode": "6101006040523480156200001257600080fd5b5060405162004e6538038062004e65833981810160405260608110156200003857600080fd5b50805160208083015160409384015184518086018652600b81526a105b1c1a184815985d5b1d60aa1b8185019081528651808801909752600287526120ab60f11b948701949094528051949592949193869386938693926200009e9160039190620002c3565b508051620000b4906004906020840190620002c3565b50506005805460ff191660121790555060016006556001600160601b0319606084901b1660805260408051630dfe168160e01b815290516001600160a01b03851691630dfe1681916004808301926020929190829003018186803b1580156200011c57600080fd5b505afa15801562000131573d6000803e3d6000fd5b505050506040513d60208110156200014857600080fd5b505160601b6001600160601b03191660a0526040805163d21220a760e01b815290516001600160a01b0385169163d21220a7916004808301926020929190829003018186803b1580156200019b57600080fd5b505afa158015620001b0573d6000803e3d6000fd5b505050506040513d6020811015620001c757600080fd5b505160601b6001600160601b03191660c052604080516334324e9f60e21b815290516001600160a01b0385169163d0c93a7c916004808301926020929190829003018186803b1580156200021a57600080fd5b505afa1580156200022f573d6000803e3d6000fd5b505050506040513d60208110156200024657600080fd5b5051600290810b900b60e81b60e05260078290556008819055600a80546001600160a01b03191633179055620f42408210620002b7576040805162461bcd60e51b815260206004820152600b60248201526a70726f746f636f6c46656560a81b604482015290519081900360640190fd5b5050505050506200036f565b828054600181600116156101000203166002900490600052602060002090601f016020900481019282620002fb576000855562000346565b82601f106200031657805160ff191683800117855562000346565b8280016001018555821562000346579182015b828111156200034657825182559160200191906001019062000329565b506200035492915062000358565b5090565b5b8082111562000354576000815560010162000359565b60805160601c60a05160601c60c05160601c60e05160e81c614a0a6200045b600039806127385280613705525080610c6452806111765280611580528061173f5280611b79528061275c52806129ea5280612a935280612b4b5280612ca5525080610c2a5280610d46528061113b528061153b5280611634528061180a52806119805280611bb352806129b05280612a595280612b0e5280612c68525080610d7a5280611e045280612042528061251052806125c65280612a1c5280612c28528061308352806138fb5280613a015280613ac95280613c325280613d3e5280613d8c5250614a0a6000f3fe6080604052600436106102885760003560e01c8063787dce3d1161015a578063b7102653116100c1578063dc2c256f1161007a578063dc2c256f14610a65578063dd62ed3e14610aa8578063eae989a214610ae3578063f39c38a014610af8578063fa08274314610b0d578063fa461e3314610b2257610288565b8063b710265314610925578063c4a7761e14610958578063d0c93a7c1461096d578063d21220a714610982578063d331bef714610997578063d3487997146109dc57610288565b8063a8c62e7611610113578063a8c62e7614610811578063a9059cbb14610826578063a91ef6eb1461085f578063ab033ea914610896578063abbffcb9146108c9578063b0e21e8a1461091057610288565b8063787dce3d1461070257806387e5e0831461072c578063888a91341461079957806395d89b41146107ae578063a00fa77f146107c3578063a457c2d7146107d857610288565b806333a100ca116101fe57806341aec538116101b757806341aec5381461064357806351e87af7146106585780635aa6e6751461066d578063629d94051461068257806362beccf91461069757806370a08231146106cf57610288565b806333a100ca146104d1578063365d0ed714610504578063395093511461056d5780633f3e4c11146105a65780633fc8cef3146105d057806340d6ac4d146105e557610288565b806316f0115b1161025057806316f0115b146103fd57806318160ddd14610412578063238efcbc1461043957806323b872dd1461044e5780632ab4d05214610491578063313ce567146104a657610288565b80630430c1301461028a57806306fdde03146102c9578063095ea7b3146103535780630dfe1681146103a05780630f35bcac146103d1575b005b34801561029657600080fd5b50610288600480360360608110156102ad57600080fd5b50803590602081013590604001356001600160a01b0316610bab565b3480156102d557600080fd5b506102de610c90565b6040805160208082528351818301528351919283929083019185019080838360005b83811015610318578181015183820152602001610300565b50505050905090810190601f1680156103455780820380516001836020036101000a031916815260200191505b509250505060405180910390f35b34801561035f57600080fd5b5061038c6004803603604081101561037657600080fd5b506001600160a01b038135169060200135610d26565b604080519115158252519081900360200190f35b3480156103ac57600080fd5b506103b5610d44565b604080516001600160a01b039092168252519081900360200190f35b3480156103dd57600080fd5b506103e6610d68565b6040805160029290920b8252519081900360200190f35b34801561040957600080fd5b506103b5610d78565b34801561041e57600080fd5b50610427610d9c565b60408051918252519081900360200190f35b34801561044557600080fd5b50610288610da2565b34801561045a57600080fd5b5061038c6004803603606081101561047157600080fd5b506001600160a01b03813581169160208101359091169060400135610e09565b34801561049d57600080fd5b50610427610e91565b3480156104b257600080fd5b506104bb610e97565b6040805160ff9092168252519081900360200190f35b3480156104dd57600080fd5b50610288600480360360208110156104f457600080fd5b50356001600160a01b0316610ea0565b34801561051057600080fd5b5061054f600480360360a081101561052757600080fd5b50803590602081013590604081013590606081013590608001356001600160a01b0316610f0e565b60408051938452602084019290925282820152519081900360600190f35b34801561057957600080fd5b5061038c6004803603604081101561059057600080fd5b506001600160a01b038135169060200135611257565b3480156105b257600080fd5b50610288600480360360208110156105c957600080fd5b50356112a5565b3480156105dc57600080fd5b506103b56112f6565b3480156105f157600080fd5b5061062a6004803603608081101561060857600080fd5b50803590602081013590604081013590606001356001600160a01b0316611305565b6040805192835260208301919091528051918290030190f35b34801561064f57600080fd5b50610427611735565b34801561066457600080fd5b506103e66117e1565b34801561067957600080fd5b506103b56117f1565b34801561068e57600080fd5b50610427611800565b61054f600480360360808110156106ad57600080fd5b50803590602081013590604081013590606001356001600160a01b0316611875565b3480156106db57600080fd5b50610427600480360360208110156106f257600080fd5b50356001600160a01b0316611c98565b34801561070e57600080fd5b506102886004803603602081101561072557600080fd5b5035611cb7565b34801561073857600080fd5b50610288600480360361010081101561075057600080fd5b508035906001600160a01b03602082013516906040810135600290810b916060810135820b916080820135810b9160a0810135820b9160c0820135810b9160e00135900b611d4d565b3480156107a557600080fd5b506103e6612282565b3480156107ba57600080fd5b506102de612292565b3480156107cf57600080fd5b506104276122f3565b3480156107e457600080fd5b5061038c600480360360408110156107fb57600080fd5b506001600160a01b0381351690602001356122f9565b34801561081d57600080fd5b506103b5612361565b34801561083257600080fd5b5061038c6004803603604081101561084957600080fd5b506001600160a01b038135169060200135612370565b34801561086b57600080fd5b5061062a6004803603604081101561088257600080fd5b508035600290810b9160200135900b612384565b3480156108a257600080fd5b50610288600480360360208110156108b957600080fd5b50356001600160a01b031661241b565b3480156108d557600080fd5b50610288600480360360608110156108ec57600080fd5b508035600290810b91602081013590910b90604001356001600160801b0316612489565b34801561091c57600080fd5b5061042761263b565b34801561093157600080fd5b506102886004803603602081101561094857600080fd5b50356001600160a01b0316612641565b34801561096457600080fd5b5061062a6126af565b34801561097957600080fd5b506103e6612736565b34801561098e57600080fd5b506103b561275a565b3480156109a357600080fd5b5061062a600480360360808110156109ba57600080fd5b50803590602081013590604081013590606001356001600160a01b031661277e565b3480156109e857600080fd5b50610288600480360360608110156109ff57600080fd5b813591602081013591810190606081016040820135640100000000811115610a2657600080fd5b820183602082011115610a3857600080fd5b80359060200191846001830284011164010000000083111715610a5a57600080fd5b509092509050612a11565b348015610a7157600080fd5b5061028860048036036060811015610a8857600080fd5b506001600160a01b03813581169160208101359160409091013516612ac0565b348015610ab457600080fd5b5061042760048036036040811015610acb57600080fd5b506001600160a01b0381358116916020013516612bcd565b348015610aef57600080fd5b50610427612bf8565b348015610b0457600080fd5b506103b5612bfe565b348015610b1957600080fd5b506103e6612c0d565b348015610b2e57600080fd5b5061028860048036036060811015610b4557600080fd5b813591602081013591810190606081016040820135640100000000811115610b6c57600080fd5b820183602082011115610b7e57600080fd5b80359060200191846001830284011164010000000083111715610ba057600080fd5b509092509050612c1d565b600a546001600160a01b03163314610bf7576040805162461bcd60e51b815260206004820152600a602482015269676f7665726e616e636560b01b604482015290519081900360640190fd5b600c54610c049084612ccc565b600c55600d54610c149083612ccc565b600d558215610c5157610c516001600160a01b037f0000000000000000000000000000000000000000000000000000000000000000168285612d29565b8115610c8b57610c8b6001600160a01b037f0000000000000000000000000000000000000000000000000000000000000000168284612d29565b505050565b60038054604080516020601f6002600019610100600188161502019095169490940493840181900481028201810190925282815260609390929091830182828015610d1c5780601f10610cf157610100808354040283529160200191610d1c565b820191906000526020600020905b815481529060010190602001808311610cff57829003601f168201915b5050505050905090565b6000610d3a610d33612d7b565b8484612d7f565b5060015b92915050565b7f000000000000000000000000000000000000000000000000000000000000000081565b600b54600160e81b900460020b81565b7f000000000000000000000000000000000000000000000000000000000000000081565b60025490565b600b546001600160a01b03163314610df5576040805162461bcd60e51b815260206004820152601160248201527070656e64696e67476f7665726e616e636560781b604482015290519081900360640190fd5b600a80546001600160a01b03191633179055565b6000610e16848484612e6b565b610e8684610e22612d7b565b610e81856040518060600160405280602881526020016148f4602891396001600160a01b038a16600090815260016020526040812090610e60612d7b565b6001600160a01b031681526020810191909152604001600020549190612fc6565b612d7f565b5060015b9392505050565b60085481565b60055460ff1690565b600a546001600160a01b03163314610eec576040805162461bcd60e51b815260206004820152600a602482015269676f7665726e616e636560b01b604482015290519081900360640190fd5b600980546001600160a01b0319166001600160a01b0392909216919091179055565b600080600060026006541415610f59576040805162461bcd60e51b815260206004820152601f6024820152600080516020614823833981519152604482015290519081900360640190fd5b600260065587151580610f6c5750600087115b610fbd576040805162461bcd60e51b815260206004820181905260248201527f616d6f756e743044657369726564206f7220616d6f756e743144657369726564604482015290519081900360640190fd5b6001600160a01b03841615801590610fde57506001600160a01b0384163014155b611014576040805162461bcd60e51b8152602060048201526002602482015261746f60f01b604482015290519081900360640190fd5b600b5461103690600160a01b8104600290810b91600160b81b9004900b61305d565b600b5461105890600160d01b8104600290810b91600160e81b9004900b61305d565b61106288886130fd565b91945092509050826110a4576040805162461bcd60e51b815260206004820152600660248201526573686172657360d01b604482015290519081900360640190fd5b858210156110e6576040805162461bcd60e51b815260206004820152600a60248201526930b6b7bab73a1826b4b760b11b604482015290519081900360640190fd5b84811015611128576040805162461bcd60e51b815260206004820152600a60248201526930b6b7bab73a18a6b4b760b11b604482015290519081900360640190fd5b8115611163576111636001600160a01b037f000000000000000000000000000000000000000000000000000000000000000016333085613229565b801561119e5761119e6001600160a01b037f000000000000000000000000000000000000000000000000000000000000000016333084613229565b6111a88484613283565b604080518481526020810184905280820183905290516001600160a01b0386169133917f4e2ca0515ed1aef1395f66b5303bb5d6f1bf9d61a353fa53f73f8ac9973fa9f69181900360600190a3600854611200610d9c565b1115611244576040805162461bcd60e51b815260206004820152600e60248201526d6d6178546f74616c537570706c7960901b604482015290519081900360640190fd5b6001600681905550955095509592505050565b6000610d3a611264612d7b565b84610e818560016000611275612d7b565b6001600160a01b03908116825260208083019390935260409182016000908120918c168152925290205490613373565b600a546001600160a01b031633146112f1576040805162461bcd60e51b815260206004820152600a602482015269676f7665726e616e636560b01b604482015290519081900360640190fd5b600855565b600e546001600160a01b031681565b6000806002600654141561134e576040805162461bcd60e51b815260206004820152601f6024820152600080516020614823833981519152604482015290519081900360640190fd5b60026006558561138e576040805162461bcd60e51b815260206004820152600660248201526573686172657360d01b604482015290519081900360640190fd5b6001600160a01b038316158015906113af57506001600160a01b0383163014155b6113e5576040805162461bcd60e51b8152602060048201526002602482015261746f60f01b604482015290519081900360640190fd5b60006113ef610d9c565b90506113fb33886133cd565b6000611419826114138a61140d611800565b906134c9565b90613522565b9050600061142d836114138b61140d611735565b600b54909150600090819061145990600160a01b8104600290810b91600160b81b9004900b8d88613589565b600b549193509150600090819061148790600160d01b8104600290810b91600160e81b9004900b8f8a613589565b90925090506114a08261149a8887613373565b90613373565b98506114b08161149a8786613373565b97508b8910156114f4576040805162461bcd60e51b815260206004820152600a60248201526930b6b7bab73a1826b4b760b11b604482015290519081900360640190fd5b8a881015611536576040805162461bcd60e51b815260206004820152600a60248201526930b6b7bab73a18a6b4b760b11b604482015290519081900360640190fd5b600e547f00000000000000000000000000000000000000000000000000000000000000006001600160a01b03908116911614156116215787156115a7576115a76001600160a01b037f0000000000000000000000000000000000000000000000000000000000000000168b8a612d29565b881561161c57600e5460408051632e1a7d4d60e01b8152600481018c905290516001600160a01b0390921691632e1a7d4d9160248082019260009290919082900301818387803b1580156115fa57600080fd5b505af115801561160e573d6000803e3d6000fd5b5050505061161c8a8a61362f565b6116d0565b881561165b5761165b6001600160a01b037f0000000000000000000000000000000000000000000000000000000000000000168b8b612d29565b87156116d057600e5460408051632e1a7d4d60e01b8152600481018b905290516001600160a01b0390921691632e1a7d4d9160248082019260009290919082900301818387803b1580156116ae57600080fd5b505af11580156116c2573d6000803e3d6000fd5b505050506116d08a8961362f565b604080518e8152602081018b90528082018a905290516001600160a01b038c169133917febff2602b3f468259e1e99f613fed6691f3a6526effe6ef3e768ba7ae7a36c4f9181900360600190a350505050505050600160068190555094509492505050565b60006117dc600d547f00000000000000000000000000000000000000000000000000000000000000006001600160a01b03166370a08231306040518263ffffffff1660e01b815260040180826001600160a01b0316815260200191505060206040518083038186803b1580156117aa57600080fd5b505afa1580156117be573d6000803e3d6000fd5b505050506040513d60208110156117d457600080fd5b505190612ccc565b905090565b600b54600160d01b900460020b81565b600a546001600160a01b031681565b60006117dc600c547f00000000000000000000000000000000000000000000000000000000000000006001600160a01b03166370a08231306040518263ffffffff1660e01b815260040180826001600160a01b0316815260200191505060206040518083038186803b1580156117aa57600080fd5b6000806000600260065414156118c0576040805162461bcd60e51b815260206004820152601f6024820152600080516020614823833981519152604482015290519081900360640190fd5b6002600655861515806118d35750600034115b611924576040805162461bcd60e51b815260206004820152601b60248201527f616d6f756e74546f6b656e44657369726564206f722076616c75650000000000604482015290519081900360640190fd5b6001600160a01b0384161580159061194557506001600160a01b0384163014155b61197b576040805162461bcd60e51b8152602060048201526002602482015261746f60f01b604482015290519081900360640190fd5b600e547f00000000000000000000000000000000000000000000000000000000000000006001600160a01b03908116911614600080808084156119c857503492508a9150899050886119d4565b508a9250349150889050895b600b546119f690600160a01b8104600290810b91600160b81b9004900b61305d565b600b54611a1890600160d01b8104600290810b91600160e81b9004900b61305d565b611a2284846130fd565b9199509750955087611a64576040805162461bcd60e51b815260206004820152600660248201526573686172657360d01b604482015290519081900360640190fd5b80871015611aa6576040805162461bcd60e51b815260206004820152600a60248201526930b6b7bab73a1826b4b760b11b604482015290519081900360640190fd5b81861015611ae8576040805162461bcd60e51b815260206004820152600a60248201526930b6b7bab73a18a6b4b760b11b604482015290519081900360640190fd5b600e546001600160a01b031663d0e30db086611b045787611b06565b885b6040518263ffffffff1660e01b81526004016000604051808303818588803b158015611b3157600080fd5b505af1158015611b45573d6000803e3d6000fd5b505050505084611b555785611b57565b865b341115611b6657611b666136bb565b8415611ba657611ba16001600160a01b037f000000000000000000000000000000000000000000000000000000000000000016333089613229565b611bdb565b611bdb6001600160a01b037f00000000000000000000000000000000000000000000000000000000000000001633308a613229565b611be58989613283565b604080518981526020810189905280820188905290516001600160a01b038b169133917f4e2ca0515ed1aef1395f66b5303bb5d6f1bf9d61a353fa53f73f8ac9973fa9f69181900360600190a3600854611c3d610d9c565b1115611c81576040805162461bcd60e51b815260206004820152600e60248201526d6d6178546f74616c537570706c7960901b604482015290519081900360640190fd5b505050505060016006819055509450945094915050565b6001600160a01b0381166000908152602081905260409020545b919050565b600a546001600160a01b03163314611d03576040805162461bcd60e51b815260206004820152600a602482015269676f7665726e616e636560b01b604482015290519081900360640190fd5b620f42408110611d48576040805162461bcd60e51b815260206004820152600b60248201526a70726f746f636f6c46656560a81b604482015290519081900360640190fd5b600755565b60026006541415611d93576040805162461bcd60e51b815260206004820152601f6024820152600080516020614823833981519152604482015290519081900360640190fd5b60026006556009546001600160a01b03163314611de2576040805162461bcd60e51b8152602060048201526008602482015267737472617465677960c01b604482015290519081900360640190fd5b611dec8686613703565b611df68484613703565b611e008282613703565b60007f00000000000000000000000000000000000000000000000000000000000000006001600160a01b0316633850c7bd6040518163ffffffff1660e01b815260040160e06040518083038186803b158015611e5b57600080fd5b505afa158015611e6f573d6000803e3d6000fd5b505050506040513d60e0811015611e8557600080fd5b50602001519050600281810b9085900b1315611ed3576040805162461bcd60e51b81526020600482015260086024820152673134b22ab83832b960c11b604482015290519081900360640190fd5b8060020b8360020b13611f18576040805162461bcd60e51b815260206004820152600860248201526730b9b5a637bbb2b960c11b604482015290519081900360640190fd5b600b54600090611f3d90600160a01b8104600290810b91600160b81b9004900b6138e3565b5050600b54929350600092611f6a9250600160d01b8104600290810b9250600160e81b909104900b6138e3565b5050600b54929350611f9692600160a01b8104600290810b9350600160b81b909104900b9050846139b2565b5050600b54611fbe9250600160d01b8104600290810b9250600160e81b909104900b836139b2565b5050505050506000611fce611800565b90506000611fda611735565b90507f210f60adf1db7a02e9db9a49ec7c2eb2060c516cbcfd01a0c05288144738ee5d838383612008610d9c565b6040805160029590950b85526020850193909352838301919091526060830152519081900360800190a18a1561212e576001600160a01b037f00000000000000000000000000000000000000000000000000000000000000001663128acb083060008e138061207a578e60000361207c565b8e5b8e6040518563ffffffff1660e01b815260040180856001600160a01b031681526020018415158152602001838152602001826001600160a01b0316815260200180602001828103825260008152602001955050505050506040805180830381600087803b1580156120ec57600080fd5b505af1158015612100573d6000803e3d6000fd5b505050506040513d604081101561211657600080fd5b506121219050611800565b915061212b611735565b90505b600061213c8a8a8585613c2d565b90506121498a8a83613cde565b600b805460028c810b62ffffff908116600160a01b0262ffffff60a01b19928e900b909116600160b81b0262ffffff60b81b19909316929092171617905561218f611800565b9250612199611735565b915060006121a989898686613c2d565b905060006121b988888787613c2d565b9050806001600160801b0316826001600160801b03161115612223576121e08a8a84613cde565b600b805460028c810b62ffffff908116600160d01b0262ffffff60d01b19928e900b909116600160e81b026001600160e81b03909316929092171617905561226d565b61222e888883613cde565b600b805460028a810b62ffffff908116600160d01b0262ffffff60d01b19928c900b909116600160e81b026001600160e81b0390931692909217161790555b50506001600655505050505050505050505050565b600b54600160b81b900460020b81565b60048054604080516020601f6002600019610100600188161502019095169490940493840181900481028201810190925282815260609390929091830182828015610d1c5780601f10610cf157610100808354040283529160200191610d1c565b600d5481565b6000610d3a612306612d7b565b84610e81856040518060600160405280602581526020016149b06025913960016000612330612d7b565b6001600160a01b03908116825260208083019390935260409182016000908120918d16815292529020549190612fc6565b6009546001600160a01b031681565b6000610d3a61237d612d7b565b8484612e6b565b600080600080600061239687876138e3565b94509450505092506123a9878785613d85565b60075491965094506000906123c290620f424090612ccc565b90506123e86123e1620f42406114136001600160801b038716856134c9565b8790613373565b955061240e612407620f42406114136001600160801b038616856134c9565b8690613373565b9450505050509250929050565b600a546001600160a01b03163314612467576040805162461bcd60e51b815260206004820152600a602482015269676f7665726e616e636560b01b604482015290519081900360640190fd5b600b80546001600160a01b0319166001600160a01b0392909216919091179055565b600a546001600160a01b031633146124d5576040805162461bcd60e51b815260206004820152600a602482015269676f7665726e616e636560b01b604482015290519081900360640190fd5b6040805163a34123a760e01b8152600285810b600483015284900b60248201526001600160801b038316604482015281516001600160a01b037f0000000000000000000000000000000000000000000000000000000000000000169263a34123a792606480820193918290030181600087803b15801561255457600080fd5b505af1158015612568573d6000803e3d6000fd5b505050506040513d604081101561257e57600080fd5b5050604080516309e3d67b60e31b8152306004820152600285810b602483015284900b60448201526001600160801b0360648201819052608482015281516001600160a01b037f00000000000000000000000000000000000000000000000000000000000000001692634f1eb3d89260a480820193918290030181600087803b15801561260a57600080fd5b505af115801561261e573d6000803e3d6000fd5b505050506040513d604081101561263457600080fd5b5050505050565b60075481565b600a546001600160a01b0316331461268d576040805162461bcd60e51b815260206004820152600a602482015269676f7665726e616e636560b01b604482015290519081900360640190fd5b600e80546001600160a01b0319166001600160a01b0392909216919091179055565b600b546000908190819081906126da90600160a01b8104600290810b91600160b81b9004900b612384565b600b549193509150600090819061270690600160d01b8104600290810b91600160e81b9004900b612384565b9150915061271a8261149a8661149a611800565b955061272c8161149a8561149a611735565b9450505050509091565b7f000000000000000000000000000000000000000000000000000000000000000081565b7f000000000000000000000000000000000000000000000000000000000000000081565b600080600260065414156127c7576040805162461bcd60e51b815260206004820152601f6024820152600080516020614823833981519152604482015290519081900360640190fd5b600260065585612807576040805162461bcd60e51b815260206004820152600660248201526573686172657360d01b604482015290519081900360640190fd5b6001600160a01b0383161580159061282857506001600160a01b0383163014155b61285e576040805162461bcd60e51b8152602060048201526002602482015261746f60f01b604482015290519081900360640190fd5b6000612868610d9c565b905061287433886133cd565b6000612886826114138a61140d611800565b9050600061289a836114138b61140d611735565b600b5490915060009081906128c690600160a01b8104600290810b91600160b81b9004900b8d88613589565b600b54919350915060009081906128f490600160d01b8104600290810b91600160e81b9004900b8f8a613589565b90925090506129078261149a8887613373565b98506129178161149a8786613373565b97508b89101561295b576040805162461bcd60e51b815260206004820152600a60248201526930b6b7bab73a1826b4b760b11b604482015290519081900360640190fd5b8a88101561299d576040805162461bcd60e51b815260206004820152600a60248201526930b6b7bab73a18a6b4b760b11b604482015290519081900360640190fd5b88156129d7576129d76001600160a01b037f0000000000000000000000000000000000000000000000000000000000000000168b8b612d29565b87156116d0576116d06001600160a01b037f0000000000000000000000000000000000000000000000000000000000000000168b8a612d29565b336001600160a01b037f00000000000000000000000000000000000000000000000000000000000000001614612a4657600080fd5b8315612a8057612a806001600160a01b037f0000000000000000000000000000000000000000000000000000000000000000163386612d29565b8215612aba57612aba6001600160a01b037f0000000000000000000000000000000000000000000000000000000000000000163385612d29565b50505050565b600a546001600160a01b03163314612b0c576040805162461bcd60e51b815260206004820152600a602482015269676f7665726e616e636560b01b604482015290519081900360640190fd5b7f00000000000000000000000000000000000000000000000000000000000000006001600160a01b0316836001600160a01b031614158015612b8057507f00000000000000000000000000000000000000000000000000000000000000006001600160a01b0316836001600160a01b031614155b612bb9576040805162461bcd60e51b81526020600482015260056024820152643a37b5b2b760d91b604482015290519081900360640190fd5b610c8b6001600160a01b0384168284612d29565b6001600160a01b03918216600090815260016020908152604080832093909416825291909152205490565b600c5481565b600b546001600160a01b031681565b600b54600160a01b900460020b81565b336001600160a01b037f00000000000000000000000000000000000000000000000000000000000000001614612c5257600080fd5b6000841315612c8f57612c8f6001600160a01b037f0000000000000000000000000000000000000000000000000000000000000000163386612d29565b6000831315612aba57612aba6001600160a01b037f0000000000000000000000000000000000000000000000000000000000000000163385612d29565b600082821115612d23576040805162461bcd60e51b815260206004820152601e60248201527f536166654d6174683a207375627472616374696f6e206f766572666c6f770000604482015290519081900360640190fd5b50900390565b604080516001600160a01b038416602482015260448082018490528251808303909101815260649091019091526020810180516001600160e01b031663a9059cbb60e01b179052610c8b908490613e3a565b3390565b6001600160a01b038316612dc45760405162461bcd60e51b81526004018080602001828103825260248152602001806149626024913960400191505060405180910390fd5b6001600160a01b038216612e095760405162461bcd60e51b81526004018080602001828103825260228152602001806148656022913960400191505060405180910390fd5b6001600160a01b03808416600081815260016020908152604080832094871680845294825291829020859055815185815291517f8c5be1e5ebec7d5bd14f71427d1e84f3dd0314c0f7b2291e5b200ac8c7c3b9259281900390910190a3505050565b6001600160a01b038316612eb05760405162461bcd60e51b815260040180806020018281038252602581526020018061493d6025913960400191505060405180910390fd5b6001600160a01b038216612ef55760405162461bcd60e51b81526004018080602001828103825260238152602001806148006023913960400191505060405180910390fd5b612f00838383610c8b565b612f3d81604051806060016040528060268152602001614887602691396001600160a01b0386166000908152602081905260409020549190612fc6565b6001600160a01b038085166000908152602081905260408082209390935590841681522054612f6c9082613373565b6001600160a01b038084166000818152602081815260409182902094909455805185815290519193928716927fddf252ad1be2c89b69c2b068fc378daa952ba7f163c4a11628f55a4df523b3ef92918290030190a3505050565b600081848411156130555760405162461bcd60e51b81526004018080602001828103825283818151815260200191508051906020019080838360005b8381101561301a578181015183820152602001613002565b50505050905090810190601f1680156130475780820380516001836020036101000a031916815260200191505b509250505060405180910390fd5b505050900390565b600061306983836138e3565b5050505090506000816001600160801b03161115610c8b577f00000000000000000000000000000000000000000000000000000000000000006001600160a01b031663a34123a7848460006040518463ffffffff1660e01b8152600401808460020b81526020018360020b815260200182815260200193505050506040805180830381600087803b15801561260a57600080fd5b60008060008061310b610d9c565b90506000806131186126af565b91509150826000148061312b5750600082115b806131365750600081115b61313c57fe5b82613158578794508693506131518585613eeb565b955061321f565b8161316e578693506131518161141386866134c9565b80613184578794506131518261141387866134c9565b60006131a26131938a846134c9565b61319d8a866134c9565b613f02565b9050600081116131e1576040805162461bcd60e51b815260206004820152600560248201526463726f737360d81b604482015290519081900360640190fd5b6131f4600161149a846114138584612ccc565b9550613209600161149a856114138584612ccc565b945061321b82611413858185896134c9565b9650505b5050509250925092565b604080516001600160a01b0380861660248301528416604482015260648082018490528251808303909101815260849091019091526020810180516001600160e01b03166323b872dd60e01b179052612aba908590613e3a565b6001600160a01b0382166132de576040805162461bcd60e51b815260206004820152601f60248201527f45524332303a206d696e7420746f20746865207a65726f206164647265737300604482015290519081900360640190fd5b6132ea60008383610c8b565b6002546132f79082613373565b6002556001600160a01b03821660009081526020819052604090205461331d9082613373565b6001600160a01b0383166000818152602081815260408083209490945583518581529351929391927fddf252ad1be2c89b69c2b068fc378daa952ba7f163c4a11628f55a4df523b3ef9281900390910190a35050565b600082820183811015610e8a576040805162461bcd60e51b815260206004820152601b60248201527f536166654d6174683a206164646974696f6e206f766572666c6f770000000000604482015290519081900360640190fd5b6001600160a01b0382166134125760405162461bcd60e51b815260040180806020018281038252602181526020018061491c6021913960400191505060405180910390fd5b61341e82600083610c8b565b61345b81604051806060016040528060228152602001614843602291396001600160a01b0385166000908152602081905260409020549190612fc6565b6001600160a01b0383166000908152602081905260409020556002546134819082612ccc565b6002556040805182815290516000916001600160a01b038516917fddf252ad1be2c89b69c2b068fc378daa952ba7f163c4a11628f55a4df523b3ef9181900360200190a35050565b6000826134d857506000610d3e565b828202828482816134e557fe5b0414610e8a5760405162461bcd60e51b81526004018080602001828103825260218152602001806148d36021913960400191505060405180910390fd5b6000808211613578576040805162461bcd60e51b815260206004820152601a60248201527f536166654d6174683a206469766973696f6e206279207a65726f000000000000604482015290519081900360640190fd5b81838161358157fe5b049392505050565b600080600061359887876138e3565b50505050905060006135c08561141388856001600160801b03166134c990919063ffffffff16565b90508015613624576000806000806135e18c8c6135dc88613f11565b6139b2565b929650909450925090506136036135fc8a611413858e6134c9565b8590613373565b975061361d6136168a611413848e6134c9565b8490613373565b9650505050505b505094509492505050565b6040516000906001600160a01b0384169083908381818185875af1925050503d806000811461367a576040519150601f19603f3d011682016040523d82523d6000602084013e61367f565b606091505b5050905080610c8b576040805162461bcd60e51b815260206004820152600360248201526253544560e81b604482015290519081900360640190fd5b47156136cb576136cb334761362f565b60408051478152905133917fad36838b01aec4e99426258121721bb681edf5b60468144b23d619476b5c7295919081900360200190a2565b7f0000000000000000000000000000000000000000000000000000000000000000600282810b9084900b12613777576040805162461bcd60e51b81526020600482015260156024820152743a34b1b5a637bbb2b9101e103a34b1b5aab83832b960591b604482015290519081900360640190fd5b620d89e719600284900b12156137c8576040805162461bcd60e51b81526020600482015260116024820152707469636b4c6f77657220746f6f206c6f7760781b604482015290519081900360640190fd5b620d89e8600283900b1315613819576040805162461bcd60e51b81526020600482015260126024820152710e8d2c6d6aae0e0cae440e8dede40d0d2ced60731b604482015290519081900360640190fd5b8060020b8360020b8161382857fe5b0760020b1561387e576040805162461bcd60e51b815260206004820152601760248201527f7469636b4c6f7765722025207469636b53706163696e67000000000000000000604482015290519081900360640190fd5b8060020b8260020b8161388d57fe5b0760020b15610c8b576040805162461bcd60e51b815260206004820152601760248201527f7469636b55707065722025207469636b53706163696e67000000000000000000604482015290519081900360640190fd5b6000806000806000806138f7308989613f28565b90507f00000000000000000000000000000000000000000000000000000000000000006001600160a01b031663514ea4bf826040518263ffffffff1660e01b81526004018082815260200191505060a06040518083038186803b15801561395d57600080fd5b505afa158015613971573d6000803e3d6000fd5b505050506040513d60a081101561398757600080fd5b508051602082015160408301516060840151608090940151929c919b50995091975095509350505050565b60008080806001600160801b03851615613a7e576040805163a34123a760e01b8152600289810b600483015288900b60248201526001600160801b038716604482015281516001600160a01b037f0000000000000000000000000000000000000000000000000000000000000000169263a34123a792606480820193918290030181600087803b158015613a4557600080fd5b505af1158015613a59573d6000803e3d6000fd5b505050506040513d6040811015613a6f57600080fd5b50805160209091015190945092505b604080516309e3d67b60e31b8152306004820152600289810b602483015288900b60448201526001600160801b03606482018190526084820152815160009283926001600160a01b037f00000000000000000000000000000000000000000000000000000000000000001692634f1eb3d89260a48084019391929182900301818787803b158015613b0e57600080fd5b505af1158015613b22573d6000803e3d6000fd5b505050506040513d6040811015613b3857600080fd5b5080516020909101516001600160801b039182169350169050613b5b8287612ccc565b9350613b678186612ccc565b60075490935060009081908015613bd857613b89620f424061141389846134c9565b9250613b9c620f424061141388846134c9565b9150613ba88784612ccc565b9650613bb48683612ccc565b600c54909650613bc49084613373565b600c55600d54613bd49083613373565b600d555b60408051888152602081018890528082018590526060810184905290517f1ac56d7e866e3f5ea9aa92aa11758ead39a0a5f013f3fefb0f47cb9d008edd279181900360800190a1505050505093509350935093565b6000807f00000000000000000000000000000000000000000000000000000000000000006001600160a01b0316633850c7bd6040518163ffffffff1660e01b815260040160e06040518083038186803b158015613c8957600080fd5b505afa158015613c9d573d6000803e3d6000fd5b505050506040513d60e0811015613cb357600080fd5b50519050613cd481613cc488613f7e565b613ccd88613f7e565b87876142b0565b9695505050505050565b6001600160801b03811615610c8b5760408051633c8a7d8d60e01b8152306004820152600285810b602483015284900b60448201526001600160801b038316606482015260a06084820152600060a4820181905282516001600160a01b037f00000000000000000000000000000000000000000000000000000000000000001693633c8a7d8d9360c480820194929392918390030190829087803b15801561260a57600080fd5b60008060007f00000000000000000000000000000000000000000000000000000000000000006001600160a01b0316633850c7bd6040518163ffffffff1660e01b815260040160e06040518083038186803b158015613de357600080fd5b505afa158015613df7573d6000803e3d6000fd5b505050506040513d60e0811015613e0d57600080fd5b50519050613e2d81613e1e88613f7e565b613e2788613f7e565b87614374565b9250925050935093915050565b6000613e8f826040518060400160405280602081526020017f5361666545524332303a206c6f772d6c6576656c2063616c6c206661696c6564815250856001600160a01b03166144109092919063ffffffff16565b805190915015610c8b57808060200190516020811015613eae57600080fd5b5051610c8b5760405162461bcd60e51b815260040180806020018281038252602a815260200180614986602a913960400191505060405180910390fd5b600081831015613efb5781610e8a565b5090919050565b6000818310613efb5781610e8a565b60006001600160801b03821115613f2457fe5b5090565b6040805160609490941b6bffffffffffffffffffffffff1916602080860191909152600293840b60e890811b60348701529290930b90911b60378401528051808403601a018152603a9093019052815191012090565b60008060008360020b12613f95578260020b613f9d565b8260020b6000035b9050620d89e8811115613fdb576040805162461bcd60e51b81526020600482015260016024820152601560fa1b604482015290519081900360640190fd5b600060018216613fef57600160801b614001565b6ffffcb933bd6fad37aa2d162d1a5940015b70ffffffffffffffffffffffffffffffffff1690506002821615614035576ffff97272373d413259a46990580e213a0260801c5b6004821615614054576ffff2e50f5f656932ef12357cf3c7fdcc0260801c5b6008821615614073576fffe5caca7e10e4e61c3624eaa0941cd00260801c5b6010821615614092576fffcb9843d60f6159c9db58835c9266440260801c5b60208216156140b1576fff973b41fa98c081472e6896dfb254c00260801c5b60408216156140d0576fff2ea16466c96a3843ec78b326b528610260801c5b60808216156140ef576ffe5dee046a99a2a811c461f1969c30530260801c5b61010082161561410f576ffcbe86c7900a88aedcffc83b479aa3a40260801c5b61020082161561412f576ff987a7253ac413176f2b074cf7815e540260801c5b61040082161561414f576ff3392b0822b70005940c7a398e4b70f30260801c5b61080082161561416f576fe7159475a2c29b7443b29c7fa6e889d90260801c5b61100082161561418f576fd097f3bdfd2022b8845ad8f792aa58250260801c5b6120008216156141af576fa9f746462d870fdf8a65dc1f90e061e50260801c5b6140008216156141cf576f70d869a156d2a1b890bb3df62baf32f70260801c5b6180008216156141ef576f31be135f97d08fd981231505542fcfa60260801c5b62010000821615614210576f09aa508b5b7a84e1c677de54f3e99bc90260801c5b62020000821615614230576e5d6af8dedb81196699c329225ee6040260801c5b6204000082161561424f576d2216e584f5fa1ea926041bedfe980260801c5b6208000082161561426c576b048a170391f7dc42444e8fa20260801c5b60008460020b131561428757806000198161428357fe5b0490505b64010000000081061561429b57600161429e565b60005b60ff16602082901c0192505050919050565b6000836001600160a01b0316856001600160a01b031611156142d0579293925b846001600160a01b0316866001600160a01b0316116142fb576142f4858585614427565b905061436b565b836001600160a01b0316866001600160a01b0316101561435d576000614322878686614427565b9050600061433187898661448a565b9050806001600160801b0316826001600160801b0316106143525780614354565b815b9250505061436b565b61436885858461448a565b90505b95945050505050565b600080836001600160a01b0316856001600160a01b03161115614395579293925b846001600160a01b0316866001600160a01b0316116143c0576143b98585856144c7565b9150614407565b836001600160a01b0316866001600160a01b031610156143f9576143e58685856144c7565b91506143f2858785614530565b9050614407565b614404858585614530565b90505b94509492505050565b606061441f8484600085614573565b949350505050565b6000826001600160a01b0316846001600160a01b03161115614447579192915b600061446a856001600160a01b0316856001600160a01b0316600160601b6146ce565b905061436b61448584838888036001600160a01b03166146ce565b61477d565b6000826001600160a01b0316846001600160a01b031611156144aa579192915b61441f61448583600160601b8787036001600160a01b03166146ce565b6000826001600160a01b0316846001600160a01b031611156144e7579192915b836001600160a01b0316614520606060ff16846001600160801b0316901b8686036001600160a01b0316866001600160a01b03166146ce565b8161452757fe5b04949350505050565b6000826001600160a01b0316846001600160a01b03161115614550579192915b61441f826001600160801b03168585036001600160a01b0316600160601b6146ce565b6060824710156145b45760405162461bcd60e51b81526004018080602001828103825260268152602001806148ad6026913960400191505060405180910390fd5b6145bd85614793565b61460e576040805162461bcd60e51b815260206004820152601d60248201527f416464726573733a2063616c6c20746f206e6f6e2d636f6e7472616374000000604482015290519081900360640190fd5b600080866001600160a01b031685876040518082805190602001908083835b6020831061464c5780518252601f19909201916020918201910161462d565b6001836020036101000a03801982511681845116808217855250505050505090500191505060006040518083038185875af1925050503d80600081146146ae576040519150601f19603f3d011682016040523d82523d6000602084013e6146b3565b606091505b50915091506146c3828286614799565b979650505050505050565b600080806000198587098686029250828110908390030390508061470457600084116146f957600080fd5b508290049050610e8a565b80841161471057600080fd5b6000848688096000868103871696879004966002600389028118808a02820302808a02820302808a02820302808a02820302808a02820302808a02909103029181900381900460010186841190950394909402919094039290920491909117919091029150509392505050565b806001600160801b0381168114611cb257600080fd5b3b151590565b606083156147a8575081610e8a565b8251156147b85782518084602001fd5b60405162461bcd60e51b815260206004820181815284516024840152845185939192839260440191908501908083836000831561301a57818101518382015260200161300256fe45524332303a207472616e7366657220746f20746865207a65726f20616464726573735265656e7472616e637947756172643a207265656e7472616e742063616c6c0045524332303a206275726e20616d6f756e7420657863656564732062616c616e636545524332303a20617070726f766520746f20746865207a65726f206164647265737345524332303a207472616e7366657220616d6f756e7420657863656564732062616c616e6365416464726573733a20696e73756666696369656e742062616c616e636520666f722063616c6c536166654d6174683a206d756c7469706c69636174696f6e206f766572666c6f7745524332303a207472616e7366657220616d6f756e74206578636565647320616c6c6f77616e636545524332303a206275726e2066726f6d20746865207a65726f206164647265737345524332303a207472616e736665722066726f6d20746865207a65726f206164647265737345524332303a20617070726f76652066726f6d20746865207a65726f20616464726573735361666545524332303a204552433230206f7065726174696f6e20646964206e6f74207375636365656445524332303a2064656372656173656420616c6c6f77616e63652062656c6f77207a65726fa26469706673582212201f66e2b666158599ad26bdf9d414d9ac1bce718bd57fde01b910b680f1f97d6164736f6c63430007060033",
  "bytecodeSha1": "19dc946f2abf74ba1b3466b292ef5962ba7f7698",
  "compiler": {
    "evm_version": "istanbul",
    "optimizer": {
      "enabled": true,
      "runs": 200
    },
    "version": "0.7.6+commit.7338295f"
  },
  "contractName": "OrbitVault",
  "language": "Solidity",
  "natspec": {
    "kind": "dev",
    "methods": {
      "acceptGovernance()": {
        "notice": "`setGovernance()` should be called by the existing governance address prior to calling this function."
      },
      "allowance(address,address)": {
        "details": "See {IERC20-allowance}."
      },
      "approve(address,uint256)": {
        "details": "See {IERC20-approve}. Requirements: - `spender` cannot be the zero address."
      },
      "balanceOf(address)": {
        "details": "See {IERC20-balanceOf}."
      },
      "collectProtocol(uint256,uint256,address)": {
        "notice": "Used to collect accumulated protocol fees."
      },
      "decimals()": {
        "details": "Returns the number of decimals used to get its user representation. For example, if `decimals` equals `2`, a balance of `505` tokens should be displayed to a user as `5,05` (`505 / 10 ** 2`). Tokens usually opt for a value of 18, imitating the relationship between Ether and Wei. This is the value {ERC20} uses, unless {_setupDecimals} is called. NOTE: This information is only used for _display_ purposes: it in no way affects any of the arithmetic of the contract, including {IERC20-balanceOf} and {IERC20-transfer}."
      },
      "decreaseAllowance(address,uint256)": {
        "details": "Atomically decreases the allowance granted to `spender` by the caller. This is an alternative to {approve} that can be used as a mitigation for problems described in {IERC20-approve}. Emits an {Approval} event indicating the updated allowance. Requirements: - `spender` cannot be the zero address. - `spender` must have allowance for the caller of at least `subtractedValue`."
      },
      "deposit(uint256,uint256,uint256,uint256,address)": {
        "details": "These tokens sit in the vault and are not used for liquidity on Uniswap until the next rebalance. Also note it's not necessary to check if user manipulated price to deposit cheaper, as the value of range orders can only by manipulated higher.",
        "notice": "Deposits tokens in proportion to the vault's current holdings.",
        "params": {
          "amount0Desired": "Max amount of token0 to deposit",
          "amount0Min": "Revert if resulting `amount0` is less than this",
          "amount1Desired": "Max amount of token1 to deposit",
          "amount1Min": "Revert if resulting `amount1` is less than this",
          "to": "Recipient of shares"
        },
        "returns": {
          "amount0": "Amount of token0 deposited",
          "amount1": "Amount of token1 deposited",
          "shares": "Number of shares minted"
        }
      },
      "emergencyBurn(int24,int24,uint128)": {
        "notice": "Removes liquidity in case of emergency."
      },
      "getBalance0()": {
        "notice": "Balance of token0 in vault not used in any position."
      },
      "getBalance1()": {
        "notice": "Balance of token1 in vault not used in any position."
      },
      "getPositionAmounts(int24,int24)": {
        "notice": "Amounts of token0 and token1 held in vault's position. Includes owed fees but excludes the proportion of fees that will be paid to the protocol. Doesn't include fees accrued since last poke."
      },
      "getTotalAmounts()": {
        "notice": "Calculates the vault's total holdings of token0 and token1 - in other words, how much of each token the vault would hold if it withdrew all its liquidity from Uniswap."
      },
      "increaseAllowance(address,uint256)": {
        "details": "Atomically increases the allowance granted to `spender` by the caller. This is an alternative to {approve} that can be used as a mitigation for problems described in {IERC20-approve}. Emits an {Approval} event indicating the updated allowance. Requirements: - `spender` cannot be the zero address."
      },
      "name()": {
        "details": "Returns the name of the token."
      },
      "rebalance(int256,uint160,int24,int24,int24,int24,int24,int24)": {
        "details": "Two orders are placed - a base order and a limit order. The base order is placed first with as much liquidity as possible. This order should use up all of one token, leaving only the other one. This excess amount is then placed as a single-sided bid or ask order.",
        "notice": "Updates vault's positions. Can only be called by the strategy."
      },
      "setGovernance(address)": {
        "notice": "Governance address is not updated until the new governance address has called `acceptGovernance()` to accept this responsibility."
      },
      "setMaxTotalSupply(uint256)": {
        "notice": "Used to change deposit cap for a guarded launch or to ensure vault doesn't grow too large relative to the pool. Cap is on total supply rather than amounts of token0 and token1 as those amounts fluctuate naturally over time."
      },
      "setProtocolFee(uint256)": {
        "notice": "Used to change the protocol fee charged on pool fees earned from Uniswap, expressed as multiple of 1e-6."
      },
      "setStrategy(address)": {
        "notice": "Used to set the strategy contract that determines the position ranges and calls rebalance(). Must be called after this vault is deployed."
      },
      "sweep(address,uint256,address)": {
        "notice": "Removes tokens accidentally sent to this vault."
      },
      "symbol()": {
        "details": "Returns the symbol of the token, usually a shorter version of the name."
      },
      "totalSupply()": {
        "details": "See {IERC20-totalSupply}."
      },
      "transfer(address,uint256)": {
        "details": "See {IERC20-transfer}. Requirements: - `recipient` cannot be the zero address. - the caller must have a balance of at least `amount`."
      },
      "transferFrom(address,address,uint256)": {
        "details": "See {IERC20-transferFrom}. Emits an {Approval} event indicating the updated allowance. This is not required by the EIP. See the note at the beginning of {ERC20}. Requirements: - `sender` and `recipient` cannot be the zero address. - `sender` must have a balance of at least `amount`. - the caller must have allowance for ``sender``'s tokens of at least `amount`."
      },
      "uniswapV3MintCallback(uint256,uint256,bytes)": {
        "details": "Callback for Uniswap V3 pool."
      },
      "uniswapV3SwapCallback(int256,int256,bytes)": {
        "details": "Callback for Uniswap V3 pool."
      },
      "withdraw(uint256,uint256,uint256,address)": {
        "notice": "Withdraws tokens in proportion to the vault's holdings.",
        "params": {
          "amount0Min": "Revert if resulting `amount0` is smaller than this",
          "amount1Min": "Revert if resulting `amount1` is smaller than this",
          "shares": "Shares burned by sender",
          "to": "Recipient of tokens"
        },
        "returns": {
          "amount0": "Amount of token0 sent to recipient",
          "amount1": "Amount of token1 sent to recipient"
        }
      }
    },
    "version": 1
  },
  "opcodes": "PUSH1 0x80 PUSH1 0x40 MSTORE PUSH1 0x4 CALLDATASIZE LT PUSH2 0x288 JUMPI PUSH1 0x0 CALLDATALOAD PUSH1 0xE0 SHR DUP1 PUSH4 0x787DCE3D GT PUSH2 0x15A JUMPI DUP1 PUSH4 0xB7102653 GT PUSH2 0xC1 JUMPI DUP1 PUSH4 0xDC2C256F GT PUSH2 0x7A JUMPI DUP1 PUSH4 0xDC2C256F EQ PUSH2 0xA65 JUMPI DUP1 PUSH4 0xDD62ED3E EQ PUSH2 0xAA8 JUMPI DUP1 PUSH4 0xEAE989A2 EQ PUSH2 0xAE3 JUMPI DUP1 PUSH4 0xF39C38A0 EQ PUSH2 0xAF8 JUMPI DUP1 PUSH4 0xFA082743 EQ PUSH2 0xB0D JUMPI DUP1 PUSH4 0xFA461E33 EQ PUSH2 0xB22 JUMPI PUSH2 0x288 JUMP JUMPDEST DUP1 PUSH4 0xB7102653 EQ PUSH2 0x925 JUMPI DUP1 PUSH4 0xC4A7761E EQ PUSH2 0x958 JUMPI DUP1 PUSH4 0xD0C93A7C EQ PUSH2 0x96D JUMPI DUP1 PUSH4 0xD21220A7 EQ PUSH2 0x982 JUMPI DUP1 PUSH4 0xD331BEF7 EQ PUSH2 0x997 JUMPI DUP1 PUSH4 0xD3487997 EQ PUSH2 0x9DC JUMPI PUSH2 0x288 JUMP JUMPDEST DUP1 PUSH4 0xA8C62E76 GT PUSH2 0x113 JUMPI DUP1 PUSH4 0xA8C62E76 EQ PUSH2 0x811 JUMPI DUP1 PUSH4 0xA9059CBB EQ PUSH2 0x826 JUMPI DUP1 PUSH4 0xA91EF6EB EQ PUSH2 0x85F JUMPI DUP1 PUSH4 0xAB033EA9 EQ PUSH2 0x896 JUMPI DUP1 PUSH4 0xABBFFCB9 EQ PUSH2 0x8C9 JUMPI DUP1 PUSH4 0xB0E21E8A EQ PUSH2 0x910 JUMPI PUSH2 0x288 JUMP JUMPDEST DUP1 PUSH4 0x787DCE3D EQ PUSH2 0x702 JUMPI DUP1 PUSH4 0x87E5E083 EQ PUSH2 0x72C JUMPI DUP1 PUSH4 0x888A9134 EQ PUSH2 0x799 JUMPI DUP1 PUSH4 0x95D89B41 EQ PUSH2 0x7AE JUMPI DUP1 PUSH4 0xA00FA77F EQ PUSH2 0x7C3 JUMPI DUP1 PUSH4 0xA457C2D7 EQ PUSH2 0x7D8 JUMPI PUSH2 0x288 JUMP JUMPDEST DUP1 PUSH4 0x33A100CA GT PUSH2 0x1FE JUMPI DUP1 PUSH4 0x41AEC538 GT PUSH2 0x1B7 JUMPI DUP1 PUSH4 0x41AEC538 EQ PUSH2 0x643 JUMPI DUP1 PUSH4 0x51E87AF7 EQ PUSH2 0x658 JUMPI DUP1 PUSH4 0x5AA6E675 EQ PUSH2 0x66D JUMPI DUP1 PUSH4 0x629D9405 EQ PUSH2 0x682 JUMPI DUP1 PUSH4 0x62BECCF9 EQ PUSH2 0x697 JUMPI DUP1 PUSH4 0x70A08231 EQ PUSH2 0x6CF JUMPI PUSH2 0x288 JUMP JUMPDEST DUP1 PUSH4 0x33A100CA EQ PUSH2 0x4D1 JUMPI DUP1 PUSH4 0x365D0ED7 EQ PUSH2 0x504 JUMPI DUP1 PUSH4 0x39509351 EQ PUSH2 0x56D JUMPI DUP1 PUSH4 0x3F3E4C11 EQ PUSH2 0x5A6 JUMPI DUP1 PUSH4 0x3FC8CEF3 EQ PUSH2 0x5D0 JUMPI DUP1 PUSH4 0x40D6AC4D EQ PUSH2 0x5E5 JUMPI PUSH2 0x288 JUMP JUMPDEST DUP1 PUSH4 0x16F0115B GT PUSH2 0x250 JUMPI DUP1 PUSH4 0x16F0115B EQ PUSH2 0x3FD JUMPI DUP1 PUSH4 0x18160DDD EQ PUSH2 0x412 JUMPI DUP1 PUSH4 0x238EFCBC EQ PUSH2 0x439 JUMPI DUP1 PUSH4 0x23B872DD EQ PUSH2 0x44E JUMPI DUP1 PUSH4 0x2AB4D052 EQ PUSH2 0x491 JUMPI DUP1 PUSH4 0x313CE567 EQ PUSH2 0x4A6 JUMPI PUSH2 0x288 JUMP JUMPDEST DUP1 PUSH4 0x430C130 EQ PUSH2 0x28A JUMPI DUP1 PUSH4 0x6FDDE03 EQ PUSH2 0x2C9 JUMPI DUP1 PUSH4 0x95EA7B3 EQ PUSH2 0x353 JUMPI DUP1 PUSH4 0xDFE1681 EQ PUSH2 0x3A0 JUMPI DUP1 PUSH4 0xF35BCAC EQ PUSH2 0x3D1 JUMPI JUMPDEST STOP JUMPDEST CALLVALUE DUP1 ISZERO PUSH2 0x296 JUMPI PUSH1 0x0 DUP1 REVERT JUMPDEST POP PUSH2 0x288 PUSH1 0x4 DUP1 CALLDATASIZE SUB PUSH1 0x60 DUP2 LT ISZERO PUSH2 0x2AD JUMPI PUSH1 0x0 DUP1 REVERT JUMPDEST POP DUP1 CALLDATALOAD SWAP1 PUSH1 0x20 DUP2 ADD CALLDATALOAD SWAP1 PUSH1 0x40 ADD CALLDATALOAD PUSH1 0x1 PUSH1 0x1 PUSH1 0xA0 SHL SUB AND PUSH2 0xBAB JUMP JUMPDEST CALLVALUE DUP1 ISZERO PUSH2 0x2D5 JUMPI PUSH1 0x0 DUP1 REVERT JUMPDEST POP PUSH2 0x2DE PUSH2 0xC90 JUMP JUMPDEST PUSH1 0x40 DUP1 MLOAD PUSH1 0x20 DUP1 DUP3 MSTORE DUP4 MLOAD DUP2 DUP4 ADD MSTORE DUP4 MLOAD SWAP2 SWAP3 DUP4 SWAP3 SWAP1 DUP4 ADD SWAP2 DUP6 ADD SWAP1 DUP1 DUP4 DUP4 PUSH1 0x0 JUMPDEST DUP4 DUP2 LT ISZERO PUSH2 0x318 JUMPI DUP2 DUP2 ADD MLOAD DUP4 DUP3 ADD MSTORE PUSH1 0x20 ADD PUSH2 0x300 JUMP JUMPDEST POP POP POP POP SWAP1 POP SWAP1 DUP2 ADD SWAP1 PUSH1 0x1F AND DUP1 ISZERO PUSH2 0x345 JUMPI DUP1 DUP3 SUB DUP1 MLOAD PUSH1 0x1 DUP4 PUSH1 0x20 SUB PUSH2 0x100 EXP SUB NOT AND DUP2 MSTORE PUSH1 0x20 ADD SWAP2 POP JUMPDEST POP SWAP3 POP POP POP PUSH1 0x40 MLOAD DUP1 SWAP2 SUB SWAP1 RETURN JUMPDEST CALLVALUE DUP1 ISZERO PUSH2 0x35F JUMPI PUSH1 0x0 DUP1 REVERT JUMPDEST POP PUSH2 0x38C PUSH1 0x4 DUP1 CALLDATASIZE SUB PUSH1 0x40 DUP2 LT ISZERO PUSH2 0x376 JUMPI PUSH1 0x0 DUP1 REVERT JUMPDEST POP PUSH1 0x1 PUSH1 0x1 PUSH1 0xA0 SHL SUB DUP2 CALLDATALOAD AND SWAP1 PUSH1 0x20 ADD CALLDATALOAD PUSH2 0xD26 JUMP JUMPDEST PUSH1 0x40 DUP1 MLOAD SWAP2 ISZERO ISZERO DUP3 MSTORE MLOAD SWAP1 DUP2 SWAP1 SUB PUSH1 0x20 ADD SWAP1 RETURN JUMPDEST CALLVALUE DUP1 ISZERO PUSH2 0x3AC JUMPI PUSH1 0x0 DUP1 REVERT JUMPDEST POP PUSH2 0x3B5 PUSH2 0xD44 JUMP JUMPDEST PUSH1 0x40 DUP1 MLOAD PUSH1 0x1 PUSH1 0x1 PUSH1 0xA0 SHL SUB SWAP1 SWAP3 AND DUP3 MSTORE MLOAD SWAP1 DUP2 SWAP1 SUB PUSH1 0x20 ADD SWAP1 RETURN JUMPDEST CALLVALUE DUP1 ISZERO PUSH2 0x3DD JUMPI PUSH1 0x0 DUP1 REVERT JUMPDEST POP PUSH2 0x3E6 PUSH2 0xD68 JUMP JUMPDEST PUSH1 0x40 DUP1 MLOAD PUSH1 0x2 SWAP3 SWAP1 SWAP3 SIGNEXTEND DUP3 MSTORE MLOAD SWAP1 DUP2 SWAP1 SUB PUSH1 0x20 ADD SWAP1 RETURN JUMPDEST CALLVALUE DUP1 ISZERO PUSH2 0x409 JUMPI PUSH1 0x0 DUP1 REVERT JUMPDEST POP PUSH2 0x3B5 PUSH2 0xD78 JUMP JUMPDEST CALLVALUE DUP1 ISZERO PUSH2 0x41E JUMPI PUSH1 0x0 DUP1 REVERT JUMPDEST POP PUSH2 0x427 PUSH2 0xD9C JUMP JUMPDEST PUSH1 0x40 DUP1 MLOAD SWAP2 DUP3 MSTORE MLOAD SWAP1 DUP2 SWAP1 SUB PUSH1 0x20 ADD SWAP1 RETURN JUMPDEST CALLVALUE DUP1 ISZERO PUSH2 0x445 JUMPI PUSH1 0x0 DUP1 REVERT JUMPDEST POP PUSH2 0x288 PUSH2 0xDA2 JUMP JUMPDEST CALLVALUE DUP1 ISZERO PUSH2 0x45A JUMPI PUSH1 0x0 DUP1 REVERT JUMPDEST POP PUSH2 0x38C PUSH1 0x4 DUP1 CALLDATASIZE SUB PUSH1 0x60 DUP2 LT ISZERO PUSH2 0x471 JUMPI PUSH1 0x0 DUP1 REVERT JUMPDEST POP PUSH1 0x1 PUSH1 0x1 PUSH1 0xA0 SHL SUB DUP2 CALLDATALOAD DUP2 AND SWAP2 PUSH1 0x20 DUP2 ADD CALLDATALOAD SWAP1 SWAP2 AND SWAP1 PUSH1 0x40 ADD CALLDATALOAD PUSH2 0xE09 JUMP JUMPDEST CALLVALUE DUP1 ISZERO PUSH2 0x49D JUMPI PUSH1 0x0 DUP1 REVERT JUMPDEST POP PUSH2 0x427 PUSH2 0xE91 JUMP JUMPDEST CALLVALUE DUP1 ISZERO PUSH2 0x4B2 JUMPI PUSH1 0x0 DUP1 REVERT JUMPDEST POP PUSH2 0x4BB PUSH2 0xE97 JUMP JUMPDEST PUSH1 0x40 DUP1 MLOAD PUSH1 0xFF SWAP1 SWAP3 AND DUP3 MSTORE MLOAD SWAP1 DUP2 SWAP1 SUB PUSH1 0x20 ADD SWAP1 RETURN JUMPDEST CALLVALUE DUP1 ISZERO PUSH2 0x4DD JUMPI PUSH1 0x0 DUP1 REVERT JUMPDEST POP PUSH2 0x288 PUSH1 0x4 DUP1 CALLDATASIZE SUB PUSH1 0x20 DUP2 LT ISZERO PUSH2 0x4F4 JUMPI PUSH1 0x0 DUP1 REVERT JUMPDEST POP CALLDATALOAD PUSH1 0x1 PUSH1 0x1 PUSH1 0xA0 SHL SUB AND PUSH2 0xEA0 JUMP JUMPDEST CALLVALUE DUP1 ISZERO PUSH2 0x510 JUMPI PUSH1 0x0 DUP1 REVERT JUMPDEST POP PUSH2 0x54F PUSH1 0x4 DUP1 CALLDATASIZE SUB PUSH1 0xA0 DUP2 LT ISZERO PUSH2 0x527 JUMPI PUSH1 0x0 DUP1 REVERT JUMPDEST POP DUP1 CALLDATALOAD SWAP1 PUSH1 0x20 DUP2 ADD CALLDATALOAD SWAP1 PUSH1 0x40 DUP2 ADD CALLDATALOAD SWAP1 PUSH1 0x60 DUP2 ADD CALLDATALOAD SWAP1 PUSH1 0x80 ADD CALLDATALOAD PUSH1 0x1 PUSH1 0x1 PUSH1 0xA0 SHL SUB AND PUSH2 0xF0E JUMP JUMPDEST PUSH1 0x40 DUP1 MLOAD SWAP4 DUP5 MSTORE PUSH1 0x20 DUP5 ADD SWAP3 SWAP1 SWAP3 MSTORE DUP3 DUP3 ADD MSTORE MLOAD SWAP1 DUP2 SWAP1 SUB PUSH1 0x60 ADD SWAP1 RETURN JUMPDEST CALLVALUE DUP1 ISZERO PUSH2 0x579 JUMPI PUSH1 0x0 DUP1 REVERT JUMPDEST POP PUSH2 0x38C PUSH1 0x4 DUP1 CALLDATASIZE SUB PUSH1 0x40 DUP2 LT ISZERO PUSH2 0x590 JUMPI PUSH1 0x0 DUP1 REVERT JUMPDEST POP PUSH1 0x1 PUSH1 0x1 PUSH1 0xA0 SHL SUB DUP2 CALLDATALOAD AND SWAP1 PUSH1 0x20 ADD CALLDATALOAD PUSH2 0x1257 JUMP JUMPDEST CALLVALUE DUP1 ISZERO PUSH2 0x5B2 JUMPI PUSH1 0x0 DUP1 REVERT JUMPDEST POP PUSH2 0x288 PUSH1 0x4 DUP1 CALLDATASIZE SUB PUSH1 0x20 DUP2 LT ISZERO PUSH2 0x5C9 JUMPI PUSH1 0x0 DUP1 REVERT JUMPDEST POP CALLDATALOAD PUSH2 0x12A5 JUMP JUMPDEST CALLVALUE DUP1 ISZERO PUSH2 0x5DC JUMPI PUSH1 0x0 DUP1 REVERT JUMPDEST POP PUSH2 0x3B5 PUSH2 0x12F6 JUMP JUMPDEST CALLVALUE DUP1 ISZERO PUSH2 0x5F1 JUMPI PUSH1 0x0 DUP1 REVERT JUMPDEST POP PUSH2 0x62A PUSH1 0x4 DUP1 CALLDATASIZE SUB PUSH1 0x80 DUP2 LT ISZERO PUSH2 0x608 JUMPI PUSH1 0x0 DUP1 REVERT JUMPDEST POP DUP1 CALLDATALOAD SWAP1 PUSH1 0x20 DUP2 ADD CALLDATALOAD SWAP1 PUSH1 0x40 DUP2 ADD CALLDATALOAD SWAP1 PUSH1 0x60 ADD CALLDATALOAD PUSH1 0x1 PUSH1 0x1 PUSH1 0xA0 SHL SUB AND PUSH2 0x1305 JUMP JUMPDEST PUSH1 0x40 DUP1 MLOAD SWAP3 DUP4 MSTORE PUSH1 0x20 DUP4 ADD SWAP2 SWAP1 SWAP2 MSTORE DUP1 MLOAD SWAP2 DUP3 SWAP1 SUB ADD SWAP1 RETURN JUMPDEST CALLVALUE DUP1 ISZERO PUSH2 0x64F JUMPI PUSH1 0x0 DUP1 REVERT JUMPDEST POP PUSH2 0x427 PUSH2 0x1735 JUMP JUMPDEST CALLVALUE DUP1 ISZERO PUSH2 0x664 JUMPI PUSH1 0x0 DUP1 REVERT JUMPDEST POP PUSH2 0x3E6 PUSH2 0x17E1 JUMP JUMPDEST CALLVALUE DUP1 ISZERO PUSH2 0x679 JUMPI PUSH1 0x0 DUP1 REVERT JUMPDEST POP PUSH2 0x3B5 PUSH2 0x17F1 JUMP JUMPDEST CALLVALUE DUP1 ISZERO PUSH2 0x68E JUMPI PUSH1 0x0 DUP1 REVERT JUMPDEST POP PUSH2 0x427 PUSH2 0x1800 JUMP JUMPDEST PUSH2 0x54F PUSH1 0x4 DUP1 CALLDATASIZE SUB PUSH1 0x80 DUP2 LT ISZERO PUSH2 0x6AD JUMPI PUSH1 0x0 DUP1 REVERT JUMPDEST POP DUP1 CALLDATALOAD SWAP1 PUSH1 0x20 DUP2 ADD CALLDATALOAD SWAP1 PUSH1 0x40 DUP2 ADD CALLDATALOAD SWAP1 PUSH1 0x60 ADD CALLDATALOAD PUSH1 0x1 PUSH1 0x1 PUSH1 0xA0 SHL SUB AND PUSH2 0x1875 JUMP JUMPDEST CALLVALUE DUP1 ISZERO PUSH2 0x6DB JUMPI PUSH1 0x0 DUP1 REVERT JUMPDEST POP PUSH2 0x427 PUSH1 0x4 DUP1 CALLDATASIZE SUB PUSH1 0x20 DUP2 LT ISZERO PUSH2 0x6F2 JUMPI PUSH1 0x0 DUP1 REVERT JUMPDEST POP CALLDATALOAD PUSH1 0x1 PUSH1 0x1 PUSH1 0xA0 SHL SUB AND PUSH2 0x1C98 JUMP JUMPDEST CALLVALUE DUP1 ISZERO PUSH2 0x70E JUMPI PUSH1 0x0 DUP1 REVERT JUMPDEST POP PUSH2 0x288 PUSH1 0x4 DUP1 CALLDATASIZE SUB PUSH1 0x20 DUP2 LT ISZERO PUSH2 0x725 JUMPI PUSH1 0x0 DUP1 REVERT JUMPDEST POP CALLDATALOAD PUSH2 0x1CB7 JUMP JUMPDEST CALLVALUE DUP1 ISZERO PUSH2 0x738 JUMPI PUSH1 0x0 DUP1 REVERT JUMPDEST POP PUSH2 0x288 PUSH1 0x4 DUP1 CALLDATASIZE SUB PUSH2 0x100 DUP2 LT ISZERO PUSH2 0x750 JUMPI PUSH1 0x0 DUP1 REVERT JUMPDEST POP DUP1 CALLDATALOAD SWAP1 PUSH1 0x1 PUSH1 0x1 PUSH1 0xA0 SHL SUB PUSH1 0x20 DUP3 ADD CALLDATALOAD AND SWAP1 PUSH1 0x40 DUP2 ADD CALLDATALOAD PUSH1 0x2 SWAP1 DUP2 SIGNEXTEND SWAP2 PUSH1 0x60 DUP2 ADD CALLDATALOAD DUP3 SIGNEXTEND SWAP2 PUSH1 0x80 DUP3 ADD CALLDATALOAD DUP2 SIGNEXTEND SWAP2 PUSH1 0xA0 DUP2 ADD CALLDATALOAD DUP3 SIGNEXTEND SWAP2 PUSH1 0xC0 DUP3 ADD CALLDATALOAD DUP2 SIGNEXTEND SWAP2 PUSH1 0xE0 ADD CALLDATALOAD SWAP1 SIGNEXTEND PUSH2 0x1D4D JUMP JUMPDEST CALLVALUE DUP1 ISZERO PUSH2 0x7A5 JUMPI PUSH1 0x0 DUP1 REVERT JUMPDEST POP PUSH2 0x3E6 PUSH2 0x2282 JUMP JUMPDEST CALLVALUE DUP1 ISZERO PUSH2 0x7BA JUMPI PUSH1 0x0 DUP1 REVERT JUMPDEST POP PUSH2 0x2DE PUSH2 0x2292 JUMP JUMPDEST CALLVALUE DUP1 ISZERO PUSH2 0x7CF JUMPI PUSH1 0x0 DUP1 REVERT JUMPDEST POP PUSH2 0x427 PUSH2 0x22F3 JUMP JUMPDEST CALLVALUE DUP1 ISZERO PUSH2 0x7E4 JUMPI PUSH1 0x0 DUP1 REVERT JUMPDEST POP PUSH2 0x38C PUSH1 0x4 DUP1 CALLDATASIZE SUB PUSH1 0x40 DUP2 LT ISZERO PUSH2 0x7FB JUMPI PUSH1 0x0 DUP1 REVERT JUMPDEST POP PUSH1 0x1 PUSH1 0x1 PUSH1 0xA0 SHL SUB DUP2 CALLDATALOAD AND SWAP1 PUSH1 0x20 ADD CALLDATALOAD PUSH2 0x22F9 JUMP JUMPDEST CALLVALUE DUP1 ISZERO PUSH2 0x81D JUMPI PUSH1 0x0 DUP1 REVERT JUMPDEST POP PUSH2 0x3B5 PUSH2 0x2361 JUMP JUMPDEST CALLVALUE DUP1 ISZERO PUSH2 0x832 JUMPI PUSH1 0x0 DUP1 REVERT JUMPDEST POP PUSH2 0x38C PUSH1 0x4 DUP1 CALLDATASIZE SUB PUSH1 0x40 DUP2 LT ISZERO PUSH2 0x849 JUMPI PUSH1 0x0 DUP1 REVERT JUMPDEST POP PUSH1 0x1 PUSH1 0x1 PUSH1 0xA0 SHL SUB DUP2 CALLDATALOAD AND SWAP1 PUSH1 0x20 ADD CALLDATALOAD PUSH2 0x2370 JUMP JUMPDEST CALLVALUE DUP1 ISZERO PUSH2 0x86B JUMPI PUSH1 0x0 DUP1 REVERT JUMPDEST POP PUSH2 0x62A PUSH1 0x4 DUP1 CALLDATASIZE SUB PUSH1 0x40 DUP2 LT ISZERO PUSH2 0x882 JUMPI PUSH1 0x0 DUP1 REVERT JUMPDEST POP DUP1 CALLDATALOAD PUSH1 0x2 SWAP1 DUP2 SIGNEXTEND SWAP2 PUSH1 0x20 ADD CALLDATALOAD SWAP1 SIGNEXTEND PUSH2 0x2384 JUMP JUMPDEST CALLVALUE DUP1 ISZERO PUSH2 0x8A2 JUMPI PUSH1 0x0 DUP1 REVERT JUMPDEST POP PUSH2 0x288 PUSH1 0x4 DUP1 CALLDATASIZE SUB PUSH1 0x20 DUP2 LT ISZERO PUSH2 0x8B9 JUMPI PUSH1 0x0 DUP1 REVERT JUMPDEST POP CALLDATALOAD PUSH1 0x1 PUSH1 0x1 PUSH1 0xA0 SHL SUB AND PUSH2 0x241B JUMP JUMPDEST CALLVALUE DUP1 ISZERO PUSH2 0x8D5 JUMPI PUSH1 0x0 DUP1 REVERT JUMPDEST POP PUSH2 0x288 PUSH1 0x4 DUP1 CALLDATASIZE SUB PUSH1 0x60 DUP2 LT ISZERO PUSH2 0x8EC JUMPI PUSH1 0x0 DUP1 REVERT JUMPDEST POP DUP1 CALLDATALOAD PUSH1 0x2 SWAP1 DUP2 SIGNEXTEND SWAP2 PUSH1 0x20 DUP2 ADD CALLDATALOAD SWAP1 SWAP2 SIGNEXTEND SWAP1 PUSH1 0x40 ADD CALLDATALOAD PUSH1 0x1 PUSH1 0x1 PUSH1 0x80 SHL SUB AND PUSH2 0x2489 JUMP JUMPDEST CALLVALUE DUP1 ISZERO PUSH2 0x91C JUMPI PUSH1 0x0 DUP1 REVERT JUMPDEST POP PUSH2 0x427 PUSH2 0x263B JUMP JUMPDEST CALLVALUE DUP1 ISZERO PUSH2 0x931 JUMPI PUSH1 0x0 DUP1 REVERT JUMPDEST POP PUSH2 0x288 PUSH1 0x4 DUP1 CALLDATASIZE SUB PUSH1 0x20 DUP2 LT ISZERO PUSH2 0x948 JUMPI PUSH1 0x0 DUP1 REVERT JUMPDEST POP CALLDATALOAD PUSH1 0x1 PUSH1 0x1 PUSH1 0xA0 SHL SUB AND PUSH2 0x2641 JUMP JUMPDEST CALLVALUE DUP1 ISZERO PUSH2 0x964 JUMPI PUSH1 0x0 DUP1 REVERT JUMPDEST POP PUSH2 0x62A PUSH2 0x26AF JUMP JUMPDEST CALLVALUE DUP1 ISZERO PUSH2 0x979 JUMPI PUSH1 0x0 DUP1 REVERT JUMPDEST POP PUSH2 0x3E6 PUSH2 0x2736 JUMP JUMPDEST CALLVALUE DUP1 ISZERO PUSH2 0x98E JUMPI PUSH1 0x0 DUP1 REVERT JUMPDEST POP PUSH2 0x3B5 PUSH2 0x275A JUMP JUMPDEST CALLVALUE DUP1 ISZERO PUSH2 0x9A3 JUMPI PUSH1 0x0 DUP1 REVERT JUMPDEST POP PUSH2 0x62A PUSH1 0x4 DUP1 CALLDATASIZE SUB PUSH1 0x80 DUP2 LT ISZERO PUSH2 0x9BA JUMPI PUSH1 0x0 DUP1 REVERT JUMPDEST POP DUP1 CALLDATALOAD SWAP1 PUSH1 0x20 DUP2 ADD CALLDATALOAD SWAP1 PUSH1 0x40 DUP2 ADD CALLDATALOAD SWAP1 PUSH1 0x60 ADD CALLDATALOAD PUSH1 0x1 PUSH1 0x1 PUSH1 0xA0 SHL SUB AND PUSH2 0x277E JUMP JUMPDEST CALLVALUE DUP1 ISZERO PUSH2 0x9E8 JUMPI PUSH1 0x0 DUP1 REVERT JUMPDEST POP PUSH2 0x288 PUSH1 0x4 DUP1 CALLDATASIZE SUB PUSH1 0x60 DUP2 LT ISZERO PUSH2 0x9FF JUMPI PUSH1 0x0 DUP1 REVERT JUMPDEST DUP2 CALLDATALOAD SWAP2 PUSH1 0x20 DUP2 ADD CALLDATALOAD SWAP2 DUP2 ADD SWAP1 PUSH1 0x60 DUP2 ADD PUSH1 0x40 DUP3 ADD CALLDATALOAD PUSH5 0x100000000 DUP2 GT ISZERO PUSH2 0xA26 JUMPI PUSH1 0x0 DUP1 REVERT JUMPDEST DUP3 ADD DUP4 PUSH1 0x20 DUP3 ADD GT ISZERO PUSH2 0xA38 JUMPI PUSH1 0x0 DUP1 REVERT JUMPDEST DUP1 CALLDATALOAD SWAP1 PUSH1 0x20 ADD SWAP2 DUP5 PUSH1 0x1 DUP4 MUL DUP5 ADD GT PUSH5 0x100000000 DUP4 GT OR ISZERO PUSH2 0xA5A JUMPI PUSH1 0x0 DUP1 REVERT JUMPDEST POP SWAP1 SWAP3 POP SWAP1 POP PUSH2 0x2A11 JUMP JUMPDEST CALLVALUE DUP1 ISZERO PUSH2 0xA71 JUMPI PUSH1 0x0 DUP1 REVERT JUMPDEST POP PUSH2 0x288 PUSH1 0x4 DUP1 CALLDATASIZE SUB PUSH1 0x60 DUP2 LT ISZERO PUSH2 0xA88 JUMPI PUSH1 0x0 DUP1 REVERT JUMPDEST POP PUSH1 0x1 PUSH1 0x1 PUSH1 0xA0 SHL SUB DUP2 CALLDATALOAD DUP2 AND SWAP2 PUSH1 0x20 DUP2 ADD CALLDATALOAD SWAP2 PUSH1 0x40 SWAP1 SWAP2 ADD CALLDATALOAD AND PUSH2 0x2AC0 JUMP JUMPDEST CALLVALUE DUP1 ISZERO PUSH2 0xAB4 JUMPI PUSH1 0x0 DUP1 REVERT JUMPDEST POP PUSH2 0x427 PUSH1 0x4 DUP1 CALLDATASIZE SUB PUSH1 0x40 DUP2 LT ISZERO PUSH2 0xACB JUMPI PUSH1 0x0 DUP1 REVERT JUMPDEST POP PUSH1 0x1 PUSH1 0x1 PUSH1 0xA0 SHL SUB DUP2 CALLDATALOAD DUP2 AND SWAP2 PUSH1 0x20 ADD CALLDATALOAD AND PUSH2 0x2BCD JUMP JUMPDEST CALLVALUE DUP1 ISZERO PUSH2 0xAEF JUMPI PUSH1 0x0 DUP1 REVERT JUMPDEST POP PUSH2 0x427 PUSH2 0x2BF8 JUMP JUMPDEST CALLVALUE DUP1 ISZERO PUSH2 0xB04 JUMPI PUSH1 0x0 DUP1 REVERT JUMPDEST POP PUSH2 0x3B5 PUSH2 0x2BFE JUMP JUMPDEST CALLVALUE DUP1 ISZERO PUSH2 0xB19 JUMPI PUSH1 0x0 DUP1 REVERT JUMPDEST POP PUSH2 0x3E6 PUSH2 0x2C0D JUMP JUMPDEST CALLVALUE DUP1 ISZERO PUSH2 0xB2E JUMPI PUSH1 0x0 DUP1 REVERT JUMPDEST POP PUSH2 0x288 PUSH1 0x4 DUP1 CALLDATASIZE SUB PUSH1 0x60 DUP2 LT ISZERO PUSH2 0xB45 JUMPI PUSH1 0x0 DUP1 REVERT JUMPDEST DUP2 CALLDATALOAD SWAP2 PUSH1 0x20 DUP2 ADD CALLDATALOAD SWAP2 DUP2 ADD SWAP1 PUSH1 0x60 DUP2 ADD PUSH1 0x40 DUP3 ADD CALLDATALOAD PUSH5 0x100000000 DUP2 GT ISZERO PUSH2 0xB6C JUMPI PUSH1 0x0 DUP1 REVERT JUMPDEST DUP3 ADD DUP4 PUSH1 0x20 DUP3 ADD GT ISZERO PUSH2 0xB7E JUMPI PUSH1 0x0 DUP1 REVERT JUMPDEST DUP1 CALLDATALOAD SWAP1 PUSH1 0x20 ADD SWAP2 DUP5 PUSH1 0x1 DUP4 MUL DUP5 ADD GT PUSH5 0x100000000 DUP4 GT OR ISZERO PUSH2 0xBA0 JUMPI PUSH1 0x0 DUP1 REVERT JUMPDEST POP SWAP1 SWAP3 POP SWAP1 POP PUSH2 0x2C1D JUMP JUMPDEST PUSH1 0xA SLOAD PUSH1 0x1 PUSH1 0x1 PUSH1 0xA0 SHL SUB AND CALLER EQ PUSH2 0xBF7 JUMPI PUSH1 0x40 DUP1 MLOAD PUSH3 0x461BCD PUSH1 0xE5 SHL DUP2 MSTORE PUSH1 0x20 PUSH1 0x4 DUP3 ADD MSTORE PUSH1 0xA PUSH1 0x24 DUP3 ADD MSTORE PUSH10 0x676F7665726E616E6365 PUSH1 0xB0 SHL PUSH1 0x44 DUP3 ADD MSTORE SWAP1 MLOAD SWAP1 DUP2 SWAP1 SUB PUSH1 0x64 ADD SWAP1 REVERT JUMPDEST PUSH1 0xC SLOAD PUSH2 0xC04 SWAP1 DUP5 PUSH2 0x2CCC JUMP JUMPDEST PUSH1 0xC SSTORE PUSH1 0xD SLOAD PUSH2 0xC14 SWAP1 DUP4 PUSH2 0x2CCC JUMP JUMPDEST PUSH1 0xD SSTORE DUP3 ISZERO PUSH2 0xC51 JUMPI PUSH2 0xC51 PUSH1 0x1 PUSH1 0x1 PUSH1 0xA0 SHL SUB PUSH32 0x0 AND DUP3 DUP6 PUSH2 0x2D29 JUMP JUMPDEST DUP2 ISZERO PUSH2 0xC8B JUMPI PUSH2 0xC8B PUSH1 0x1 PUSH1 0x1 PUSH1 0xA0 SHL SUB PUSH32 0x0 AND DUP3 DUP5 PUSH2 0x2D29 JUMP JUMPDEST POP POP POP JUMP JUMPDEST PUSH1 0x3 DUP1 SLOAD PUSH1 0x40 DUP1 MLOAD PUSH1 0x20 PUSH1 0x1F PUSH1 0x2 PUSH1 0x0 NOT PUSH2 0x100 PUSH1 0x1 DUP9 AND ISZERO MUL ADD SWAP1 SWAP6 AND SWAP5 SWAP1 SWAP5 DIV SWAP4 DUP5 ADD DUP2 SWAP1 DIV DUP2 MUL DUP3 ADD DUP2 ADD SWAP1 SWAP3 MSTORE DUP3 DUP2 MSTORE PUSH1 0x60 SWAP4 SWAP1 SWAP3 SWAP1 SWAP2 DUP4 ADD DUP3 DUP3 DUP1 ISZERO PUSH2 0xD1C JUMPI DUP1 PUSH1 0x1F LT PUSH2 0xCF1 JUMPI PUSH2 0x100 DUP1 DUP4 SLOAD DIV MUL DUP4 MSTORE SWAP2 PUSH1 0x20 ADD SWAP2 PUSH2 0xD1C JUMP JUMPDEST DUP3 ADD SWAP2 SWAP1 PUSH1 0x0 MSTORE PUSH1 0x20 PUSH1 0x0 KECCAK256 SWAP1 JUMPDEST DUP2 SLOAD DUP2 MSTORE SWAP1 PUSH1 0x1 ADD SWAP1 PUSH1 0x20 ADD DUP1 DUP4 GT PUSH2 0xCFF JUMPI DUP3 SWAP1 SUB PUSH1 0x1F AND DUP3 ADD SWAP2 JUMPDEST POP POP POP POP POP SWAP1 POP SWAP1 JUMP JUMPDEST PUSH1 0x0 PUSH2 0xD3A PUSH2 0xD33 PUSH2 0x2D7B JUMP JUMPDEST DUP5 DUP5 PUSH2 0x2D7F JUMP JUMPDEST POP PUSH1 0x1 JUMPDEST SWAP3 SWAP2 POP POP JUMP JUMPDEST PUSH32 0x0 DUP2 JUMP JUMPDEST PUSH1 0xB SLOAD PUSH1 0x1 PUSH1 0xE8 SHL SWAP1 DIV PUSH1 0x2 SIGNEXTEND DUP2 JUMP JUMPDEST PUSH32 0x0 DUP2 JUMP JUMPDEST PUSH1 0x2 SLOAD SWAP1 JUMP JUMPDEST PUSH1 0xB SLOAD PUSH1 0x1 PUSH1 0x1 PUSH1 0xA0 SHL SUB AND CALLER EQ PUSH2 0xDF5 JUMPI PUSH1 0x40 DUP1 MLOAD PUSH3 0x461BCD PUSH1 0xE5 SHL DUP2 MSTORE PUSH1 0x20 PUSH1 0x4 DUP3 ADD MSTORE PUSH1 0x11 PUSH1 0x24 DUP3 ADD MSTORE PUSH17 0x70656E64696E67476F7665726E616E6365 PUSH1 0x78 SHL PUSH1 0x44 DUP3 ADD MSTORE SWAP1 MLOAD SWAP1 DUP2 SWAP1 SUB PUSH1 0x64 ADD SWAP1 REVERT JUMPDEST PUSH1 0xA DUP1 SLOAD PUSH1 0x1 PUSH1 0x1 PUSH1 0xA0 SHL SUB NOT AND CALLER OR SWAP1 SSTORE JUMP JUMPDEST PUSH1 0x0 PUSH2 0xE16 DUP5 DUP5 DUP5 PUSH2 0x2E6B JUMP JUMPDEST PUSH2 0xE86 DUP5 PUSH2 0xE22 PUSH2 0x2D7B JUMP JUMPDEST PUSH2 0xE81 DUP6 PUSH1 0x40 MLOAD DUP1 PUSH1 0x60 ADD PUSH1 0x40 MSTORE DUP1 PUSH1 0x28 DUP2 MSTORE PUSH1 0x20 ADD PUSH2 0x48F4 PUSH1 0x28 SWAP2 CODECOPY PUSH1 0x1 PUSH1 0x1 PUSH1 0xA0 SHL SUB DUP11 AND PUSH1 0x0 SWAP1 DUP2 MSTORE PUSH1 0x1 PUSH1 0x20 MSTORE PUSH1 0x40 DUP2 KECCAK256 SWAP1 PUSH2 0xE60 PUSH2 0x2D7B JUMP JUMPDEST PUSH1 0x1 PUSH1 0x1 PUSH1 0xA0 SHL SUB AND DUP2 MSTORE PUSH1 0x20 DUP2 ADD SWAP2 SWAP1 SWAP2 MSTORE PUSH1 0x40 ADD PUSH1 0x0 KECCAK256 SLOAD SWAP2 SWAP1 PUSH2 0x2FC6 JUMP JUMPDEST PUSH2 0x2D7F JUMP JUMPDEST POP PUSH1 0x1 JUMPDEST SWAP4 SWAP3 POP POP POP JUMP JUMPDEST PUSH1 0x8 SLOAD DUP2 JUMP JUMPDEST PUSH1 0x5 SLOAD PUSH1 0xFF AND SWAP1 JUMP JUMPDEST PUSH1 0xA SLOAD PUSH1 0x1 PUSH1 0x1 PUSH1 0xA0 SHL SUB AND CALLER EQ PUSH2 0xEEC JUMPI PUSH1 0x40 DUP1 MLOAD PUSH3 0x461BCD PUSH1 0xE5 SHL DUP2 MSTORE PUSH1 0x20 PUSH1 0x4 DUP3 ADD MSTORE PUSH1 0xA PUSH1 0x24 DUP3 ADD MSTORE PUSH10 0x676F7665726E616E6365 PUSH1 0xB0 SHL PUSH1 0x44 DUP3 ADD MSTORE SWAP1 MLOAD SWAP1 DUP2 SWAP1 SUB PUSH1 0x64 ADD SWAP1 REVERT JUMPDEST PUSH1 0x9 DUP1 SLOAD PUSH1 0x1 PUSH1 0x1 PUSH1 0xA0 SHL SUB NOT AND PUSH1 0x1 PUSH1 0x1 PUSH1 0xA0 SHL SUB SWAP3 SWAP1 SWAP3 AND SWAP2 SWAP1 SWAP2 OR SWAP1 SSTORE JUMP JUMPDEST PUSH1 0x0 DUP1 PUSH1 0x0 PUSH1 0x2 PUSH1 0x6 SLOAD EQ ISZERO PUSH2 0xF59 JUMPI PUSH1 0x40 DUP1 MLOAD PUSH3 0x461BCD PUSH1 0xE5 SHL DUP2 MSTORE PUSH1 0x20 PUSH1 0x4 DUP3 ADD MSTORE PUSH1 0x1F PUSH1 0x24 DUP3 ADD MSTORE PUSH1 0x0 DUP1 MLOAD PUSH1 0x20 PUSH2 0x4823 DUP4 CODECOPY DUP2 MLOAD SWAP2 MSTORE PUSH1 0x44 DUP3 ADD MSTORE SWAP1 MLOAD SWAP1 DUP2 SWAP1 SUB PUSH1 0x64 ADD SWAP1 REVERT JUMPDEST PUSH1 0x2 PUSH1 0x6 SSTORE DUP8 ISZERO ISZERO DUP1 PUSH2 0xF6C JUMPI POP PUSH1 0x0 DUP8 GT JUMPDEST PUSH2 0xFBD JUMPI PUSH1 0x40 DUP1 MLOAD PUSH3 0x461BCD PUSH1 0xE5 SHL DUP2 MSTORE PUSH1 0x20 PUSH1 0x4 DUP3 ADD DUP2 SWAP1 MSTORE PUSH1 0x24 DUP3 ADD MSTORE PUSH32 0x616D6F756E743044657369726564206F7220616D6F756E743144657369726564 PUSH1 0x44 DUP3 ADD MSTORE SWAP1 MLOAD SWAP1 DUP2 SWAP1 SUB PUSH1 0x64 ADD SWAP1 REVERT JUMPDEST PUSH1 0x1 PUSH1 0x1 PUSH1 0xA0 SHL SUB DUP5 AND ISZERO DUP1 ISZERO SWAP1 PUSH2 0xFDE JUMPI POP PUSH1 0x1 PUSH1 0x1 PUSH1 0xA0 SHL SUB DUP5 AND ADDRESS EQ ISZERO JUMPDEST PUSH2 0x1014 JUMPI PUSH1 0x40 DUP1 MLOAD PUSH3 0x461BCD PUSH1 0xE5 SHL DUP2 MSTORE PUSH1 0x20 PUSH1 0x4 DUP3 ADD MSTORE PUSH1 0x2 PUSH1 0x24 DUP3 ADD MSTORE PUSH2 0x746F PUSH1 0xF0 SHL PUSH1 0x44 DUP3 ADD MSTORE SWAP1 MLOAD SWAP1 DUP2 SWAP1 SUB PUSH1 0x64 ADD SWAP1 REVERT JUMPDEST PUSH1 0xB SLOAD PUSH2 0x1036 SWAP1 PUSH1 0x1 PUSH1 0xA0 SHL DUP2 DIV PUSH1 0x2 SWAP1 DUP2 SIGNEXTEND SWAP2 PUSH1 0x1 PUSH1 0xB8 SHL SWAP1 DIV SWAP1 SIGNEXTEND PUSH2 0x305D JUMP JUMPDEST PUSH1 0xB SLOAD PUSH2 0x1058 SWAP1 PUSH1 0x1 PUSH1 0xD0 SHL DUP2 DIV PUSH1 0x2 SWAP1 DUP2 SIGNEXTEND SWAP2 PUSH1 0x1 PUSH1 0xE8 SHL SWAP1 DIV SWAP1 SIGNEXTEND PUSH2 0x305D JUMP JUMPDEST PUSH2 0x1062 DUP9 DUP9 PUSH2 0x30FD JUMP JUMPDEST SWAP2 SWAP5 POP SWAP3 POP SWAP1 POP DUP3 PUSH2 0x10A4 JUMPI PUSH1 0x40 DUP1 MLOAD PUSH3 0x461BCD PUSH1 0xE5 SHL DUP2 MSTORE PUSH1 0x20 PUSH1 0x4 DUP3 ADD MSTORE PUSH1 0x6 PUSH1 0x24 DUP3 ADD MSTORE PUSH6 0x736861726573 PUSH1 0xD0 SHL PUSH1 0x44 DUP3 ADD MSTORE SWAP1 MLOAD SWAP1 DUP2 SWAP1 SUB PUSH1 0x64 ADD SWAP1 REVERT JUMPDEST DUP6 DUP3 LT ISZERO PUSH2 0x10E6 JUMPI PUSH1 0x40 DUP1 MLOAD PUSH3 0x461BCD PUSH1 0xE5 SHL DUP2 MSTORE PUSH1 0x20 PUSH1 0x4 DUP3 ADD MSTORE PUSH1 0xA PUSH1 0x24 DUP3 ADD MSTORE PUSH10 0x30B6B7BAB73A1826B4B7 PUSH1 0xB1 SHL PUSH1 0x44 DUP3 ADD MSTORE SWAP1 MLOAD SWAP1 DUP2 SWAP1 SUB PUSH1 0x64 ADD SWAP1 REVERT JUMPDEST DUP5 DUP2 LT ISZERO PUSH2 0x1128 JUMPI PUSH1 0x40 DUP1 MLOAD PUSH3 0x461BCD PUSH1 0xE5 SHL DUP2 MSTORE PUSH1 0x20 PUSH1 0x4 DUP3 ADD MSTORE PUSH1 0xA PUSH1 0x24 DUP3 ADD MSTORE PUSH10 0x30B6B7BAB73A18A6B4B7 PUSH1 0xB1 SHL PUSH1 0x44 DUP3 ADD MSTORE SWAP1 MLOAD SWAP1 DUP2 SWAP1 SUB PUSH1 0x64 ADD SWAP1 REVERT JUMPDEST DUP2 ISZERO PUSH2 0x1163 JUMPI PUSH2 0x1163 PUSH1 0x1 PUSH1 0x1 PUSH1 0xA0 SHL SUB PUSH32 0x0 AND CALLER ADDRESS DUP6 PUSH2 0x3229 JUMP JUMPDEST DUP1 ISZERO PUSH2 0x119E JUMPI PUSH2 0x119E PUSH1 0x1 PUSH1 0x1 PUSH1 0xA0 SHL SUB PUSH32 0x0 AND CALLER ADDRESS DUP5 PUSH2 0x3229 JUMP JUMPDEST PUSH2 0x11A8 DUP5 DUP5 PUSH2 0x3283 JUMP JUMPDEST PUSH1 0x40 DUP1 MLOAD DUP5 DUP2 MSTORE PUSH1 0x20 DUP2 ADD DUP5 SWAP1 MSTORE DUP1 DUP3 ADD DUP4 SWAP1 MSTORE SWAP1 MLOAD PUSH1 0x1 PUSH1 0x1 PUSH1 0xA0 SHL SUB DUP7 AND SWAP2 CALLER SWAP2 PUSH32 0x4E2CA0515ED1AEF1395F66B5303BB5D6F1BF9D61A353FA53F73F8AC9973FA9F6 SWAP2 DUP2 SWAP1 SUB PUSH1 0x60 ADD SWAP1 LOG3 PUSH1 0x8 SLOAD PUSH2 0x1200 PUSH2 0xD9C JUMP JUMPDEST GT ISZERO PUSH2 0x1244 JUMPI PUSH1 0x40 DUP1 MLOAD PUSH3 0x461BCD PUSH1 0xE5 SHL DUP2 MSTORE PUSH1 0x20 PUSH1 0x4 DUP3 ADD MSTORE PUSH1 0xE PUSH1 0x24 DUP3 ADD MSTORE PUSH14 0x6D6178546F74616C537570706C79 PUSH1 0x90 SHL PUSH1 0x44 DUP3 ADD MSTORE SWAP1 MLOAD SWAP1 DUP2 SWAP1 SUB PUSH1 0x64 ADD SWAP1 REVERT JUMPDEST PUSH1 0x1 PUSH1 0x6 DUP2 SWAP1 SSTORE POP SWAP6 POP SWAP6 POP SWAP6 SWAP3 POP POP POP JUMP JUMPDEST PUSH1 0x0 PUSH2 0xD3A PUSH2 0x1264 PUSH2 0x2D7B JUMP JUMPDEST DUP5 PUSH2 0xE81 DUP6 PUSH1 0x1 PUSH1 0x0 PUSH2 0x1275 PUSH2 0x2D7B JUMP JUMPDEST PUSH1 0x1 PUSH1 0x1 PUSH1 0xA0 SHL SUB SWAP1 DUP2 AND DUP3 MSTORE PUSH1 0x20 DUP1 DUP4 ADD SWAP4 SWAP1 SWAP4 MSTORE PUSH1 0x40 SWAP2 DUP3 ADD PUSH1 0x0 SWAP1 DUP2 KECCAK256 SWAP2 DUP13 AND DUP2 MSTORE SWAP3 MSTORE SWAP1 KECCAK256 SLOAD SWAP1 PUSH2 0x3373 JUMP JUMPDEST PUSH1 0xA SLOAD PUSH1 0x1 PUSH1 0x1 PUSH1 0xA0 SHL SUB AND CALLER EQ PUSH2 0x12F1 JUMPI PUSH1 0x40 DUP1 MLOAD PUSH3 0x461BCD PUSH1 0xE5 SHL DUP2 MSTORE PUSH1 0x20 PUSH1 0x4 DUP3 ADD MSTORE PUSH1 0xA PUSH1 0x24 DUP3 ADD MSTORE PUSH10 0x676F7665726E616E6365 PUSH1 0xB0 SHL PUSH1 0x44 DUP3 ADD MSTORE SWAP1 MLOAD SWAP1 DUP2 SWAP1 SUB PUSH1 0x64 ADD SWAP1 REVERT JUMPDEST PUSH1 0x8 SSTORE JUMP JUMPDEST PUSH1 0xE SLOAD PUSH1 0x1 PUSH1 0x1 PUSH1 0xA0 SHL SUB AND DUP2 JUMP JUMPDEST PUSH1 0x0 DUP1 PUSH1 0x2 PUSH1 0x6 SLOAD EQ ISZERO PUSH2 0x134E JUMPI PUSH1 0x40 DUP1 MLOAD PUSH3 0x461BCD PUSH1 0xE5 SHL DUP2 MSTORE PUSH1 0x20 PUSH1 0x4 DUP3 ADD MSTORE PUSH1 0x1F PUSH1 0x24 DUP3 ADD MSTORE PUSH1 0x0 DUP1 MLOAD PUSH1 0x20 PUSH2 0x4823 DUP4 CODECOPY DUP2 MLOAD SWAP2 MSTORE PUSH1 0x44 DUP3 ADD MSTORE SWAP1 MLOAD SWAP1 DUP2 SWAP1 SUB PUSH1 0x64 ADD SWAP1 REVERT JUMPDEST PUSH1 0x2 PUSH1 0x6 SSTORE DUP6 PUSH2 0x138E JUMPI PUSH1 0x40 DUP1 MLOAD PUSH3 0x461BCD PUSH1 0xE5 SHL DUP2 MSTORE PUSH1 0x20 PUSH1 0x4 DUP3 ADD MSTORE PUSH1 0x6 PUSH1 0x24 DUP3 ADD MSTORE PUSH6 0x736861726573 PUSH1 0xD0 SHL PUSH1 0x44 DUP3 ADD MSTORE SWAP1 MLOAD SWAP1 DUP2 SWAP1 SUB PUSH1 0x64 ADD SWAP1 REVERT JUMPDEST PUSH1 0x1 PUSH1 0x1 PUSH1 0xA0 SHL SUB DUP4 AND ISZERO DUP1 ISZERO SWAP1 PUSH2 0x13AF JUMPI POP PUSH1 0x1 PUSH1 0x1 PUSH1 0xA0 SHL SUB DUP4 AND ADDRESS EQ ISZERO JUMPDEST PUSH2 0x13E5 JUMPI PUSH1 0x40 DUP1 MLOAD PUSH3 0x461BCD PUSH1 0xE5 SHL DUP2 MSTORE PUSH1 0x20 PUSH1 0x4 DUP3 ADD MSTORE PUSH1 0x2 PUSH1 0x24 DUP3 ADD MSTORE PUSH2 0x746F PUSH1 0xF0 SHL PUSH1 0x44 DUP3 ADD MSTORE SWAP1 MLOAD SWAP1 DUP2 SWAP1 SUB PUSH1 0x64 ADD SWAP1 REVERT JUMPDEST PUSH1 0x0 PUSH2 0x13EF PUSH2 0xD9C JUMP JUMPDEST SWAP1 POP PUSH2 0x13FB CALLER DUP9 PUSH2 0x33CD JUMP JUMPDEST PUSH1 0x0 PUSH2 0x1419 DUP3 PUSH2 0x1413 DUP11 PUSH2 0x140D PUSH2 0x1800 JUMP JUMPDEST SWAP1 PUSH2 0x34C9 JUMP JUMPDEST SWAP1 PUSH2 0x3522 JUMP JUMPDEST SWAP1 POP PUSH1 0x0 PUSH2 0x142D DUP4 PUSH2 0x1413 DUP12 PUSH2 0x140D PUSH2 0x1735 JUMP JUMPDEST PUSH1 0xB SLOAD SWAP1 SWAP2 POP PUSH1 0x0 SWAP1 DUP2 SWAP1 PUSH2 0x1459 SWAP1 PUSH1 0x1 PUSH1 0xA0 SHL DUP2 DIV PUSH1 0x2 SWAP1 DUP2 SIGNEXTEND SWAP2 PUSH1 0x1 PUSH1 0xB8 SHL SWAP1 DIV SWAP1 SIGNEXTEND DUP14 DUP9 PUSH2 0x3589 JUMP JUMPDEST PUSH1 0xB SLOAD SWAP2 SWAP4 POP SWAP2 POP PUSH1 0x0 SWAP1 DUP2 SWAP1 PUSH2 0x1487 SWAP1 PUSH1 0x1 PUSH1 0xD0 SHL DUP2 DIV PUSH1 0x2 SWAP1 DUP2 SIGNEXTEND SWAP2 PUSH1 0x1 PUSH1 0xE8 SHL SWAP1 DIV SWAP1 SIGNEXTEND DUP16 DUP11 PUSH2 0x3589 JUMP JUMPDEST SWAP1 SWAP3 POP SWAP1 POP PUSH2 0x14A0 DUP3 PUSH2 0x149A DUP9 DUP8 PUSH2 0x3373 JUMP JUMPDEST SWAP1 PUSH2 0x3373 JUMP JUMPDEST SWAP9 POP PUSH2 0x14B0 DUP2 PUSH2 0x149A DUP8 DUP7 PUSH2 0x3373 JUMP JUMPDEST SWAP8 POP DUP12 DUP10 LT ISZERO PUSH2 0x14F4 JUMPI PUSH1 0x40 DUP1 MLOAD PUSH3 0x461BCD PUSH1 0xE5 SHL DUP2 MSTORE PUSH1 0x20 PUSH1 0x4 DUP3 ADD MSTORE PUSH1 0xA PUSH1 0x24 DUP3 ADD MSTORE PUSH10 0x30B6B7BAB73A1826B4B7 PUSH1 0xB1 SHL PUSH1 0x44 DUP3 ADD MSTORE SWAP1 MLOAD SWAP1 DUP2 SWAP1 SUB PUSH1 0x64 ADD SWAP1 REVERT JUMPDEST DUP11 DUP9 LT ISZERO PUSH2 0x1536 JUMPI PUSH1 0x40 DUP1 MLOAD PUSH3 0x461BCD PUSH1 0xE5 SHL DUP2 MSTORE PUSH1 0x20 PUSH1 0x4 DUP3 ADD MSTORE PUSH1 0xA PUSH1 0x24 DUP3 ADD MSTORE PUSH10 0x30B6B7BAB73A18A6B4B7 PUSH1 0xB1 SHL PUSH1 0x44 DUP3 ADD MSTORE SWAP1 MLOAD SWAP1 DUP2 SWAP1 SUB PUSH1 0x64 ADD SWAP1 REVERT JUMPDEST PUSH1 0xE SLOAD PUSH32 0x0 PUSH1 0x1 PUSH1 0x1 PUSH1 0xA0 SHL SUB SWAP1 DUP2 AND SWAP2 AND EQ ISZERO PUSH2 0x1621 JUMPI DUP8 ISZERO PUSH2 0x15A7 JUMPI PUSH2 0x15A7 PUSH1 0x1 PUSH1 0x1 PUSH1 0xA0 SHL SUB PUSH32 0x0 AND DUP12 DUP11 PUSH2 0x2D29 JUMP JUMPDEST DUP9 ISZERO PUSH2 0x161C JUMPI PUSH1 0xE SLOAD PUSH1 0x40 DUP1 MLOAD PUSH4 0x2E1A7D4D PUSH1 0xE0 SHL DUP2 MSTORE PUSH1 0x4 DUP2 ADD DUP13 SWAP1 MSTORE SWAP1 MLOAD PUSH1 0x1 PUSH1 0x1 PUSH1 0xA0 SHL SUB SWAP1 SWAP3 AND SWAP2 PUSH4 0x2E1A7D4D SWAP2 PUSH1 0x24 DUP1 DUP3 ADD SWAP3 PUSH1 0x0 SWAP3 SWAP1 SWAP2 SWAP1 DUP3 SWAP1 SUB ADD DUP2 DUP4 DUP8 DUP1 EXTCODESIZE ISZERO DUP1 ISZERO PUSH2 0x15FA JUMPI PUSH1 0x0 DUP1 REVERT JUMPDEST POP GAS CALL ISZERO DUP1 ISZERO PUSH2 0x160E JUMPI RETURNDATASIZE PUSH1 0x0 DUP1 RETURNDATACOPY RETURNDATASIZE PUSH1 0x0 REVERT JUMPDEST POP POP POP POP PUSH2 0x161C DUP11 DUP11 PUSH2 0x362F JUMP JUMPDEST PUSH2 0x16D0 JUMP JUMPDEST DUP9 ISZERO PUSH2 0x165B JUMPI PUSH2 0x165B PUSH1 0x1 PUSH1 0x1 PUSH1 0xA0 SHL SUB PUSH32 0x0 AND DUP12 DUP12 PUSH2 0x2D29 JUMP JUMPDEST DUP8 ISZERO PUSH2 0x16D0 JUMPI PUSH1 0xE SLOAD PUSH1 0x40 DUP1 MLOAD PUSH4 0x2E1A7D4D PUSH1 0xE0 SHL DUP2 MSTORE PUSH1 0x4 DUP2 ADD DUP12 SWAP1 MSTORE SWAP1 MLOAD PUSH1 0x1 PUSH1 0x1 PUSH1 0xA0 SHL SUB SWAP1 SWAP3 AND SWAP2 PUSH4 0x2E1A7D4D SWAP2 PUSH1 0x24 DUP1 DUP3 ADD SWAP3 PUSH1 0x0 SWAP3 SWAP1 SWAP2 SWAP1 DUP3 SWAP1 SUB ADD DUP2 DUP4 DUP8 DUP1 EXTCODESIZE ISZERO DUP1 ISZERO PUSH2 0x16AE JUMPI PUSH1 0x0 DUP1 REVERT JUMPDEST POP GAS CALL ISZERO DUP1 ISZERO PUSH2 0x16C2 JUMPI RETURNDATASIZE PUSH1 0x0 DUP1 RETURNDATACOPY RETURNDATASIZE PUSH1 0x0 REVERT JUMPDEST POP POP POP POP PUSH2 0x16D0 DUP11 DUP10 PUSH2 0x362F JUMP JUMPDEST PUSH1 0x40 DUP1 MLOAD DUP15 DUP2 MSTORE PUSH1 0x20 DUP2 ADD DUP12 SWAP1 MSTORE DUP1 DUP3 ADD DUP11 SWAP1 MSTORE SWAP1 MLOAD PUSH1 0x1 PUSH1 0x1 PUSH1 0xA0 SHL SUB DUP13 AND SWAP2 CALLER SWAP2 PUSH32 0xEBFF2602B3F468259E1E99F613FED6691F3A6526EFFE6EF3E768BA7AE7A36C4F SWAP2 DUP2 SWAP1 SUB PUSH1 0x60 ADD SWAP1 LOG3 POP POP POP POP POP POP POP PUSH1 0x1 PUSH1 0x6 DUP2 SWAP1 SSTORE POP SWAP5 POP SWAP5 SWAP3 POP POP POP JUMP JUMPDEST PUSH1 0x0 PUSH2 0x17DC PUSH1 0xD SLOAD PUSH32 0x0 PUSH1 0x1 PUSH1 0x1 PUSH1 0xA0 SHL SUB AND PUSH4 0x70A08231 ADDRESS PUSH1 0x40 MLOAD DUP3 PUSH4 0xFFFFFFFF AND PUSH1 0xE0 SHL DUP2 MSTORE PUSH1 0x4 ADD DUP1 DUP3 PUSH1 0x1 PUSH1 0x1 PUSH1 0xA0 SHL SUB AND DUP2 MSTORE PUSH1 0x20 ADD SWAP2 POP POP PUSH1 0x20 PUSH1 0x40 MLOAD DUP1 DUP4 SUB DUP2 DUP7 DUP1 EXTCODESIZE ISZERO DUP1 ISZERO PUSH2 0x17AA JUMPI PUSH1 0x0 DUP1 REVERT JUMPDEST POP GAS STATICCALL ISZERO DUP1 ISZERO PUSH2 0x17BE JUMPI RETURNDATASIZE PUSH1 0x0 DUP1 RETURNDATACOPY RETURNDATASIZE PUSH1 0x0 REVERT JUMPDEST POP POP POP POP PUSH1 0x40 MLOAD RETURNDATASIZE PUSH1 0x20 DUP2 LT ISZERO PUSH2 0x17D4 JUMPI PUSH1 0x0 DUP1 REVERT JUMPDEST POP MLOAD SWAP1 PUSH2 0x2CCC JUMP JUMPDEST SWAP1 POP SWAP1 JUMP JUMPDEST PUSH1 0xB SLOAD PUSH1 0x1 PUSH1 0xD0 SHL SWAP1 DIV PUSH1 0x2 SIGNEXTEND DUP2 JUMP JUMPDEST PUSH1 0xA SLOAD PUSH1 0x1 PUSH1 0x1 PUSH1 0xA0 SHL SUB AND DUP2 JUMP JUMPDEST PUSH1 0x0 PUSH2 0x17DC PUSH1 0xC SLOAD PUSH32 0x0 PUSH1 0x1 PUSH1 0x1 PUSH1 0xA0 SHL SUB AND PUSH4 0x70A08231 ADDRESS PUSH1 0x40 MLOAD DUP3 PUSH4 0xFFFFFFFF AND PUSH1 0xE0 SHL DUP2 MSTORE PUSH1 0x4 ADD DUP1 DUP3 PUSH1 0x1 PUSH1 0x1 PUSH1 0xA0 SHL SUB AND DUP2 MSTORE PUSH1 0x20 ADD SWAP2 POP POP PUSH1 0x20 PUSH1 0x40 MLOAD DUP1 DUP4 SUB DUP2 DUP7 DUP1 EXTCODESIZE ISZERO DUP1 ISZERO PUSH2 0x17AA JUMPI PUSH1 0x0 DUP1 REVERT JUMPDEST PUSH1 0x0 DUP1 PUSH1 0x0 PUSH1 0x2 PUSH1 0x6 SLOAD EQ ISZERO PUSH2 0x18C0 JUMPI PUSH1 0x40 DUP1 MLOAD PUSH3 0x461BCD PUSH1 0xE5 SHL DUP2 MSTORE PUSH1 0x20 PUSH1 0x4 DUP3 ADD MSTORE PUSH1 0x1F PUSH1 0x24 DUP3 ADD MSTORE PUSH1 0x0 DUP1 MLOAD PUSH1 0x20 PUSH2 0x4823 DUP4 CODECOPY DUP2 MLOAD SWAP2 MSTORE PUSH1 0x44 DUP3 ADD MSTORE SWAP1 MLOAD SWAP1 DUP2 SWAP1 SUB PUSH1 0x64 ADD SWAP1 REVERT JUMPDEST PUSH1 0x2 PUSH1 0x6 SSTORE DUP7 ISZERO ISZERO DUP1 PUSH2 0x18D3 JUMPI POP PUSH1 0x0 CALLVALUE GT JUMPDEST PUSH2 0x1924 JUMPI PUSH1 0x40 DUP1 MLOAD PUSH3 0x461BCD PUSH1 0xE5 SHL DUP2 MSTORE PUSH1 0x20 PUSH1 0x4 DUP3 ADD MSTORE PUSH1 0x1B PUSH1 0x24 DUP3 ADD MSTORE PUSH32 0x616D6F756E74546F6B656E44657369726564206F722076616C75650000000000 PUSH1 0x44 DUP3 ADD MSTORE SWAP1 MLOAD SWAP1 DUP2 SWAP1 SUB PUSH1 0x64 ADD SWAP1 REVERT JUMPDEST PUSH1 0x1 PUSH1 0x1 PUSH1 0xA0 SHL SUB DUP5 AND ISZERO DUP1 ISZERO SWAP1 PUSH2 0x1945 JUMPI POP PUSH1 0x1 PUSH1 0x1 PUSH1 0xA0 SHL SUB DUP5 AND ADDRESS EQ ISZERO JUMPDEST PUSH2 0x197B JUMPI PUSH1 0x40 DUP1 MLOAD PUSH3 0x461BCD PUSH1 0xE5 SHL DUP2 MSTORE PUSH1 0x20 PUSH1 0x4 DUP3 ADD MSTORE PUSH1 0x2 PUSH1 0x24 DUP3 ADD MSTORE PUSH2 0x746F PUSH1 0xF0 SHL PUSH1 0x44 DUP3 ADD MSTORE SWAP1 MLOAD SWAP1 DUP2 SWAP1 SUB PUSH1 0x64 ADD SWAP1 REVERT JUMPDEST PUSH1 0xE SLOAD PUSH32 0x0 PUSH1 0x1 PUSH1 0x1 PUSH1 0xA0 SHL SUB SWAP1 DUP2 AND SWAP2 AND EQ PUSH1 0x0 DUP1 DUP1 DUP1 DUP5 ISZERO PUSH2 0x19C8 JUMPI POP CALLVALUE SWAP3 POP DUP11 SWAP2 POP DUP10 SWAP1 POP DUP9 PUSH2 0x19D4 JUMP JUMPDEST POP DUP11 SWAP3 POP CALLVALUE SWAP2 POP DUP9 SWAP1 POP DUP10 JUMPDEST PUSH1 0xB SLOAD PUSH2 0x19F6 SWAP1 PUSH1 0x1 PUSH1 0xA0 SHL DUP2 DIV PUSH1 0x2 SWAP1 DUP2 SIGNEXTEND SWAP2 PUSH1 0x1 PUSH1 0xB8 SHL SWAP1 DIV SWAP1 SIGNEXTEND PUSH2 0x305D JUMP JUMPDEST PUSH1 0xB SLOAD PUSH2 0x1A18 SWAP1 PUSH1 0x1 PUSH1 0xD0 SHL DUP2 DIV PUSH1 0x2 SWAP1 DUP2 SIGNEXTEND SWAP2 PUSH1 0x1 PUSH1 0xE8 SHL SWAP1 DIV SWAP1 SIGNEXTEND PUSH2 0x305D JUMP JUMPDEST PUSH2 0x1A22 DUP5 DUP5 PUSH2 0x30FD JUMP JUMPDEST SWAP2 SWAP10 POP SWAP8 POP SWAP6 POP DUP8 PUSH2 0x1A64 JUMPI PUSH1 0x40 DUP1 MLOAD PUSH3 0x461BCD PUSH1 0xE5 SHL DUP2 MSTORE PUSH1 0x20 PUSH1 0x4 DUP3 ADD MSTORE PUSH1 0x6 PUSH1 0x24 DUP3 ADD MSTORE PUSH6 0x736861726573 PUSH1 0xD0 SHL PUSH1 0x44 DUP3 ADD MSTORE SWAP1 MLOAD SWAP1 DUP2 SWAP1 SUB PUSH1 0x64 ADD SWAP1 REVERT JUMPDEST DUP1 DUP8 LT ISZERO PUSH2 0x1AA6 JUMPI PUSH1 0x40 DUP1 MLOAD PUSH3 0x461BCD PUSH1 0xE5 SHL DUP2 MSTORE PUSH1 0x20 PUSH1 0x4 DUP3 ADD MSTORE PUSH1 0xA PUSH1 0x24 DUP3 ADD MSTORE PUSH10 0x30B6B7BAB73A1826B4B7 PUSH1 0xB1 SHL PUSH1 0x44 DUP3 ADD MSTORE SWAP1 MLOAD SWAP1 DUP2 SWAP1 SUB PUSH1 0x64 ADD SWAP1 REVERT JUMPDEST DUP2 DUP7 LT ISZERO PUSH2 0x1AE8 JUMPI PUSH1 0x40 DUP1 MLOAD PUSH3 0x461BCD PUSH1 0xE5 SHL DUP2 MSTORE PUSH1 0x20 PUSH1 0x4 DUP3 ADD MSTORE PUSH1 0xA PUSH1 0x24 DUP3 ADD MSTORE PUSH10 0x30B6B7BAB73A18A6B4B7 PUSH1 0xB1 SHL PUSH1 0x44 DUP3 ADD MSTORE SWAP1 MLOAD SWAP1 DUP2 SWAP1 SUB PUSH1 0x64 ADD SWAP1 REVERT JUMPDEST PUSH1 0xE SLOAD PUSH1 0x1 PUSH1 0x1 PUSH1 0xA0 SHL SUB AND PUSH4 0xD0E30DB0 DUP7 PUSH2 0x1B04 JUMPI DUP8 PUSH2 0x1B06 JUMP JUMPDEST DUP9 JUMPDEST PUSH1 0x40 MLOAD DUP3 PUSH4 0xFFFFFFFF AND PUSH1 0xE0 SHL DUP2 MSTORE PUSH1 0x4 ADD PUSH1 0x0 PUSH1 0x40 MLOAD DUP1 DUP4 SUB DUP2 DUP6 DUP9 DUP1 EXTCODESIZE ISZERO DUP1 ISZERO PUSH2 0x1B31 JUMPI PUSH1 0x0 DUP1 REVERT JUMPDEST POP GAS CALL ISZERO DUP1 ISZERO PUSH2 0x1B45 JUMPI RETURNDATASIZE PUSH1 0x0 DUP1 RETURNDATACOPY RETURNDATASIZE PUSH1 0x0 REVERT JUMPDEST POP POP POP POP POP DUP5 PUSH2 0x1B55 JUMPI DUP6 PUSH2 0x1B57 JUMP JUMPDEST DUP7 JUMPDEST CALLVALUE GT ISZERO PUSH2 0x1B66 JUMPI PUSH2 0x1B66 PUSH2 0x36BB JUMP JUMPDEST DUP5 ISZERO PUSH2 0x1BA6 JUMPI PUSH2 0x1BA1 PUSH1 0x1 PUSH1 0x1 PUSH1 0xA0 SHL SUB PUSH32 0x0 AND CALLER ADDRESS DUP10 PUSH2 0x3229 JUMP JUMPDEST PUSH2 0x1BDB JUMP JUMPDEST PUSH2 0x1BDB PUSH1 0x1 PUSH1 0x1 PUSH1 0xA0 SHL SUB PUSH32 0x0 AND CALLER ADDRESS DUP11 PUSH2 0x3229 JUMP JUMPDEST PUSH2 0x1BE5 DUP10 DUP10 PUSH2 0x3283 JUMP JUMPDEST PUSH1 0x40 DUP1 MLOAD DUP10 DUP2 MSTORE PUSH1 0x20 DUP2 ADD DUP10 SWAP1 MSTORE DUP1 DUP3 ADD DUP9 SWAP1 MSTORE SWAP1 MLOAD PUSH1 0x1 PUSH1 0x1 PUSH1 0xA0 SHL SUB DUP12 AND SWAP2 CALLER SWAP2 PUSH32 0x4E2CA0515ED1AEF1395F66B5303BB5D6F1BF9D61A353FA53F73F8AC9973FA9F6 SWAP2 DUP2 SWAP1 SUB PUSH1 0x60 ADD SWAP1 LOG3 PUSH1 0x8 SLOAD PUSH2 0x1C3D PUSH2 0xD9C JUMP JUMPDEST GT ISZERO PUSH2 0x1C81 JUMPI PUSH1 0x40 DUP1 MLOAD PUSH3 0x461BCD PUSH1 0xE5 SHL DUP2 MSTORE PUSH1 0x20 PUSH1 0x4 DUP3 ADD MSTORE PUSH1 0xE PUSH1 0x24 DUP3 ADD MSTORE PUSH14 0x6D6178546F74616C537570706C79 PUSH1 0x90 SHL PUSH1 0x44 DUP3 ADD MSTORE SWAP1 MLOAD SWAP1 DUP2 SWAP1 SUB PUSH1 0x64 ADD SWAP1 REVERT JUMPDEST POP POP POP POP POP PUSH1 0x1 PUSH1 0x6 DUP2 SWAP1 SSTORE POP SWAP5 POP SWAP5 POP SWAP5 SWAP2 POP POP JUMP JUMPDEST PUSH1 0x1 PUSH1 0x1 PUSH1 0xA0 SHL SUB DUP2 AND PUSH1 0x0 SWAP1 DUP2 MSTORE PUSH1 0x20 DUP2 SWAP1 MSTORE PUSH1 0x40 SWAP1 KECCAK256 SLOAD JUMPDEST SWAP2 SWAP1 POP JUMP JUMPDEST PUSH1 0xA SLOAD PUSH1 0x1 PUSH1 0x1 PUSH1 0xA0 SHL SUB AND CALLER EQ PUSH2 0x1D03 JUMPI PUSH1 0x40 DUP1 MLOAD PUSH3 0x461BCD PUSH1 0xE5 SHL DUP2 MSTORE PUSH1 0x20 PUSH1 0x4 DUP3 ADD MSTORE PUSH1 0xA PUSH1 0x24 DUP3 ADD MSTORE PUSH10 0x676F7665726E616E6365 PUSH1 0xB0 SHL PUSH1 0x44 DUP3 ADD MSTORE SWAP1 MLOAD SWAP1 DUP2 SWAP1 SUB PUSH1 0x64 ADD SWAP1 REVERT JUMPDEST PUSH3 0xF4240 DUP2 LT PUSH2 0x1D48 JUMPI PUSH1 0x40 DUP1 MLOAD PUSH3 0x461BCD PUSH1 0xE5 SHL DUP2 MSTORE PUSH1 0x20 PUSH1 0x4 DUP3 ADD MSTORE PUSH1 0xB PUSH1 0x24 DUP3 ADD MSTORE PUSH11 0x70726F746F636F6C466565 PUSH1 0xA8 SHL PUSH1 0x44 DUP3 ADD MSTORE SWAP1 MLOAD SWAP1 DUP2 SWAP1 SUB PUSH1 0x64 ADD SWAP1 REVERT JUMPDEST PUSH1 0x7 SSTORE JUMP JUMPDEST PUSH1 0x2 PUSH1 0x6 SLOAD EQ ISZERO PUSH2 0x1D93 JUMPI PUSH1 0x40 DUP1 MLOAD PUSH3 0x461BCD PUSH1 0xE5 SHL DUP2 MSTORE PUSH1 0x20 PUSH1 0x4 DUP3 ADD MSTORE PUSH1 0x1F PUSH1 0x24 DUP3 ADD MSTORE PUSH1 0x0 DUP1 MLOAD PUSH1 0x20 PUSH2 0x4823 DUP4 CODECOPY DUP2 MLOAD SWAP2 MSTORE PUSH1 0x44 DUP3 ADD MSTORE SWAP1 MLOAD SWAP1 DUP2 SWAP1 SUB PUSH1 0x64 ADD SWAP1 REVERT JUMPDEST PUSH1 0x2 PUSH1 0x6 SSTORE PUSH1 0x9 SLOAD PUSH1 0x1 PUSH1 0x1 PUSH1 0xA0 SHL SUB AND CALLER EQ PUSH2 0x1DE2 JUMPI PUSH1 0x40 DUP1 MLOAD PUSH3 0x461BCD PUSH1 0xE5 SHL DUP2 MSTORE PUSH1 0x20 PUSH1 0x4 DUP3 ADD MSTORE PUSH1 0x8 PUSH1 0x24 DUP3 ADD MSTORE PUSH8 0x7374726174656779 PUSH1 0xC0 SHL PUSH1 0x44 DUP3 ADD MSTORE SWAP1 MLOAD SWAP1 DUP2 SWAP1 SUB PUSH1 0x64 ADD SWAP1 REVERT JUMPDEST PUSH2 0x1DEC DUP7 DUP7 PUSH2 0x3703 JUMP JUMPDEST PUSH2 0x1DF6 DUP5 DUP5 PUSH2 0x3703 JUMP JUMPDEST PUSH2 0x1E00 DUP3 DUP3 PUSH2 0x3703 JUMP JUMPDEST PUSH1 0x0 PUSH32 0x0 PUSH1 0x1 PUSH1 0x1 PUSH1 0xA0 SHL SUB AND PUSH4 0x3850C7BD PUSH1 0x40 MLOAD DUP2 PUSH4 0xFFFFFFFF AND PUSH1 0xE0 SHL DUP2 MSTORE PUSH1 0x4 ADD PUSH1 0xE0 PUSH1 0x40 MLOAD DUP1 DUP4 SUB DUP2 DUP7 DUP1 EXTCODESIZE ISZERO DUP1 ISZERO PUSH2 0x1E5B JUMPI PUSH1 0x0 DUP1 REVERT JUMPDEST POP GAS STATICCALL ISZERO DUP1 ISZERO PUSH2 0x1E6F JUMPI RETURNDATASIZE PUSH1 0x0 DUP1 RETURNDATACOPY RETURNDATASIZE PUSH1 0x0 REVERT JUMPDEST POP POP POP POP PUSH1 0x40 MLOAD RETURNDATASIZE PUSH1 0xE0 DUP2 LT ISZERO PUSH2 0x1E85 JUMPI PUSH1 0x0 DUP1 REVERT JUMPDEST POP PUSH1 0x20 ADD MLOAD SWAP1 POP PUSH1 0x2 DUP2 DUP2 SIGNEXTEND SWAP1 DUP6 SWAP1 SIGNEXTEND SGT ISZERO PUSH2 0x1ED3 JUMPI PUSH1 0x40 DUP1 MLOAD PUSH3 0x461BCD PUSH1 0xE5 SHL DUP2 MSTORE PUSH1 0x20 PUSH1 0x4 DUP3 ADD MSTORE PUSH1 0x8 PUSH1 0x24 DUP3 ADD MSTORE PUSH8 0x3134B22AB83832B9 PUSH1 0xC1 SHL PUSH1 0x44 DUP3 ADD MSTORE SWAP1 MLOAD SWAP1 DUP2 SWAP1 SUB PUSH1 0x64 ADD SWAP1 REVERT JUMPDEST DUP1 PUSH1 0x2 SIGNEXTEND DUP4 PUSH1 0x2 SIGNEXTEND SGT PUSH2 0x1F18 JUMPI PUSH1 0x40 DUP1 MLOAD PUSH3 0x461BCD PUSH1 0xE5 SHL DUP2 MSTORE PUSH1 0x20 PUSH1 0x4 DUP3 ADD MSTORE PUSH1 0x8 PUSH1 0x24 DUP3 ADD MSTORE PUSH8 0x30B9B5A637BBB2B9 PUSH1 0xC1 SHL PUSH1 0x44 DUP3 ADD MSTORE SWAP1 MLOAD SWAP1 DUP2 SWAP1 SUB PUSH1 0x64 ADD SWAP1 REVERT JUMPDEST PUSH1 0xB SLOAD PUSH1 0x0 SWAP1 PUSH2 0x1F3D SWAP1 PUSH1 0x1 PUSH1 0xA0 SHL DUP2 DIV PUSH1 0x2 SWAP1 DUP2 SIGNEXTEND SWAP2 PUSH1 0x1 PUSH1 0xB8 SHL SWAP1 DIV SWAP1 SIGNEXTEND PUSH2 0x38E3 JUMP JUMPDEST POP POP PUSH1 0xB SLOAD SWAP3 SWAP4 POP PUSH1 0x0 SWAP3 PUSH2 0x1F6A SWAP3 POP PUSH1 0x1 PUSH1 0xD0 SHL DUP2 DIV PUSH1 0x2 SWAP1 DUP2 SIGNEXTEND SWAP3 POP PUSH1 0x1 PUSH1 0xE8 SHL SWAP1 SWAP2 DIV SWAP1 SIGNEXTEND PUSH2 0x38E3 JUMP JUMPDEST POP POP PUSH1 0xB SLOAD SWAP3 SWAP4 POP PUSH2 0x1F96 SWAP3 PUSH1 0x1 PUSH1 0xA0 SHL DUP2 DIV PUSH1 0x2 SWAP1 DUP2 SIGNEXTEND SWAP4 POP PUSH1 0x1 PUSH1 0xB8 SHL SWAP1 SWAP2 DIV SWAP1 SIGNEXTEND SWAP1 POP DUP5 PUSH2 0x39B2 JUMP JUMPDEST POP POP PUSH1 0xB SLOAD PUSH2 0x1FBE SWAP3 POP PUSH1 0x1 PUSH1 0xD0 SHL DUP2 DIV PUSH1 0x2 SWAP1 DUP2 SIGNEXTEND SWAP3 POP PUSH1 0x1 PUSH1 0xE8 SHL SWAP1 SWAP2 DIV SWAP1 SIGNEXTEND DUP4 PUSH2 0x39B2 JUMP JUMPDEST POP POP POP POP POP POP PUSH1 0x0 PUSH2 0x1FCE PUSH2 0x1800 JUMP JUMPDEST SWAP1 POP PUSH1 0x0 PUSH2 0x1FDA PUSH2 0x1735 JUMP JUMPDEST SWAP1 POP PUSH32 0x210F60ADF1DB7A02E9DB9A49EC7C2EB2060C516CBCFD01A0C05288144738EE5D DUP4 DUP4 DUP4 PUSH2 0x2008 PUSH2 0xD9C JUMP JUMPDEST PUSH1 0x40 DUP1 MLOAD PUSH1 0x2 SWAP6 SWAP1 SWAP6 SIGNEXTEND DUP6 MSTORE PUSH1 0x20 DUP6 ADD SWAP4 SWAP1 SWAP4 MSTORE DUP4 DUP4 ADD SWAP2 SWAP1 SWAP2 MSTORE PUSH1 0x60 DUP4 ADD MSTORE MLOAD SWAP1 DUP2 SWAP1 SUB PUSH1 0x80 ADD SWAP1 LOG1 DUP11 ISZERO PUSH2 0x212E JUMPI PUSH1 0x1 PUSH1 0x1 PUSH1 0xA0 SHL SUB PUSH32 0x0 AND PUSH4 0x128ACB08 ADDRESS PUSH1 0x0 DUP15 SGT DUP1 PUSH2 0x207A JUMPI DUP15 PUSH1 0x0 SUB PUSH2 0x207C JUMP JUMPDEST DUP15 JUMPDEST DUP15 PUSH1 0x40 MLOAD DUP6 PUSH4 0xFFFFFFFF AND PUSH1 0xE0 SHL DUP2 MSTORE PUSH1 0x4 ADD DUP1 DUP6 PUSH1 0x1 PUSH1 0x1 PUSH1 0xA0 SHL SUB AND DUP2 MSTORE PUSH1 0x20 ADD DUP5 ISZERO ISZERO DUP2 MSTORE PUSH1 0x20 ADD DUP4 DUP2 MSTORE PUSH1 0x20 ADD DUP3 PUSH1 0x1 PUSH1 0x1 PUSH1 0xA0 SHL SUB AND DUP2 MSTORE PUSH1 0x20 ADD DUP1 PUSH1 0x20 ADD DUP3 DUP2 SUB DUP3 MSTORE PUSH1 0x0 DUP2 MSTORE PUSH1 0x20 ADD SWAP6 POP POP POP POP POP POP PUSH1 0x40 DUP1 MLOAD DUP1 DUP4 SUB DUP2 PUSH1 0x0 DUP8 DUP1 EXTCODESIZE ISZERO DUP1 ISZERO PUSH2 0x20EC JUMPI PUSH1 0x0 DUP1 REVERT JUMPDEST POP GAS CALL ISZERO DUP1 ISZERO PUSH2 0x2100 JUMPI RETURNDATASIZE PUSH1 0x0 DUP1 RETURNDATACOPY RETURNDATASIZE PUSH1 0x0 REVERT JUMPDEST POP POP POP POP PUSH1 0x40 MLOAD RETURNDATASIZE PUSH1 0x40 DUP2 LT ISZERO PUSH2 0x2116 JUMPI PUSH1 0x0 DUP1 REVERT JUMPDEST POP PUSH2 0x2121 SWAP1 POP PUSH2 0x1800 JUMP JUMPDEST SWAP2 POP PUSH2 0x212B PUSH2 0x1735 JUMP JUMPDEST SWAP1 POP JUMPDEST PUSH1 0x0 PUSH2 0x213C DUP11 DUP11 DUP6 DUP6 PUSH2 0x3C2D JUMP JUMPDEST SWAP1 POP PUSH2 0x2149 DUP11 DUP11 DUP4 PUSH2 0x3CDE JUMP JUMPDEST PUSH1 0xB DUP1 SLOAD PUSH1 0x2 DUP13 DUP2 SIGNEXTEND PUSH3 0xFFFFFF SWAP1 DUP2 AND PUSH1 0x1 PUSH1 0xA0 SHL MUL PUSH3 0xFFFFFF PUSH1 0xA0 SHL NOT SWAP3 DUP15 SWAP1 SIGNEXTEND SWAP1 SWAP2 AND PUSH1 0x1 PUSH1 0xB8 SHL MUL PUSH3 0xFFFFFF PUSH1 0xB8 SHL NOT SWAP1 SWAP4 AND SWAP3 SWAP1 SWAP3 OR AND OR SWAP1 SSTORE PUSH2 0x218F PUSH2 0x1800 JUMP JUMPDEST SWAP3 POP PUSH2 0x2199 PUSH2 0x1735 JUMP JUMPDEST SWAP2 POP PUSH1 0x0 PUSH2 0x21A9 DUP10 DUP10 DUP7 DUP7 PUSH2 0x3C2D JUMP JUMPDEST SWAP1 POP PUSH1 0x0 PUSH2 0x21B9 DUP9 DUP9 DUP8 DUP8 PUSH2 0x3C2D JUMP JUMPDEST SWAP1 POP DUP1 PUSH1 0x1 PUSH1 0x1 PUSH1 0x80 SHL SUB AND DUP3 PUSH1 0x1 PUSH1 0x1 PUSH1 0x80 SHL SUB AND GT ISZERO PUSH2 0x2223 JUMPI PUSH2 0x21E0 DUP11 DUP11 DUP5 PUSH2 0x3CDE JUMP JUMPDEST PUSH1 0xB DUP1 SLOAD PUSH1 0x2 DUP13 DUP2 SIGNEXTEND PUSH3 0xFFFFFF SWAP1 DUP2 AND PUSH1 0x1 PUSH1 0xD0 SHL MUL PUSH3 0xFFFFFF PUSH1 0xD0 SHL NOT SWAP3 DUP15 SWAP1 SIGNEXTEND SWAP1 SWAP2 AND PUSH1 0x1 PUSH1 0xE8 SHL MUL PUSH1 0x1 PUSH1 0x1 PUSH1 0xE8 SHL SUB SWAP1 SWAP4 AND SWAP3 SWAP1 SWAP3 OR AND OR SWAP1 SSTORE PUSH2 0x226D JUMP JUMPDEST PUSH2 0x222E DUP9 DUP9 DUP4 PUSH2 0x3CDE JUMP JUMPDEST PUSH1 0xB DUP1 SLOAD PUSH1 0x2 DUP11 DUP2 SIGNEXTEND PUSH3 0xFFFFFF SWAP1 DUP2 AND PUSH1 0x1 PUSH1 0xD0 SHL MUL PUSH3 0xFFFFFF PUSH1 0xD0 SHL NOT SWAP3 DUP13 SWAP1 SIGNEXTEND SWAP1 SWAP2 AND PUSH1 0x1 PUSH1 0xE8 SHL MUL PUSH1 0x1 PUSH1 0x1 PUSH1 0xE8 SHL SUB SWAP1 SWAP4 AND SWAP3 SWAP1 SWAP3 OR AND OR SWAP1 SSTORE JUMPDEST POP POP PUSH1 0x1 PUSH1 0x6 SSTORE POP POP POP POP POP POP POP POP POP POP POP POP JUMP JUMPDEST PUSH1 0xB SLOAD PUSH1 0x1 PUSH1 0xB8 SHL SWAP1 DIV PUSH1 0x2 SIGNEXTEND DUP2 JUMP JUMPDEST PUSH1 0x4 DUP1 SLOAD PUSH1 0x40 DUP1 MLOAD PUSH1 0x20 PUSH1 0x1F PUSH1 0x2 PUSH1 0x0 NOT PUSH2 0x100 PUSH1 0x1 DUP9 AND ISZERO MUL ADD SWAP1 SWAP6 AND SWAP5 SWAP1 SWAP5 DIV SWAP4 DUP5 ADD DUP2 SWAP1 DIV DUP2 MUL DUP3 ADD DUP2 ADD SWAP1 SWAP3 MSTORE DUP3 DUP2 MSTORE PUSH1 0x60 SWAP4 SWAP1 SWAP3 SWAP1 SWAP2 DUP4 ADD DUP3 DUP3 DUP1 ISZERO PUSH2 0xD1C JUMPI DUP1 PUSH1 0x1F LT PUSH2 0xCF1 JUMPI PUSH2 0x100 DUP1 DUP4 SLOAD DIV MUL DUP4 MSTORE SWAP2 PUSH1 0x20 ADD SWAP2 PUSH2 0xD1C JUMP JUMPDEST PUSH1 0xD SLOAD DUP2 JUMP JUMPDEST PUSH1 0x0 PUSH2 0xD3A PUSH2 0x2306 PUSH2 0x2D7B JUMP JUMPDEST DUP5 PUSH2 0xE81 DUP6 PUSH1 0x40 MLOAD DUP1 PUSH1 0x60 ADD PUSH1 0x40 MSTORE DUP1 PUSH1 0x25 DUP2 MSTORE PUSH1 0x20 ADD PUSH2 0x49B0 PUSH1 0x25 SWAP2 CODECOPY PUSH1 0x1 PUSH1 0x0 PUSH2 0x2330 PUSH2 0x2D7B JUMP JUMPDEST PUSH1 0x1 PUSH1 0x1 PUSH1 0xA0 SHL SUB SWAP1 DUP2 AND DUP3 MSTORE PUSH1 0x20 DUP1 DUP4 ADD SWAP4 SWAP1 SWAP4 MSTORE PUSH1 0x40 SWAP2 DUP3 ADD PUSH1 0x0 SWAP1 DUP2 KECCAK256 SWAP2 DUP14 AND DUP2 MSTORE SWAP3 MSTORE SWAP1 KECCAK256 SLOAD SWAP2 SWAP1 PUSH2 0x2FC6 JUMP JUMPDEST PUSH1 0x9 SLOAD PUSH1 0x1 PUSH1 0x1 PUSH1 0xA0 SHL SUB AND DUP2 JUMP JUMPDEST PUSH1 0x0 PUSH2 0xD3A PUSH2 0x237D PUSH2 0x2D7B JUMP JUMPDEST DUP5 DUP5 PUSH2 0x2E6B JUMP JUMPDEST PUSH1 0x0 DUP1 PUSH1 0x0 DUP1 PUSH1 0x0 PUSH2 0x2396 DUP8 DUP8 PUSH2 0x38E3 JUMP JUMPDEST SWAP5 POP SWAP5 POP POP POP SWAP3 POP PUSH2 0x23A9 DUP8 DUP8 DUP6 PUSH2 0x3D85 JUMP JUMPDEST PUSH1 0x7 SLOAD SWAP2 SWAP7 POP SWAP5 POP PUSH1 0x0 SWAP1 PUSH2 0x23C2 SWAP1 PUSH3 0xF4240 SWAP1 PUSH2 0x2CCC JUMP JUMPDEST SWAP1 POP PUSH2 0x23E8 PUSH2 0x23E1 PUSH3 0xF4240 PUSH2 0x1413 PUSH1 0x1 PUSH1 0x1 PUSH1 0x80 SHL SUB DUP8 AND DUP6 PUSH2 0x34C9 JUMP JUMPDEST DUP8 SWAP1 PUSH2 0x3373 JUMP JUMPDEST SWAP6 POP PUSH2 0x240E PUSH2 0x2407 PUSH3 0xF4240 PUSH2 0x1413 PUSH1 0x1 PUSH1 0x1 PUSH1 0x80 SHL SUB DUP7 AND DUP6 PUSH2 0x34C9 JUMP JUMPDEST DUP7 SWAP1 PUSH2 0x3373 JUMP JUMPDEST SWAP5 POP POP POP POP POP SWAP3 POP SWAP3 SWAP1 POP JUMP JUMPDEST PUSH1 0xA SLOAD PUSH1 0x1 PUSH1 0x1 PUSH1 0xA0 SHL SUB AND CALLER EQ PUSH2 0x2467 JUMPI PUSH1 0x40 DUP1 MLOAD PUSH3 0x461BCD PUSH1 0xE5 SHL DUP2 MSTORE PUSH1 0x20 PUSH1 0x4 DUP3 ADD MSTORE PUSH1 0xA PUSH1 0x24 DUP3 ADD MSTORE PUSH10 0x676F7665726E616E6365 PUSH1 0xB0 SHL PUSH1 0x44 DUP3 ADD MSTORE SWAP1 MLOAD SWAP1 DUP2 SWAP1 SUB PUSH1 0x64 ADD SWAP1 REVERT JUMPDEST PUSH1 0xB DUP1 SLOAD PUSH1 0x1 PUSH1 0x1 PUSH1 0xA0 SHL SUB NOT AND PUSH1 0x1 PUSH1 0x1 PUSH1 0xA0 SHL SUB SWAP3 SWAP1 SWAP3 AND SWAP2 SWAP1 SWAP2 OR SWAP1 SSTORE JUMP JUMPDEST PUSH1 0xA SLOAD PUSH1 0x1 PUSH1 0x1 PUSH1 0xA0 SHL SUB AND CALLER EQ PUSH2 0x24D5 JUMPI PUSH1 0x40 DUP1 MLOAD PUSH3 0x461BCD PUSH1 0xE5 SHL DUP2 MSTORE PUSH1 0x20 PUSH1 0x4 DUP3 ADD MSTORE PUSH1 0xA PUSH1 0x24 DUP3 ADD MSTORE PUSH10 0x676F7665726E616E6365 PUSH1 0xB0 SHL PUSH1 0x44 DUP3 ADD MSTORE SWAP1 MLOAD SWAP1 DUP2 SWAP1 SUB PUSH1 0x64 ADD SWAP1 REVERT JUMPDEST PUSH1 0x40 DUP1 MLOAD PUSH4 0xA34123A7 PUSH1 0xE0 SHL DUP2 MSTORE PUSH1 0x2 DUP6 DUP2 SIGNEXTEND PUSH1 0x4 DUP4 ADD MSTORE DUP5 SWAP1 SIGNEXTEND PUSH1 0x24 DUP3 ADD MSTORE PUSH1 0x1 PUSH1 0x1 PUSH1 0x80 SHL SUB DUP4 AND PUSH1 0x44 DUP3 ADD MSTORE DUP2 MLOAD PUSH1 0x1 PUSH1 0x1 PUSH1 0xA0 SHL SUB PUSH32 0x0 AND SWAP3 PUSH4 0xA34123A7 SWAP3 PUSH1 0x64 DUP1 DUP3 ADD SWAP4 SWAP2 DUP3 SWAP1 SUB ADD DUP2 PUSH1 0x0 DUP8 DUP1 EXTCODESIZE ISZERO DUP1 ISZERO PUSH2 0x2554 JUMPI PUSH1 0x0 DUP1 REVERT JUMPDEST POP GAS CALL ISZERO DUP1 ISZERO PUSH2 0x2568 JUMPI RETURNDATASIZE PUSH1 0x0 DUP1 RETURNDATACOPY RETURNDATASIZE PUSH1 0x0 REVERT JUMPDEST POP POP POP POP PUSH1 0x40 MLOAD RETURNDATASIZE PUSH1 0x40 DUP2 LT ISZERO PUSH2 0x257E JUMPI PUSH1 0x0 DUP1 REVERT JUMPDEST POP POP PUSH1 0x40 DUP1 MLOAD PUSH4 0x9E3D67B PUSH1 0xE3 SHL DUP2 MSTORE ADDRESS PUSH1 0x4 DUP3 ADD MSTORE PUSH1 0x2 DUP6 DUP2 SIGNEXTEND PUSH1 0x24 DUP4 ADD MSTORE DUP5 SWAP1 SIGNEXTEND PUSH1 0x44 DUP3 ADD MSTORE PUSH1 0x1 PUSH1 0x1 PUSH1 0x80 SHL SUB PUSH1 0x64 DUP3 ADD DUP2 SWAP1 MSTORE PUSH1 0x84 DUP3 ADD MSTORE DUP2 MLOAD PUSH1 0x1 PUSH1 0x1 PUSH1 0xA0 SHL SUB PUSH32 0x0 AND SWAP3 PUSH4 0x4F1EB3D8 SWAP3 PUSH1 0xA4 DUP1 DUP3 ADD SWAP4 SWAP2 DUP3 SWAP1 SUB ADD DUP2 PUSH1 0x0 DUP8 DUP1 EXTCODESIZE ISZERO DUP1 ISZERO PUSH2 0x260A JUMPI PUSH1 0x0 DUP1 REVERT JUMPDEST POP GAS CALL ISZERO DUP1 ISZERO PUSH2 0x261E JUMPI RETURNDATASIZE PUSH1 0x0 DUP1 RETURNDATACOPY RETURNDATASIZE PUSH1 0x0 REVERT JUMPDEST POP POP POP POP PUSH1 0x40 MLOAD RETURNDATASIZE PUSH1 0x40 DUP2 LT ISZERO PUSH2 0x2634 JUMPI PUSH1 0x0 DUP1 REVERT JUMPDEST POP POP POP POP POP JUMP JUMPDEST PUSH1 0x7 SLOAD DUP2 JUMP JUMPDEST PUSH1 0xA SLOAD PUSH1 0x1 PUSH1 0x1 PUSH1 0xA0 SHL SUB AND CALLER EQ PUSH2 0x268D JUMPI PUSH1 0x40 DUP1 MLOAD PUSH3 0x461BCD PUSH1 0xE5 SHL DUP2 MSTORE PUSH1 0x20 PUSH1 0x4 DUP3 ADD MSTORE PUSH1 0xA PUSH1 0x24 DUP3 ADD MSTORE PUSH10 0x676F7665726E616E6365 PUSH1 0xB0 SHL PUSH1 0x44 DUP3 ADD MSTORE SWAP1 MLOAD SWAP1 DUP2 SWAP1 SUB PUSH1 0x64 ADD SWAP1 REVERT JUMPDEST PUSH1 0xE DUP1 SLOAD PUSH1 0x1 PUSH1 0x1 PUSH1 0xA0 SHL SUB NOT AND PUSH1 0x1 PUSH1 0x1 PUSH1 0xA0 SHL SUB SWAP3 SWAP1 SWAP3 AND SWAP2 SWAP1 SWAP2 OR SWAP1 SSTORE JUMP JUMPDEST PUSH1 0xB SLOAD PUSH1 0x0 SWAP1 DUP2 SWAP1 DUP2 SWAP1 DUP2 SWAP1 PUSH2 0x26DA SWAP1 PUSH1 0x1 PUSH1 0xA0 SHL DUP2 DIV PUSH1 0x2 SWAP1 DUP2 SIGNEXTEND SWAP2 PUSH1 0x1 PUSH1 0xB8 SHL SWAP1 DIV SWAP1 SIGNEXTEND PUSH2 0x2384 JUMP JUMPDEST PUSH1 0xB SLOAD SWAP2 SWAP4 POP SWAP2 POP PUSH1 0x0 SWAP1 DUP2 SWAP1 PUSH2 0x2706 SWAP1 PUSH1 0x1 PUSH1 0xD0 SHL DUP2 DIV PUSH1 0x2 SWAP1 DUP2 SIGNEXTEND SWAP2 PUSH1 0x1 PUSH1 0xE8 SHL SWAP1 DIV SWAP1 SIGNEXTEND PUSH2 0x2384 JUMP JUMPDEST SWAP2 POP SWAP2 POP PUSH2 0x271A DUP3 PUSH2 0x149A DUP7 PUSH2 0x149A PUSH2 0x1800 JUMP JUMPDEST SWAP6 POP PUSH2 0x272C DUP2 PUSH2 0x149A DUP6 PUSH2 0x149A PUSH2 0x1735 JUMP JUMPDEST SWAP5 POP POP POP POP POP SWAP1 SWAP2 JUMP JUMPDEST PUSH32 0x0 DUP2 JUMP JUMPDEST PUSH32 0x0 DUP2 JUMP JUMPDEST PUSH1 0x0 DUP1 PUSH1 0x2 PUSH1 0x6 SLOAD EQ ISZERO PUSH2 0x27C7 JUMPI PUSH1 0x40 DUP1 MLOAD PUSH3 0x461BCD PUSH1 0xE5 SHL DUP2 MSTORE PUSH1 0x20 PUSH1 0x4 DUP3 ADD MSTORE PUSH1 0x1F PUSH1 0x24 DUP3 ADD MSTORE PUSH1 0x0 DUP1 MLOAD PUSH1 0x20 PUSH2 0x4823 DUP4 CODECOPY DUP2 MLOAD SWAP2 MSTORE PUSH1 0x44 DUP3 ADD MSTORE SWAP1 MLOAD SWAP1 DUP2 SWAP1 SUB PUSH1 0x64 ADD SWAP1 REVERT JUMPDEST PUSH1 0x2 PUSH1 0x6 SSTORE DUP6 PUSH2 0x2807 JUMPI PUSH1 0x40 DUP1 MLOAD PUSH3 0x461BCD PUSH1 0xE5 SHL DUP2 MSTORE PUSH1 0x20 PUSH1 0x4 DUP3 ADD MSTORE PUSH1 0x6 PUSH1 0x24 DUP3 ADD MSTORE PUSH6 0x736861726573 PUSH1 0xD0 SHL PUSH1 0x44 DUP3 ADD MSTORE SWAP1 MLOAD SWAP1 DUP2 SWAP1 SUB PUSH1 0x64 ADD SWAP1 REVERT JUMPDEST PUSH1 0x1 PUSH1 0x1 PUSH1 0xA0 SHL SUB DUP4 AND ISZERO DUP1 ISZERO SWAP1 PUSH2 0x2828 JUMPI POP PUSH1 0x1 PUSH1 0x1 PUSH1 0xA0 SHL SUB DUP4 AND ADDRESS EQ ISZERO JUMPDEST PUSH2 0x285E JUMPI PUSH1 0x40 DUP1 MLOAD PUSH3 0x461BCD PUSH1 0xE5 SHL DUP2 MSTORE PUSH1 0x20 PUSH1 0x4 DUP3 ADD MSTORE PUSH1 0x2 PUSH1 0x24 DUP3 ADD MSTORE PUSH2 0x746F PUSH1 0xF0 SHL PUSH1 0x44 DUP3 ADD MSTORE SWAP1 MLOAD SWAP1 DUP2 SWAP1 SUB PUSH1 0x64 ADD SWAP1 REVERT JUMPDEST PUSH1 0x0 PUSH2 0x2868 PUSH2 0xD9C JUMP JUMPDEST SWAP1 POP PUSH2 0x2874 CALLER DUP9 PUSH2 0x33CD JUMP JUMPDEST PUSH1 0x0 PUSH2 0x2886 DUP3 PUSH2 0x1413 DUP11 PUSH2 0x140D PUSH2 0x1800 JUMP JUMPDEST SWAP1 POP PUSH1 0x0 PUSH2 0x289A DUP4 PUSH2 0x1413 DUP12 PUSH2 0x140D PUSH2 0x1735 JUMP JUMPDEST PUSH1 0xB SLOAD SWAP1 SWAP2 POP PUSH1 0x0 SWAP1 DUP2 SWAP1 PUSH2 0x28C6 SWAP1 PUSH1 0x1 PUSH1 0xA0 SHL DUP2 DIV PUSH1 0x2 SWAP1 DUP2 SIGNEXTEND SWAP2 PUSH1 0x1 PUSH1 0xB8 SHL SWAP1 DIV SWAP1 SIGNEXTEND DUP14 DUP9 PUSH2 0x3589 JUMP JUMPDEST PUSH1 0xB SLOAD SWAP2 SWAP4 POP SWAP2 POP PUSH1 0x0 SWAP1 DUP2 SWAP1 PUSH2 0x28F4 SWAP1 PUSH1 0x1 PUSH1 0xD0 SHL DUP2 DIV PUSH1 0x2 SWAP1 DUP2 SIGNEXTEND SWAP2 PUSH1 0x1 PUSH1 0xE8 SHL SWAP1 DIV SWAP1 SIGNEXTEND DUP16 DUP11 PUSH2 0x3589 JUMP JUMPDEST SWAP1 SWAP3 POP SWAP1 POP PUSH2 0x2907 DUP3 PUSH2 0x149A DUP9 DUP8 PUSH2 0x3373 JUMP JUMPDEST SWAP9 POP PUSH2 0x2917 DUP2 PUSH2 0x149A DUP8 DUP7 PUSH2 0x3373 JUMP JUMPDEST SWAP8 POP DUP12 DUP10 LT ISZERO PUSH2 0x295B JUMPI PUSH1 0x40 DUP1 MLOAD PUSH3 0x461BCD PUSH1 0xE5 SHL DUP2 MSTORE PUSH1 0x20 PUSH1 0x4 DUP3 ADD MSTORE PUSH1 0xA PUSH1 0x24 DUP3 ADD MSTORE PUSH10 0x30B6B7BAB73A1826B4B7 PUSH1 0xB1 SHL PUSH1 0x44 DUP3 ADD MSTORE SWAP1 MLOAD SWAP1 DUP2 SWAP1 SUB PUSH1 0x64 ADD SWAP1 REVERT JUMPDEST DUP11 DUP9 LT ISZERO PUSH2 0x299D JUMPI PUSH1 0x40 DUP1 MLOAD PUSH3 0x461BCD PUSH1 0xE5 SHL DUP2 MSTORE PUSH1 0x20 PUSH1 0x4 DUP3 ADD MSTORE PUSH1 0xA PUSH1 0x24 DUP3 ADD MSTORE PUSH10 0x30B6B7BAB73A18A6B4B7 PUSH1 0xB1 SHL PUSH1 0x44 DUP3 ADD MSTORE SWAP1 MLOAD SWAP1 DUP2 SWAP1 SUB PUSH1 0x64 ADD SWAP1 REVERT JUMPDEST DUP9 ISZERO PUSH2 0x29D7 JUMPI PUSH2 0x29D7 PUSH1 0x1 PUSH1 0x1 PUSH1 0xA0 SHL SUB PUSH32 0x0 AND DUP12 DUP12 PUSH2 0x2D29 JUMP JUMPDEST DUP8 ISZERO PUSH2 0x16D0 JUMPI PUSH2 0x16D0 PUSH1 0x1 PUSH1 0x1 PUSH1 0xA0 SHL SUB PUSH32 0x0 AND DUP12 DUP11 PUSH2 0x2D29 JUMP JUMPDEST CALLER PUSH1 0x1 PUSH1 0x1 PUSH1 0xA0 SHL SUB PUSH32 0x0 AND EQ PUSH2 0x2A46 JUMPI PUSH1 0x0 DUP1 REVERT JUMPDEST DUP4 ISZERO PUSH2 0x2A80 JUMPI PUSH2 0x2A80 PUSH1 0x1 PUSH1 0x1 PUSH1 0xA0 SHL SUB PUSH32 0x0 AND CALLER DUP7 PUSH2 0x2D29 JUMP JUMPDEST DUP3 ISZERO PUSH2 0x2ABA JUMPI PUSH2 0x2ABA PUSH1 0x1 PUSH1 0x1 PUSH1 0xA0 SHL SUB PUSH32 0x0 AND CALLER DUP6 PUSH2 0x2D29 JUMP JUMPDEST POP POP POP POP JUMP JUMPDEST PUSH1 0xA SLOAD PUSH1 0x1 PUSH1 0x1 PUSH1 0xA0 SHL SUB AND CALLER EQ PUSH2 0x2B0C JUMPI PUSH1 0x40 DUP1 MLOAD PUSH3 0x461BCD PUSH1 0xE5 SHL DUP2 MSTORE PUSH1 0x20 PUSH1 0x4 DUP3 ADD MSTORE PUSH1 0xA PUSH1 0x24 DUP3 ADD MSTORE PUSH10 0x676F7665726E616E6365 PUSH1 0xB0 SHL PUSH1 0x44 DUP3 ADD MSTORE SWAP1 MLOAD SWAP1 DUP2 SWAP1 SUB PUSH1 0x64 ADD SWAP1 REVERT JUMPDEST PUSH32 0x0 PUSH1 0x1 PUSH1 0x1 PUSH1 0xA0 SHL SUB AND DUP4 PUSH1 0x1 PUSH1 0x1 PUSH1 0xA0 SHL SUB AND EQ ISZERO DUP1 ISZERO PUSH2 0x2B80 JUMPI POP PUSH32 0x0 PUSH1 0x1 PUSH1 0x1 PUSH1 0xA0 SHL SUB AND DUP4 PUSH1 0x1 PUSH1 0x1 PUSH1 0xA0 SHL SUB AND EQ ISZERO JUMPDEST PUSH2 0x2BB9 JUMPI PUSH1 0x40 DUP1 MLOAD PUSH3 0x461BCD PUSH1 0xE5 SHL DUP2 MSTORE PUSH1 0x20 PUSH1 0x4 DUP3 ADD MSTORE PUSH1 0x5 PUSH1 0x24 DUP3 ADD MSTORE PUSH5 0x3A37B5B2B7 PUSH1 0xD9 SHL PUSH1 0x44 DUP3 ADD MSTORE SWAP1 MLOAD SWAP1 DUP2 SWAP1 SUB PUSH1 0x64 ADD SWAP1 REVERT JUMPDEST PUSH2 0xC8B PUSH1 0x1 PUSH1 0x1 PUSH1 0xA0 SHL SUB DUP5 AND DUP3 DUP5 PUSH2 0x2D29 JUMP JUMPDEST PUSH1 0x1 PUSH1 0x1 PUSH1 0xA0 SHL SUB SWAP2 DUP3 AND PUSH1 0x0 SWAP1 DUP2 MSTORE PUSH1 0x1 PUSH1 0x20 SWAP1 DUP2 MSTORE PUSH1 0x40 DUP1 DUP4 KECCAK256 SWAP4 SWAP1 SWAP5 AND DUP3 MSTORE SWAP2 SWAP1 SWAP2 MSTORE KECCAK256 SLOAD SWAP1 JUMP JUMPDEST PUSH1 0xC SLOAD DUP2 JUMP JUMPDEST PUSH1 0xB SLOAD PUSH1 0x1 PUSH1 0x1 PUSH1 0xA0 SHL SUB AND DUP2 JUMP JUMPDEST PUSH1 0xB SLOAD PUSH1 0x1 PUSH1 0xA0 SHL SWAP1 DIV PUSH1 0x2 SIGNEXTEND DUP2 JUMP JUMPDEST CALLER PUSH1 0x1 PUSH1 0x1 PUSH1 0xA0 SHL SUB PUSH32 0x0 AND EQ PUSH2 0x2C52 JUMPI PUSH1 0x0 DUP1 REVERT JUMPDEST PUSH1 0x0 DUP5 SGT ISZERO PUSH2 0x2C8F JUMPI PUSH2 0x2C8F PUSH1 0x1 PUSH1 0x1 PUSH1 0xA0 SHL SUB PUSH32 0x0 AND CALLER DUP7 PUSH2 0x2D29 JUMP JUMPDEST PUSH1 0x0 DUP4 SGT ISZERO PUSH2 0x2ABA JUMPI PUSH2 0x2ABA PUSH1 0x1 PUSH1 0x1 PUSH1 0xA0 SHL SUB PUSH32 0x0 AND CALLER DUP6 PUSH2 0x2D29 JUMP JUMPDEST PUSH1 0x0 DUP3 DUP3 GT ISZERO PUSH2 0x2D23 JUMPI PUSH1 0x40 DUP1 MLOAD PUSH3 0x461BCD PUSH1 0xE5 SHL DUP2 MSTORE PUSH1 0x20 PUSH1 0x4 DUP3 ADD MSTORE PUSH1 0x1E PUSH1 0x24 DUP3 ADD MSTORE PUSH32 0x536166654D6174683A207375627472616374696F6E206F766572666C6F770000 PUSH1 0x44 DUP3 ADD MSTORE SWAP1 MLOAD SWAP1 DUP2 SWAP1 SUB PUSH1 0x64 ADD SWAP1 REVERT JUMPDEST POP SWAP1 SUB SWAP1 JUMP JUMPDEST PUSH1 0x40 DUP1 MLOAD PUSH1 0x1 PUSH1 0x1 PUSH1 0xA0 SHL SUB DUP5 AND PUSH1 0x24 DUP3 ADD MSTORE PUSH1 0x44 DUP1 DUP3 ADD DUP5 SWAP1 MSTORE DUP3 MLOAD DUP1 DUP4 SUB SWAP1 SWAP2 ADD DUP2 MSTORE PUSH1 0x64 SWAP1 SWAP2 ADD SWAP1 SWAP2 MSTORE PUSH1 0x20 DUP2 ADD DUP1 MLOAD PUSH1 0x1 PUSH1 0x1 PUSH1 0xE0 SHL SUB AND PUSH4 0xA9059CBB PUSH1 0xE0 SHL OR SWAP1 MSTORE PUSH2 0xC8B SWAP1 DUP5 SWAP1 PUSH2 0x3E3A JUMP JUMPDEST CALLER SWAP1 JUMP JUMPDEST PUSH1 0x1 PUSH1 0x1 PUSH1 0xA0 SHL SUB DUP4 AND PUSH2 0x2DC4 JUMPI PUSH1 0x40 MLOAD PUSH3 0x461BCD PUSH1 0xE5 SHL DUP2 MSTORE PUSH1 0x4 ADD DUP1 DUP1 PUSH1 0x20 ADD DUP3 DUP2 SUB DUP3 MSTORE PUSH1 0x24 DUP2 MSTORE PUSH1 0x20 ADD DUP1 PUSH2 0x4962 PUSH1 0x24 SWAP2 CODECOPY PUSH1 0x40 ADD SWAP2 POP POP PUSH1 0x40 MLOAD DUP1 SWAP2 SUB SWAP1 REVERT JUMPDEST PUSH1 0x1 PUSH1 0x1 PUSH1 0xA0 SHL SUB DUP3 AND PUSH2 0x2E09 JUMPI PUSH1 0x40 MLOAD PUSH3 0x461BCD PUSH1 0xE5 SHL DUP2 MSTORE PUSH1 0x4 ADD DUP1 DUP1 PUSH1 0x20 ADD DUP3 DUP2 SUB DUP3 MSTORE PUSH1 0x22 DUP2 MSTORE PUSH1 0x20 ADD DUP1 PUSH2 0x4865 PUSH1 0x22 SWAP2 CODECOPY PUSH1 0x40 ADD SWAP2 POP POP PUSH1 0x40 MLOAD DUP1 SWAP2 SUB SWAP1 REVERT JUMPDEST PUSH1 0x1 PUSH1 0x1 PUSH1 0xA0 SHL SUB DUP1 DUP5 AND PUSH1 0x0 DUP2 DUP2 MSTORE PUSH1 0x1 PUSH1 0x20 SWAP1 DUP2 MSTORE PUSH1 0x40 DUP1 DUP4 KECCAK256 SWAP5 DUP8 AND DUP1 DUP5 MSTORE SWAP5 DUP3 MSTORE SWAP2 DUP3 SWAP1 KECCAK256 DUP6 SWAP1 SSTORE DUP2 MLOAD DUP6 DUP2 MSTORE SWAP2 MLOAD PUSH32 0x8C5BE1E5EBEC7D5BD14F71427D1E84F3DD0314C0F7B2291E5B200AC8C7C3B925 SWAP3 DUP2 SWAP1 SUB SWAP1 SWAP2 ADD SWAP1 LOG3 POP POP POP JUMP JUMPDEST PUSH1 0x1 PUSH1 0x1 PUSH1 0xA0 SHL SUB DUP4 AND PUSH2 0x2EB0 JUMPI PUSH1 0x40 MLOAD PUSH3 0x461BCD PUSH1 0xE5 SHL DUP2 MSTORE PUSH1 0x4 ADD DUP1 DUP1 PUSH1 0x20 ADD DUP3 DUP2 SUB DUP3 MSTORE PUSH1 0x25 DUP2 MSTORE PUSH1 0x20 ADD DUP1 PUSH2 0x493D PUSH1 0x25 SWAP2 CODECOPY PUSH1 0x40 ADD SWAP2 POP POP PUSH1 0x40 MLOAD DUP1 SWAP2 SUB SWAP1 REVERT JUMPDEST PUSH1 0x1 PUSH1 0x1 PUSH1 0xA0 SHL SUB DUP3 AND PUSH2 0x2EF5 JUMPI PUSH1 0x40 MLOAD PUSH3 0x461BCD PUSH1 0xE5 SHL DUP2 MSTORE PUSH1 0x4 ADD DUP1 DUP1 PUSH1 0x20 ADD DUP3 DUP2 SUB DUP3 MSTORE PUSH1 0x23 DUP2 MSTORE PUSH1 0x20 ADD DUP1 PUSH2 0x4800 PUSH1 0x23 SWAP2 CODECOPY PUSH1 0x40 ADD SWAP2 POP POP PUSH1 0x40 MLOAD DUP1 SWAP2 SUB SWAP1 REVERT JUMPDEST PUSH2 0x2F00 DUP4 DUP4 DUP4 PUSH2 0xC8B JUMP JUMPDEST PUSH2 0x2F3D DUP2 PUSH1 0x40 MLOAD DUP1 PUSH1 0x60 ADD PUSH1 0x40 MSTORE DUP1 PUSH1 0x26 DUP2 MSTORE PUSH1 0x20 ADD PUSH2 0x4887 PUSH1 0x26 SWAP2 CODECOPY PUSH1 0x1 PUSH1 0x1 PUSH1 0xA0 SHL SUB DUP7 AND PUSH1 0x0 SWAP1 DUP2 MSTORE PUSH1 0x20 DUP2 SWAP1 MSTORE PUSH1 0x40 SWAP1 KECCAK256 SLOAD SWAP2 SWAP1 PUSH2 0x2FC6 JUMP JUMPDEST PUSH1 0x1 PUSH1 0x1 PUSH1 0xA0 SHL SUB DUP1 DUP6 AND PUSH1 0x0 SWAP1 DUP2 MSTORE PUSH1 0x20 DUP2 SWAP1 MSTORE PUSH1 0x40 DUP1 DUP3 KECCAK256 SWAP4 SWAP1 SWAP4 SSTORE SWAP1 DUP5 AND DUP2 MSTORE KECCAK256 SLOAD PUSH2 0x2F6C SWAP1 DUP3 PUSH2 0x3373 JUMP JUMPDEST PUSH1 0x1 PUSH1 0x1 PUSH1 0xA0 SHL SUB DUP1 DUP5 AND PUSH1 0x0 DUP2 DUP2 MSTORE PUSH1 0x20 DUP2 DUP2 MSTORE PUSH1 0x40 SWAP2 DUP3 SWAP1 KECCAK256 SWAP5 SWAP1 SWAP5 SSTORE DUP1 MLOAD DUP6 DUP2 MSTORE SWAP1 MLOAD SWAP2 SWAP4 SWAP3 DUP8 AND SWAP3 PUSH32 0xDDF252AD1BE2C89B69C2B068FC378DAA952BA7F163C4A11628F55A4DF523B3EF SWAP3 SWAP2 DUP3 SWAP1 SUB ADD SWAP1 LOG3 POP POP POP JUMP JUMPDEST PUSH1 0x0 DUP2 DUP5 DUP5 GT ISZERO PUSH2 0x3055 JUMPI PUSH1 0x40 MLOAD PUSH3 0x461BCD PUSH1 0xE5 SHL DUP2 MSTORE PUSH1 0x4 ADD DUP1 DUP1 PUSH1 0x20 ADD DUP3 DUP2 SUB DUP3 MSTORE DUP4 DUP2 DUP2 MLOAD DUP2 MSTORE PUSH1 0x20 ADD SWAP2 POP DUP1 MLOAD SWAP1 PUSH1 0x20 ADD SWAP1 DUP1 DUP4 DUP4 PUSH1 0x0 JUMPDEST DUP4 DUP2 LT ISZERO PUSH2 0x301A JUMPI DUP2 DUP2 ADD MLOAD DUP4 DUP3 ADD MSTORE PUSH1 0x20 ADD PUSH2 0x3002 JUMP JUMPDEST POP POP POP POP SWAP1 POP SWAP1 DUP2 ADD SWAP1 PUSH1 0x1F AND DUP1 ISZERO PUSH2 0x3047 JUMPI DUP1 DUP3 SUB DUP1 MLOAD PUSH1 0x1 DUP4 PUSH1 0x20 SUB PUSH2 0x100 EXP SUB NOT AND DUP2 MSTORE PUSH1 0x20 ADD SWAP2 POP JUMPDEST POP SWAP3 POP POP POP PUSH1 0x40 MLOAD DUP1 SWAP2 SUB SWAP1 REVERT JUMPDEST POP POP POP SWAP1 SUB SWAP1 JUMP JUMPDEST PUSH1 0x0 PUSH2 0x3069 DUP4 DUP4 PUSH2 0x38E3 JUMP JUMPDEST POP POP POP POP SWAP1 POP PUSH1 0x0 DUP2 PUSH1 0x1 PUSH1 0x1 PUSH1 0x80 SHL SUB AND GT ISZERO PUSH2 0xC8B JUMPI PUSH32 0x0 PUSH1 0x1 PUSH1 0x1 PUSH1 0xA0 SHL SUB AND PUSH4 0xA34123A7 DUP5 DUP5 PUSH1 0x0 PUSH1 0x40 MLOAD DUP5 PUSH4 0xFFFFFFFF AND PUSH1 0xE0 SHL DUP2 MSTORE PUSH1 0x4 ADD DUP1 DUP5 PUSH1 0x2 SIGNEXTEND DUP2 MSTORE PUSH1 0x20 ADD DUP4 PUSH1 0x2 SIGNEXTEND DUP2 MSTORE PUSH1 0x20 ADD DUP3 DUP2 MSTORE PUSH1 0x20 ADD SWAP4 POP POP POP POP PUSH1 0x40 DUP1 MLOAD DUP1 DUP4 SUB DUP2 PUSH1 0x0 DUP8 DUP1 EXTCODESIZE ISZERO DUP1 ISZERO PUSH2 0x260A JUMPI PUSH1 0x0 DUP1 REVERT JUMPDEST PUSH1 0x0 DUP1 PUSH1 0x0 DUP1 PUSH2 0x310B PUSH2 0xD9C JUMP JUMPDEST SWAP1 POP PUSH1 0x0 DUP1 PUSH2 0x3118 PUSH2 0x26AF JUMP JUMPDEST SWAP2 POP SWAP2 POP DUP3 PUSH1 0x0 EQ DUP1 PUSH2 0x312B JUMPI POP PUSH1 0x0 DUP3 GT JUMPDEST DUP1 PUSH2 0x3136 JUMPI POP PUSH1 0x0 DUP2 GT JUMPDEST PUSH2 0x313C JUMPI INVALID JUMPDEST DUP3 PUSH2 0x3158 JUMPI DUP8 SWAP5 POP DUP7 SWAP4 POP PUSH2 0x3151 DUP6 DUP6 PUSH2 0x3EEB JUMP JUMPDEST SWAP6 POP PUSH2 0x321F JUMP JUMPDEST DUP2 PUSH2 0x316E JUMPI DUP7 SWAP4 POP PUSH2 0x3151 DUP2 PUSH2 0x1413 DUP7 DUP7 PUSH2 0x34C9 JUMP JUMPDEST DUP1 PUSH2 0x3184 JUMPI DUP8 SWAP5 POP PUSH2 0x3151 DUP3 PUSH2 0x1413 DUP8 DUP7 PUSH2 0x34C9 JUMP JUMPDEST PUSH1 0x0 PUSH2 0x31A2 PUSH2 0x3193 DUP11 DUP5 PUSH2 0x34C9 JUMP JUMPDEST PUSH2 0x319D DUP11 DUP7 PUSH2 0x34C9 JUMP JUMPDEST PUSH2 0x3F02 JUMP JUMPDEST SWAP1 POP PUSH1 0x0 DUP2 GT PUSH2 0x31E1 JUMPI PUSH1 0x40 DUP1 MLOAD PUSH3 0x461BCD PUSH1 0xE5 SHL DUP2 MSTORE PUSH1 0x20 PUSH1 0x4 DUP3 ADD MSTORE PUSH1 0x5 PUSH1 0x24 DUP3 ADD MSTORE PUSH5 0x63726F7373 PUSH1 0xD8 SHL PUSH1 0x44 DUP3 ADD MSTORE SWAP1 MLOAD SWAP1 DUP2 SWAP1 SUB PUSH1 0x64 ADD SWAP1 REVERT JUMPDEST PUSH2 0x31F4 PUSH1 0x1 PUSH2 0x149A DUP5 PUSH2 0x1413 DUP6 DUP5 PUSH2 0x2CCC JUMP JUMPDEST SWAP6 POP PUSH2 0x3209 PUSH1 0x1 PUSH2 0x149A DUP6 PUSH2 0x1413 DUP6 DUP5 PUSH2 0x2CCC JUMP JUMPDEST SWAP5 POP PUSH2 0x321B DUP3 PUSH2 0x1413 DUP6 DUP2 DUP6 DUP10 PUSH2 0x34C9 JUMP JUMPDEST SWAP7 POP POP JUMPDEST POP POP POP SWAP3 POP SWAP3 POP SWAP3 JUMP JUMPDEST PUSH1 0x40 DUP1 MLOAD PUSH1 0x1 PUSH1 0x1 PUSH1 0xA0 SHL SUB DUP1 DUP7 AND PUSH1 0x24 DUP4 ADD MSTORE DUP5 AND PUSH1 0x44 DUP3 ADD MSTORE PUSH1 0x64 DUP1 DUP3 ADD DUP5 SWAP1 MSTORE DUP3 MLOAD DUP1 DUP4 SUB SWAP1 SWAP2 ADD DUP2 MSTORE PUSH1 0x84 SWAP1 SWAP2 ADD SWAP1 SWAP2 MSTORE PUSH1 0x20 DUP2 ADD DUP1 MLOAD PUSH1 0x1 PUSH1 0x1 PUSH1 0xE0 SHL SUB AND PUSH4 0x23B872DD PUSH1 0xE0 SHL OR SWAP1 MSTORE PUSH2 0x2ABA SWAP1 DUP6 SWAP1 PUSH2 0x3E3A JUMP JUMPDEST PUSH1 0x1 PUSH1 0x1 PUSH1 0xA0 SHL SUB DUP3 AND PUSH2 0x32DE JUMPI PUSH1 0x40 DUP1 MLOAD PUSH3 0x461BCD PUSH1 0xE5 SHL DUP2 MSTORE PUSH1 0x20 PUSH1 0x4 DUP3 ADD MSTORE PUSH1 0x1F PUSH1 0x24 DUP3 ADD MSTORE PUSH32 0x45524332303A206D696E7420746F20746865207A65726F206164647265737300 PUSH1 0x44 DUP3 ADD MSTORE SWAP1 MLOAD SWAP1 DUP2 SWAP1 SUB PUSH1 0x64 ADD SWAP1 REVERT JUMPDEST PUSH2 0x32EA PUSH1 0x0 DUP4 DUP4 PUSH2 0xC8B JUMP JUMPDEST PUSH1 0x2 SLOAD PUSH2 0x32F7 SWAP1 DUP3 PUSH2 0x3373 JUMP JUMPDEST PUSH1 0x2 SSTORE PUSH1 0x1 PUSH1 0x1 PUSH1 0xA0 SHL SUB DUP3 AND PUSH1 0x0 SWAP1 DUP2 MSTORE PUSH1 0x20 DUP2 SWAP1 MSTORE PUSH1 0x40 SWAP1 KECCAK256 SLOAD PUSH2 0x331D SWAP1 DUP3 PUSH2 0x3373 JUMP JUMPDEST PUSH1 0x1 PUSH1 0x1 PUSH1 0xA0 SHL SUB DUP4 AND PUSH1 0x0 DUP2 DUP2 MSTORE PUSH1 0x20 DUP2 DUP2 MSTORE PUSH1 0x40 DUP1 DUP4 KECCAK256 SWAP5 SWAP1 SWAP5 SSTORE DUP4 MLOAD DUP6 DUP2 MSTORE SWAP4 MLOAD SWAP3 SWAP4 SWAP2 SWAP3 PUSH32 0xDDF252AD1BE2C89B69C2B068FC378DAA952BA7F163C4A11628F55A4DF523B3EF SWAP3 DUP2 SWAP1 SUB SWAP1 SWAP2 ADD SWAP1 LOG3 POP POP JUMP JUMPDEST PUSH1 0x0 DUP3 DUP3 ADD DUP4 DUP2 LT ISZERO PUSH2 0xE8A JUMPI PUSH1 0x40 DUP1 MLOAD PUSH3 0x461BCD PUSH1 0xE5 SHL DUP2 MSTORE PUSH1 0x20 PUSH1 0x4 DUP3 ADD MSTORE PUSH1 0x1B PUSH1 0x24 DUP3 ADD MSTORE PUSH32 0x536166654D6174683A206164646974696F6E206F766572666C6F770000000000 PUSH1 0x44 DUP3 ADD MSTORE SWAP1 MLOAD SWAP1 DUP2 SWAP1 SUB PUSH1 0x64 ADD SWAP1 REVERT JUMPDEST PUSH1 0x1 PUSH1 0x1 PUSH1 0xA0 SHL SUB DUP3 AND PUSH2 0x3412 JUMPI PUSH1 0x40 MLOAD PUSH3 0x461BCD PUSH1 0xE5 SHL DUP2 MSTORE PUSH1 0x4 ADD DUP1 DUP1 PUSH1 0x20 ADD DUP3 DUP2 SUB DUP3 MSTORE PUSH1 0x21 DUP2 MSTORE PUSH1 0x20 ADD DUP1 PUSH2 0x491C PUSH1 0x21 SWAP2 CODECOPY PUSH1 0x40 ADD SWAP2 POP POP PUSH1 0x40 MLOAD DUP1 SWAP2 SUB SWAP1 REVERT JUMPDEST PUSH2 0x341E DUP3 PUSH1 0x0 DUP4 PUSH2 0xC8B JUMP JUMPDEST PUSH2 0x345B DUP2 PUSH1 0x40 MLOAD DUP1 PUSH1 0x60 ADD PUSH1 0x40 MSTORE DUP1 PUSH1 0x22 DUP2 MSTORE PUSH1 0x20 ADD PUSH2 0x4843 PUSH1 0x22 SWAP2 CODECOPY PUSH1 0x1 PUSH1 0x1 PUSH1 0xA0 SHL SUB DUP6 AND PUSH1 0x0 SWAP1 DUP2 MSTORE PUSH1 0x20 DUP2 SWAP1 MSTORE PUSH1 0x40 SWAP1 KECCAK256 SLOAD SWAP2 SWAP1 PUSH2 0x2FC6 JUMP JUMPDEST PUSH1 0x1 PUSH1 0x1 PUSH1 0xA0 SHL SUB DUP4 AND PUSH1 0x0 SWAP1 DUP2 MSTORE PUSH1 0x20 DUP2 SWAP1 MSTORE PUSH1 0x40 SWAP1 KECCAK256 SSTORE PUSH1 0x2 SLOAD PUSH2 0x3481 SWAP1 DUP3 PUSH2 0x2CCC JUMP JUMPDEST PUSH1 0x2 SSTORE PUSH1 0x40 DUP1 MLOAD DUP3 DUP2 MSTORE SWAP1 MLOAD PUSH1 0x0 SWAP2 PUSH1 0x1 PUSH1 0x1 PUSH1 0xA0 SHL SUB DUP6 AND SWAP2 PUSH32 0xDDF252AD1BE2C89B69C2B068FC378DAA952BA7F163C4A11628F55A4DF523B3EF SWAP2 DUP2 SWAP1 SUB PUSH1 0x20 ADD SWAP1 LOG3 POP POP JUMP JUMPDEST PUSH1 0x0 DUP3 PUSH2 0x34D8 JUMPI POP PUSH1 0x0 PUSH2 0xD3E JUMP JUMPDEST DUP3 DUP3 MUL DUP3 DUP5 DUP3 DUP2 PUSH2 0x34E5 JUMPI INVALID JUMPDEST DIV EQ PUSH2 0xE8A JUMPI PUSH1 0x40 MLOAD PUSH3 0x461BCD PUSH1 0xE5 SHL DUP2 MSTORE PUSH1 0x4 ADD DUP1 DUP1 PUSH1 0x20 ADD DUP3 DUP2 SUB DUP3 MSTORE PUSH1 0x21 DUP2 MSTORE PUSH1 0x20 ADD DUP1 PUSH2 0x48D3 PUSH1 0x21 SWAP2 CODECOPY PUSH1 0x40 ADD SWAP2 POP POP PUSH1 0x40 MLOAD DUP1 SWAP2 SUB SWAP1 REVERT JUMPDEST PUSH1 0x0 DUP1 DUP3 GT PUSH2 0x3578 JUMPI PUSH1 0x40 DUP1 MLOAD PUSH3 0x461BCD PUSH1 0xE5 SHL DUP2 MSTORE PUSH1 0x20 PUSH1 0x4 DUP3 ADD MSTORE PUSH1 0x1A PUSH1 0x24 DUP3 ADD MSTORE PUSH32 0x536166654D6174683A206469766973696F6E206279207A65726F000000000000 PUSH1 0x44 DUP3 ADD MSTORE SWAP1 MLOAD SWAP1 DUP2 SWAP1 SUB PUSH1 0x64 ADD SWAP1 REVERT JUMPDEST DUP2 DUP4 DUP2 PUSH2 0x3581 JUMPI INVALID JUMPDEST DIV SWAP4 SWAP3 POP POP POP JUMP JUMPDEST PUSH1 0x0 DUP1 PUSH1 0x0 PUSH2 0x3598 DUP8 DUP8 PUSH2 0x38E3 JUMP JUMPDEST POP POP POP POP SWAP1 POP PUSH1 0x0 PUSH2 0x35C0 DUP6 PUSH2 0x1413 DUP9 DUP6 PUSH1 0x1 PUSH1 0x1 PUSH1 0x80 SHL SUB AND PUSH2 0x34C9 SWAP1 SWAP2 SWAP1 PUSH4 0xFFFFFFFF AND JUMP JUMPDEST SWAP1 POP DUP1 ISZERO PUSH2 0x3624 JUMPI PUSH1 0x0 DUP1 PUSH1 0x0 DUP1 PUSH2 0x35E1 DUP13 DUP13 PUSH2 0x35DC DUP9 PUSH2 0x3F11 JUMP JUMPDEST PUSH2 0x39B2 JUMP JUMPDEST SWAP3 SWAP7 POP SWAP1 SWAP5 POP SWAP3 POP SWAP1 POP PUSH2 0x3603 PUSH2 0x35FC DUP11 PUSH2 0x1413 DUP6 DUP15 PUSH2 0x34C9 JUMP JUMPDEST DUP6 SWAP1 PUSH2 0x3373 JUMP JUMPDEST SWAP8 POP PUSH2 0x361D PUSH2 0x3616 DUP11 PUSH2 0x1413 DUP5 DUP15 PUSH2 0x34C9 JUMP JUMPDEST DUP5 SWAP1 PUSH2 0x3373 JUMP JUMPDEST SWAP7 POP POP POP POP POP JUMPDEST POP POP SWAP5 POP SWAP5 SWAP3 POP POP POP JUMP JUMPDEST PUSH1 0x40 MLOAD PUSH1 0x0 SWAP1 PUSH1 0x1 PUSH1 0x1 PUSH1 0xA0 SHL SUB DUP5 AND SWAP1 DUP4 SWAP1 DUP4 DUP2 DUP2 DUP2 DUP6 DUP8 GAS CALL SWAP3 POP POP POP RETURNDATASIZE DUP1 PUSH1 0x0 DUP2 EQ PUSH2 0x367A JUMPI PUSH1 0x40 MLOAD SWAP2 POP PUSH1 0x1F NOT PUSH1 0x3F RETURNDATASIZE ADD AND DUP3 ADD PUSH1 0x40 MSTORE RETURNDATASIZE DUP3 MSTORE RETURNDATASIZE PUSH1 0x0 PUSH1 0x20 DUP5 ADD RETURNDATACOPY PUSH2 0x367F JUMP JUMPDEST PUSH1 0x60 SWAP2 POP JUMPDEST POP POP SWAP1 POP DUP1 PUSH2 0xC8B JUMPI PUSH1 0x40 DUP1 MLOAD PUSH3 0x461BCD PUSH1 0xE5 SHL DUP2 MSTORE PUSH1 0x20 PUSH1 0x4 DUP3 ADD MSTORE PUSH1 0x3 PUSH1 0x24 DUP3 ADD MSTORE PUSH3 0x535445 PUSH1 0xE8 SHL PUSH1 0x44 DUP3 ADD MSTORE SWAP1 MLOAD SWAP1 DUP2 SWAP1 SUB PUSH1 0x64 ADD SWAP1 REVERT JUMPDEST SELFBALANCE ISZERO PUSH2 0x36CB JUMPI PUSH2 0x36CB CALLER SELFBALANCE PUSH2 0x362F JUMP JUMPDEST PUSH1 0x40 DUP1 MLOAD SELFBALANCE DUP2 MSTORE SWAP1 MLOAD CALLER SWAP2 PUSH32 0xAD36838B01AEC4E99426258121721BB681EDF5B60468144B23D619476B5C7295 SWAP2 SWAP1 DUP2 SWAP1 SUB PUSH1 0x20 ADD SWAP1 LOG2 JUMP JUMPDEST PUSH32 0x0 PUSH1 0x2 DUP3 DUP2 SIGNEXTEND SWAP1 DUP5 SWAP1 SIGNEXTEND SLT PUSH2 0x3777 JUMPI PUSH1 0x40 DUP1 MLOAD PUSH3 0x461BCD PUSH1 0xE5 SHL DUP2 MSTORE PUSH1 0x20 PUSH1 0x4 DUP3 ADD MSTORE PUSH1 0x15 PUSH1 0x24 DUP3 ADD MSTORE PUSH21 0x3A34B1B5A637BBB2B9101E103A34B1B5AAB83832B9 PUSH1 0x59 SHL PUSH1 0x44 DUP3 ADD MSTORE SWAP1 MLOAD SWAP1 DUP2 SWAP1 SUB PUSH1 0x64 ADD SWAP1 REVERT JUMPDEST PUSH3 0xD89E7 NOT PUSH1 0x2 DUP5 SWAP1 SIGNEXTEND SLT ISZERO PUSH2 0x37C8 JUMPI PUSH1 0x40 DUP1 MLOAD PUSH3 0x461BCD PUSH1 0xE5 SHL DUP2 MSTORE PUSH1 0x20 PUSH1 0x4 DUP3 ADD MSTORE PUSH1 0x11 PUSH1 0x24 DUP3 ADD MSTORE PUSH17 0x7469636B4C6F77657220746F6F206C6F77 PUSH1 0x78 SHL PUSH1 0x44 DUP3 ADD MSTORE SWAP1 MLOAD SWAP1 DUP2 SWAP1 SUB PUSH1 0x64 ADD SWAP1 REVERT JUMPDEST PUSH3 0xD89E8 PUSH1 0x2 DUP4 SWAP1 SIGNEXTEND SGT ISZERO PUSH2 0x3819 JUMPI PUSH1 0x40 DUP1 MLOAD PUSH3 0x461BCD PUSH1 0xE5 SHL DUP2 MSTORE PUSH1 0x20 PUSH1 0x4 DUP3 ADD MSTORE PUSH1 0x12 PUSH1 0x24 DUP3 ADD MSTORE PUSH18 0xE8D2C6D6AAE0E0CAE440E8DEDE40D0D2CED PUSH1 0x73 SHL PUSH1 0x44 DUP3 ADD MSTORE SWAP1 MLOAD SWAP1 DUP2 SWAP1 SUB PUSH1 0x64 ADD SWAP1 REVERT JUMPDEST DUP1 PUSH1 0x2 SIGNEXTEND DUP4 PUSH1 0x2 SIGNEXTEND DUP2 PUSH2 0x3828 JUMPI INVALID JUMPDEST SMOD PUSH1 0x2 SIGNEXTEND ISZERO PUSH2 0x387E JUMPI PUSH1 0x40 DUP1 MLOAD PUSH3 0x461BCD PUSH1 0xE5 SHL DUP2 MSTORE PUSH1 0x20 PUSH1 0x4 DUP3 ADD MSTORE PUSH1 0x17 PUSH1 0x24 DUP3 ADD MSTORE PUSH32 0x7469636B4C6F7765722025207469636B53706163696E67000000000000000000 PUSH1 0x44 DUP3 ADD MSTORE SWAP1 MLOAD SWAP1 DUP2 SWAP1 SUB PUSH1 0x64 ADD SWAP1 REVERT JUMPDEST DUP1 PUSH1 0x2 SIGNEXTEND DUP3 PUSH1 0x2 SIGNEXTEND DUP2 PUSH2 0x388D JUMPI INVALID JUMPDEST SMOD PUSH1 0x2 SIGNEXTEND ISZERO PUSH2 0xC8B JUMPI PUSH1 0x40 DUP1 MLOAD PUSH3 0x461BCD PUSH1 0xE5 SHL DUP2 MSTORE PUSH1 0x20 PUSH1 0x4 DUP3 ADD MSTORE PUSH1 0x17 PUSH1 0x24 DUP3 ADD MSTORE PUSH32 0x7469636B55707065722025207469636B53706163696E67000000000000000000 PUSH1 0x44 DUP3 ADD MSTORE SWAP1 MLOAD SWAP1 DUP2 SWAP1 SUB PUSH1 0x64 ADD SWAP1 REVERT JUMPDEST PUSH1 0x0 DUP1 PUSH1 0x0 DUP1 PUSH1 0x0 DUP1 PUSH2 0x38F7 ADDRESS DUP10 DUP10 PUSH2 0x3F28 JUMP JUMPDEST SWAP1 POP PUSH32 0x0 PUSH1 0x1 PUSH1 0x1 PUSH1 0xA0 SHL SUB AND PUSH4 0x514EA4BF DUP3 PUSH1 0x40 MLOAD DUP3 PUSH4 0xFFFFFFFF AND PUSH1 0xE0 SHL DUP2 MSTORE PUSH1 0x4 ADD DUP1 DUP3 DUP2 MSTORE PUSH1 0x20 ADD SWAP2 POP POP PUSH1 0xA0 PUSH1 0x40 MLOAD DUP1 DUP4 SUB DUP2 DUP7 DUP1 EXTCODESIZE ISZERO DUP1 ISZERO PUSH2 0x395D JUMPI PUSH1 0x0 DUP1 REVERT JUMPDEST POP GAS STATICCALL ISZERO DUP1 ISZERO PUSH2 0x3971 JUMPI RETURNDATASIZE PUSH1 0x0 DUP1 RETURNDATACOPY RETURNDATASIZE PUSH1 0x0 REVERT JUMPDEST POP POP POP POP PUSH1 0x40 MLOAD RETURNDATASIZE PUSH1 0xA0 DUP2 LT ISZERO PUSH2 0x3987 JUMPI PUSH1 0x0 DUP1 REVERT JUMPDEST POP DUP1 MLOAD PUSH1 0x20 DUP3 ADD MLOAD PUSH1 0x40 DUP4 ADD MLOAD PUSH1 0x60 DUP5 ADD MLOAD PUSH1 0x80 SWAP1 SWAP5 ADD MLOAD SWAP3 SWAP13 SWAP2 SWAP12 POP SWAP10 POP SWAP2 SWAP8 POP SWAP6 POP SWAP4 POP POP POP POP JUMP JUMPDEST PUSH1 0x0 DUP1 DUP1 DUP1 PUSH1 0x1 PUSH1 0x1 PUSH1 0x80 SHL SUB DUP6 AND ISZERO PUSH2 0x3A7E JUMPI PUSH1 0x40 DUP1 MLOAD PUSH4 0xA34123A7 PUSH1 0xE0 SHL DUP2 MSTORE PUSH1 0x2 DUP10 DUP2 SIGNEXTEND PUSH1 0x4 DUP4 ADD MSTORE DUP9 SWAP1 SIGNEXTEND PUSH1 0x24 DUP3 ADD MSTORE PUSH1 0x1 PUSH1 0x1 PUSH1 0x80 SHL SUB DUP8 AND PUSH1 0x44 DUP3 ADD MSTORE DUP2 MLOAD PUSH1 0x1 PUSH1 0x1 PUSH1 0xA0 SHL SUB PUSH32 0x0 AND SWAP3 PUSH4 0xA34123A7 SWAP3 PUSH1 0x64 DUP1 DUP3 ADD SWAP4 SWAP2 DUP3 SWAP1 SUB ADD DUP2 PUSH1 0x0 DUP8 DUP1 EXTCODESIZE ISZERO DUP1 ISZERO PUSH2 0x3A45 JUMPI PUSH1 0x0 DUP1 REVERT JUMPDEST POP GAS CALL ISZERO DUP1 ISZERO PUSH2 0x3A59 JUMPI RETURNDATASIZE PUSH1 0x0 DUP1 RETURNDATACOPY RETURNDATASIZE PUSH1 0x0 REVERT JUMPDEST POP POP POP POP PUSH1 0x40 MLOAD RETURNDATASIZE PUSH1 0x40 DUP2 LT ISZERO PUSH2 0x3A6F JUMPI PUSH1 0x0 DUP1 REVERT JUMPDEST POP DUP1 MLOAD PUSH1 0x20 SWAP1 SWAP2 ADD MLOAD SWAP1 SWAP5 POP SWAP3 POP JUMPDEST PUSH1 0x40 DUP1 MLOAD PUSH4 0x9E3D67B PUSH1 0xE3 SHL DUP2 MSTORE ADDRESS PUSH1 0x4 DUP3 ADD MSTORE PUSH1 0x2 DUP10 DUP2 SIGNEXTEND PUSH1 0x24 DUP4 ADD MSTORE DUP9 SWAP1 SIGNEXTEND PUSH1 0x44 DUP3 ADD MSTORE PUSH1 0x1 PUSH1 0x1 PUSH1 0x80 SHL SUB PUSH1 0x64 DUP3 ADD DUP2 SWAP1 MSTORE PUSH1 0x84 DUP3 ADD MSTORE DUP2 MLOAD PUSH1 0x0 SWAP3 DUP4 SWAP3 PUSH1 0x1 PUSH1 0x1 PUSH1 0xA0 SHL SUB PUSH32 0x0 AND SWAP3 PUSH4 0x4F1EB3D8 SWAP3 PUSH1 0xA4 DUP1 DUP5 ADD SWAP4 SWAP2 SWAP3 SWAP2 DUP3 SWAP1 SUB ADD DUP2 DUP8 DUP8 DUP1 EXTCODESIZE ISZERO DUP1 ISZERO PUSH2 0x3B0E JUMPI PUSH1 0x0 DUP1 REVERT JUMPDEST POP GAS CALL ISZERO DUP1 ISZERO PUSH2 0x3B22 JUMPI RETURNDATASIZE PUSH1 0x0 DUP1 RETURNDATACOPY RETURNDATASIZE PUSH1 0x0 REVERT JUMPDEST POP POP POP POP PUSH1 0x40 MLOAD RETURNDATASIZE PUSH1 0x40 DUP2 LT ISZERO PUSH2 0x3B38 JUMPI PUSH1 0x0 DUP1 REVERT JUMPDEST POP DUP1 MLOAD PUSH1 0x20 SWAP1 SWAP2 ADD MLOAD PUSH1 0x1 PUSH1 0x1 PUSH1 0x80 SHL SUB SWAP2 DUP3 AND SWAP4 POP AND SWAP1 POP PUSH2 0x3B5B DUP3 DUP8 PUSH2 0x2CCC JUMP JUMPDEST SWAP4 POP PUSH2 0x3B67 DUP2 DUP7 PUSH2 0x2CCC JUMP JUMPDEST PUSH1 0x7 SLOAD SWAP1 SWAP4 POP PUSH1 0x0 SWAP1 DUP2 SWAP1 DUP1 ISZERO PUSH2 0x3BD8 JUMPI PUSH2 0x3B89 PUSH3 0xF4240 PUSH2 0x1413 DUP10 DUP5 PUSH2 0x34C9 JUMP JUMPDEST SWAP3 POP PUSH2 0x3B9C PUSH3 0xF4240 PUSH2 0x1413 DUP9 DUP5 PUSH2 0x34C9 JUMP JUMPDEST SWAP2 POP PUSH2 0x3BA8 DUP8 DUP5 PUSH2 0x2CCC JUMP JUMPDEST SWAP7 POP PUSH2 0x3BB4 DUP7 DUP4 PUSH2 0x2CCC JUMP JUMPDEST PUSH1 0xC SLOAD SWAP1 SWAP7 POP PUSH2 0x3BC4 SWAP1 DUP5 PUSH2 0x3373 JUMP JUMPDEST PUSH1 0xC SSTORE PUSH1 0xD SLOAD PUSH2 0x3BD4 SWAP1 DUP4 PUSH2 0x3373 JUMP JUMPDEST PUSH1 0xD SSTORE JUMPDEST PUSH1 0x40 DUP1 MLOAD DUP9 DUP2 MSTORE PUSH1 0x20 DUP2 ADD DUP9 SWAP1 MSTORE DUP1 DUP3 ADD DUP6 SWAP1 MSTORE PUSH1 0x60 DUP2 ADD DUP5 SWAP1 MSTORE SWAP1 MLOAD PUSH32 0x1AC56D7E866E3F5EA9AA92AA11758EAD39A0A5F013F3FEFB0F47CB9D008EDD27 SWAP2 DUP2 SWAP1 SUB PUSH1 0x80 ADD SWAP1 LOG1 POP POP POP POP POP SWAP4 POP SWAP4 POP SWAP4 POP SWAP4 JUMP JUMPDEST PUSH1 0x0 DUP1 PUSH32 0x0 PUSH1 0x1 PUSH1 0x1 PUSH1 0xA0 SHL SUB AND PUSH4 0x3850C7BD PUSH1 0x40 MLOAD DUP2 PUSH4 0xFFFFFFFF AND PUSH1 0xE0 SHL DUP2 MSTORE PUSH1 0x4 ADD PUSH1 0xE0 PUSH1 0x40 MLOAD DUP1 DUP4 SUB DUP2 DUP7 DUP1 EXTCODESIZE ISZERO DUP1 ISZERO PUSH2 0x3C89 JUMPI PUSH1 0x0 DUP1 REVERT JUMPDEST POP GAS STATICCALL ISZERO DUP1 ISZERO PUSH2 0x3C9D JUMPI RETURNDATASIZE PUSH1 0x0 DUP1 RETURNDATACOPY RETURNDATASIZE PUSH1 0x0 REVERT JUMPDEST POP POP POP POP PUSH1 0x40 MLOAD RETURNDATASIZE PUSH1 0xE0 DUP2 LT ISZERO PUSH2 0x3CB3 JUMPI PUSH1 0x0 DUP1 REVERT JUMPDEST POP MLOAD SWAP1 POP PUSH2 0x3CD4 DUP2 PUSH2 0x3CC4 DUP9 PUSH2 0x3F7E JUMP JUMPDEST PUSH2 0x3CCD DUP9 PUSH2 0x3F7E JUMP JUMPDEST DUP8 DUP8 PUSH2 0x42B0 JUMP JUMPDEST SWAP7 SWAP6 POP POP POP POP POP POP JUMP JUMPDEST PUSH1 0x1 PUSH1 0x1 PUSH1 0x80 SHL SUB DUP2 AND ISZERO PUSH2 0xC8B JUMPI PUSH1 0x40 DUP1 MLOAD PUSH4 0x3C8A7D8D PUSH1 0xE0 SHL DUP2 MSTORE ADDRESS PUSH1 0x4 DUP3 ADD MSTORE PUSH1 0x2 DUP6 DUP2 SIGNEXTEND PUSH1 0x24 DUP4 ADD MSTORE DUP5 SWAP1 SIGNEXTEND PUSH1 0x44 DUP3 ADD MSTORE PUSH1 0x1 PUSH1 0x1 PUSH1 0x80 SHL SUB DUP4 AND PUSH1 0x64 DUP3 ADD MSTORE PUSH1 0xA0 PUSH1 0x84 DUP3 ADD MSTORE PUSH1 0x0 PUSH1 0xA4 DUP3 ADD DUP2 SWAP1 MSTORE DUP3 MLOAD PUSH1 0x1 PUSH1 0x1 PUSH1 0xA0 SHL SUB PUSH32 0x0 AND SWAP4 PUSH4 0x3C8A7D8D SWAP4 PUSH1 0xC4 DUP1 DUP3 ADD SWAP5 SWAP3 SWAP4 SWAP3 SWAP2 DUP4 SWAP1 SUB ADD SWAP1 DUP3 SWAP1 DUP8 DUP1 EXTCODESIZE ISZERO DUP1 ISZERO PUSH2 0x260A JUMPI PUSH1 0x0 DUP1 REVERT JUMPDEST PUSH1 0x0 DUP1 PUSH1 0x0 PUSH32 0x0 PUSH1 0x1 PUSH1 0x1 PUSH1 0xA0 SHL SUB AND PUSH4 0x3850C7BD PUSH1 0x40 MLOAD DUP2 PUSH4 0xFFFFFFFF AND PUSH1 0xE0 SHL DUP2 MSTORE PUSH1 0x4 ADD PUSH1 0xE0 PUSH1 0x40 MLOAD DUP1 DUP4 SUB DUP2 DUP7 DUP1 EXTCODESIZE ISZERO DUP1 ISZERO PUSH2 0x3DE3 JUMPI PUSH1 0x0 DUP1 REVERT JUMPDEST POP GAS STATICCALL ISZERO DUP1 ISZERO PUSH2 0x3DF7 JUMPI RETURNDATASIZE PUSH1 0x0 DUP1 RETURNDATACOPY RETURNDATASIZE PUSH1 0x0 REVERT JUMPDEST POP POP POP POP PUSH1 0x40 MLOAD RETURNDATASIZE PUSH1 0xE0 DUP2 LT ISZERO PUSH2 0x3E0D JUMPI PUSH1 0x0 DUP1 REVERT JUMPDEST POP MLOAD SWAP1 POP PUSH2 0x3E2D DUP2 PUSH2 0x3E1E DUP9 PUSH2 0x3F7E JUMP JUMPDEST PUSH2 0x3E27 DUP9 PUSH2 0x3F7E JUMP JUMPDEST DUP8 PUSH2 0x4374 JUMP JUMPDEST SWAP3 POP SWAP3 POP POP SWAP4 POP SWAP4 SWAP2 POP POP JUMP JUMPDEST PUSH1 0x0 PUSH2 0x3E8F DUP3 PUSH1 0x40 MLOAD DUP1 PUSH1 0x40 ADD PUSH1 0x40 MSTORE DUP1 PUSH1 0x20 DUP2 MSTORE PUSH1 0x20 ADD PUSH32 0x5361666545524332303A206C6F772D6C6576656C2063616C6C206661696C6564 DUP2 MSTORE POP DUP6 PUSH1 0x1 PUSH1 0x1 PUSH1 0xA0 SHL SUB AND PUSH2 0x4410 SWAP1 SWAP3 SWAP2 SWAP1 PUSH4 0xFFFFFFFF AND JUMP JUMPDEST DUP1 MLOAD SWAP1 SWAP2 POP ISZERO PUSH2 0xC8B JUMPI DUP1 DUP1 PUSH1 0x20 ADD SWAP1 MLOAD PUSH1 0x20 DUP2 LT ISZERO PUSH2 0x3EAE JUMPI PUSH1 0x0 DUP1 REVERT JUMPDEST POP MLOAD PUSH2 0xC8B JUMPI PUSH1 0x40 MLOAD PUSH3 0x461BCD PUSH1 0xE5 SHL DUP2 MSTORE PUSH1 0x4 ADD DUP1 DUP1 PUSH1 0x20 ADD DUP3 DUP2 SUB DUP3 MSTORE PUSH1 0x2A DUP2 MSTORE PUSH1 0x20 ADD DUP1 PUSH2 0x4986 PUSH1 0x2A SWAP2 CODECOPY PUSH1 0x40 ADD SWAP2 POP POP PUSH1 0x40 MLOAD DUP1 SWAP2 SUB SWAP1 REVERT JUMPDEST PUSH1 0x0 DUP2 DUP4 LT ISZERO PUSH2 0x3EFB JUMPI DUP2 PUSH2 0xE8A JUMP JUMPDEST POP SWAP1 SWAP2 SWAP1 POP JUMP JUMPDEST PUSH1 0x0 DUP2 DUP4 LT PUSH2 0x3EFB JUMPI DUP2 PUSH2 0xE8A JUMP JUMPDEST PUSH1 0x0 PUSH1 0x1 PUSH1 0x1 PUSH1 0x80 SHL SUB DUP3 GT ISZERO PUSH2 0x3F24 JUMPI INVALID JUMPDEST POP SWAP1 JUMP JUMPDEST PUSH1 0x40 DUP1 MLOAD PUSH1 0x60 SWAP5 SWAP1 SWAP5 SHL PUSH12 0xFFFFFFFFFFFFFFFFFFFFFFFF NOT AND PUSH1 0x20 DUP1 DUP7 ADD SWAP2 SWAP1 SWAP2 MSTORE PUSH1 0x2 SWAP4 DUP5 SIGNEXTEND PUSH1 0xE8 SWAP1 DUP2 SHL PUSH1 0x34 DUP8 ADD MSTORE SWAP3 SWAP1 SWAP4 SIGNEXTEND SWAP1 SWAP2 SHL PUSH1 0x37 DUP5 ADD MSTORE DUP1 MLOAD DUP1 DUP5 SUB PUSH1 0x1A ADD DUP2 MSTORE PUSH1 0x3A SWAP1 SWAP4 ADD SWAP1 MSTORE DUP2 MLOAD SWAP2 ADD KECCAK256 SWAP1 JUMP JUMPDEST PUSH1 0x0 DUP1 PUSH1 0x0 DUP4 PUSH1 0x2 SIGNEXTEND SLT PUSH2 0x3F95 JUMPI DUP3 PUSH1 0x2 SIGNEXTEND PUSH2 0x3F9D JUMP JUMPDEST DUP3 PUSH1 0x2 SIGNEXTEND PUSH1 0x0 SUB JUMPDEST SWAP1 POP PUSH3 0xD89E8 DUP2 GT ISZERO PUSH2 0x3FDB JUMPI PUSH1 0x40 DUP1 MLOAD PUSH3 0x461BCD PUSH1 0xE5 SHL DUP2 MSTORE PUSH1 0x20 PUSH1 0x4 DUP3 ADD MSTORE PUSH1 0x1 PUSH1 0x24 DUP3 ADD MSTORE PUSH1 0x15 PUSH1 0xFA SHL PUSH1 0x44 DUP3 ADD MSTORE SWAP1 MLOAD SWAP1 DUP2 SWAP1 SUB PUSH1 0x64 ADD SWAP1 REVERT JUMPDEST PUSH1 0x0 PUSH1 0x1 DUP3 AND PUSH2 0x3FEF JUMPI PUSH1 0x1 PUSH1 0x80 SHL PUSH2 0x4001 JUMP JUMPDEST PUSH16 0xFFFCB933BD6FAD37AA2D162D1A594001 JUMPDEST PUSH17 0xFFFFFFFFFFFFFFFFFFFFFFFFFFFFFFFFFF AND SWAP1 POP PUSH1 0x2 DUP3 AND ISZERO PUSH2 0x4035 JUMPI PUSH16 0xFFF97272373D413259A46990580E213A MUL PUSH1 0x80 SHR JUMPDEST PUSH1 0x4 DUP3 AND ISZERO PUSH2 0x4054 JUMPI PUSH16 0xFFF2E50F5F656932EF12357CF3C7FDCC MUL PUSH1 0x80 SHR JUMPDEST PUSH1 0x8 DUP3 AND ISZERO PUSH2 0x4073 JUMPI PUSH16 0xFFE5CACA7E10E4E61C3624EAA0941CD0 MUL PUSH1 0x80 SHR JUMPDEST PUSH1 0x10 DUP3 AND ISZERO PUSH2 0x4092 JUMPI PUSH16 0xFFCB9843D60F6159C9DB58835C926644 MUL PUSH1 0x80 SHR JUMPDEST PUSH1 0x20 DUP3 AND ISZERO PUSH2 0x40B1 JUMPI PUSH16 0xFF973B41FA98C081472E6896DFB254C0 MUL PUSH1 0x80 SHR JUMPDEST PUSH1 0x40 DUP3 AND ISZERO PUSH2 0x40D0 JUMPI PUSH16 0xFF2EA16466C96A3843EC78B326B52861 MUL PUSH1 0x80 SHR JUMPDEST PUSH1 0x80 DUP3 AND ISZERO PUSH2 0x40EF JUMPI PUSH16 0xFE5DEE046A99A2A811C461F1969C3053 MUL PUSH1 0x80 SHR JUMPDEST PUSH2 0x100 DUP3 AND ISZERO PUSH2 0x410F JUMPI PUSH16 0xFCBE86C7900A88AEDCFFC83B479AA3A4 MUL PUSH1 0x80 SHR JUMPDEST PUSH2 0x200 DUP3 AND ISZERO PUSH2 0x412F JUMPI PUSH16 0xF987A7253AC413176F2B074CF7815E54 MUL PUSH1 0x80 SHR JUMPDEST PUSH2 0x400 DUP3 AND ISZERO PUSH2 0x414F JUMPI PUSH16 0xF3392B0822B70005940C7A398E4B70F3 MUL PUSH1 0x80 SHR JUMPDEST PUSH2 0x800 DUP3 AND ISZERO PUSH2 0x416F JUMPI PUSH16 0xE7159475A2C29B7443B29C7FA6E889D9 MUL PUSH1 0x80 SHR JUMPDEST PUSH2 0x1000 DUP3 AND ISZERO PUSH2 0x418F JUMPI PUSH16 0xD097F3BDFD2022B8845AD8F792AA5825 MUL PUSH1 0x80 SHR JUMPDEST PUSH2 0x2000 DUP3 AND ISZERO PUSH2 0x41AF JUMPI PUSH16 0xA9F746462D870FDF8A65DC1F90E061E5 MUL PUSH1 0x80 SHR JUMPDEST PUSH2 0x4000 DUP3 AND ISZERO PUSH2 0x41CF JUMPI PUSH16 0x70D869A156D2A1B890BB3DF62BAF32F7 MUL PUSH1 0x80 SHR JUMPDEST PUSH2 0x8000 DUP3 AND ISZERO PUSH2 0x41EF JUMPI PUSH16 0x31BE135F97D08FD981231505542FCFA6 MUL PUSH1 0x80 SHR JUMPDEST PUSH3 0x10000 DUP3 AND ISZERO PUSH2 0x4210 JUMPI PUSH16 0x9AA508B5B7A84E1C677DE54F3E99BC9 MUL PUSH1 0x80 SHR JUMPDEST PUSH3 0x20000 DUP3 AND ISZERO PUSH2 0x4230 JUMPI PUSH15 0x5D6AF8DEDB81196699C329225EE604 MUL PUSH1 0x80 SHR JUMPDEST PUSH3 0x40000 DUP3 AND ISZERO PUSH2 0x424F JUMPI PUSH14 0x2216E584F5FA1EA926041BEDFE98 MUL PUSH1 0x80 SHR JUMPDEST PUSH3 0x80000 DUP3 AND ISZERO PUSH2 0x426C JUMPI PUSH12 0x48A170391F7DC42444E8FA2 MUL PUSH1 0x80 SHR JUMPDEST PUSH1 0x0 DUP5 PUSH1 0x2 SIGNEXTEND SGT ISZERO PUSH2 0x4287 JUMPI DUP1 PUSH1 0x0 NOT DUP2 PUSH2 0x4283 JUMPI INVALID JUMPDEST DIV SWAP1 POP JUMPDEST PUSH5 0x100000000 DUP2 MOD ISZERO PUSH2 0x429B JUMPI PUSH1 0x1 PUSH2 0x429E JUMP JUMPDEST PUSH1 0x0 JUMPDEST PUSH1 0xFF AND PUSH1 0x20 DUP3 SWAP1 SHR ADD SWAP3 POP POP POP SWAP2 SWAP1 POP JUMP JUMPDEST PUSH1 0x0 DUP4 PUSH1 0x1 PUSH1 0x1 PUSH1 0xA0 SHL SUB AND DUP6 PUSH1 0x1 PUSH1 0x1 PUSH1 0xA0 SHL SUB AND GT ISZERO PUSH2 0x42D0 JUMPI SWAP3 SWAP4 SWAP3 JUMPDEST DUP5 PUSH1 0x1 PUSH1 0x1 PUSH1 0xA0 SHL SUB AND DUP7 PUSH1 0x1 PUSH1 0x1 PUSH1 0xA0 SHL SUB AND GT PUSH2 0x42FB JUMPI PUSH2 0x42F4 DUP6 DUP6 DUP6 PUSH2 0x4427 JUMP JUMPDEST SWAP1 POP PUSH2 0x436B JUMP JUMPDEST DUP4 PUSH1 0x1 PUSH1 0x1 PUSH1 0xA0 SHL SUB AND DUP7 PUSH1 0x1 PUSH1 0x1 PUSH1 0xA0 SHL SUB AND LT ISZERO PUSH2 0x435D JUMPI PUSH1 0x0 PUSH2 0x4322 DUP8 DUP7 DUP7 PUSH2 0x4427 JUMP JUMPDEST SWAP1 POP PUSH1 0x0 PUSH2 0x4331 DUP8 DUP10 DUP7 PUSH2 0x448A JUMP JUMPDEST SWAP1 POP DUP1 PUSH1 0x1 PUSH1 0x1 PUSH1 0x80 SHL SUB AND DUP3 PUSH1 0x1 PUSH1 0x1 PUSH1 0x80 SHL SUB AND LT PUSH2 0x4352 JUMPI DUP1 PUSH2 0x4354 JUMP JUMPDEST DUP2 JUMPDEST SWAP3 POP POP POP PUSH2 0x436B JUMP JUMPDEST PUSH2 0x4368 DUP6 DUP6 DUP5 PUSH2 0x448A JUMP JUMPDEST SWAP1 POP JUMPDEST SWAP6 SWAP5 POP POP POP POP POP JUMP JUMPDEST PUSH1 0x0 DUP1 DUP4 PUSH1 0x1 PUSH1 0x1 PUSH1 0xA0 SHL SUB AND DUP6 PUSH1 0x1 PUSH1 0x1 PUSH1 0xA0 SHL SUB AND GT ISZERO PUSH2 0x4395 JUMPI SWAP3 SWAP4 SWAP3 JUMPDEST DUP5 PUSH1 0x1 PUSH1 0x1 PUSH1 0xA0 SHL SUB AND DUP7 PUSH1 0x1 PUSH1 0x1 PUSH1 0xA0 SHL SUB AND GT PUSH2 0x43C0 JUMPI PUSH2 0x43B9 DUP6 DUP6 DUP6 PUSH2 0x44C7 JUMP JUMPDEST SWAP2 POP PUSH2 0x4407 JUMP JUMPDEST DUP4 PUSH1 0x1 PUSH1 0x1 PUSH1 0xA0 SHL SUB AND DUP7 PUSH1 0x1 PUSH1 0x1 PUSH1 0xA0 SHL SUB AND LT ISZERO PUSH2 0x43F9 JUMPI PUSH2 0x43E5 DUP7 DUP6 DUP6 PUSH2 0x44C7 JUMP JUMPDEST SWAP2 POP PUSH2 0x43F2 DUP6 DUP8 DUP6 PUSH2 0x4530 JUMP JUMPDEST SWAP1 POP PUSH2 0x4407 JUMP JUMPDEST PUSH2 0x4404 DUP6 DUP6 DUP6 PUSH2 0x4530 JUMP JUMPDEST SWAP1 POP JUMPDEST SWAP5 POP SWAP5 SWAP3 POP POP POP JUMP JUMPDEST PUSH1 0x60 PUSH2 0x441F DUP5 DUP5 PUSH1 0x0 DUP6 PUSH2 0x4573 JUMP JUMPDEST SWAP5 SWAP4 POP POP POP POP JUMP JUMPDEST PUSH1 0x0 DUP3 PUSH1 0x1 PUSH1 0x1 PUSH1 0xA0 SHL SUB AND DUP5 PUSH1 0x1 PUSH1 0x1 PUSH1 0xA0 SHL SUB AND GT ISZERO PUSH2 0x4447 JUMPI SWAP2 SWAP3 SWAP2 JUMPDEST PUSH1 0x0 PUSH2 0x446A DUP6 PUSH1 0x1 PUSH1 0x1 PUSH1 0xA0 SHL SUB AND DUP6 PUSH1 0x1 PUSH1 0x1 PUSH1 0xA0 SHL SUB AND PUSH1 0x1 PUSH1 0x60 SHL PUSH2 0x46CE JUMP JUMPDEST SWAP1 POP PUSH2 0x436B PUSH2 0x4485 DUP5 DUP4 DUP9 DUP9 SUB PUSH1 0x1 PUSH1 0x1 PUSH1 0xA0 SHL SUB AND PUSH2 0x46CE JUMP JUMPDEST PUSH2 0x477D JUMP JUMPDEST PUSH1 0x0 DUP3 PUSH1 0x1 PUSH1 0x1 PUSH1 0xA0 SHL SUB AND DUP5 PUSH1 0x1 PUSH1 0x1 PUSH1 0xA0 SHL SUB AND GT ISZERO PUSH2 0x44AA JUMPI SWAP2 SWAP3 SWAP2 JUMPDEST PUSH2 0x441F PUSH2 0x4485 DUP4 PUSH1 0x1 PUSH1 0x60 SHL DUP8 DUP8 SUB PUSH1 0x1 PUSH1 0x1 PUSH1 0xA0 SHL SUB AND PUSH2 0x46CE JUMP JUMPDEST PUSH1 0x0 DUP3 PUSH1 0x1 PUSH1 0x1 PUSH1 0xA0 SHL SUB AND DUP5 PUSH1 0x1 PUSH1 0x1 PUSH1 0xA0 SHL SUB AND GT ISZERO PUSH2 0x44E7 JUMPI SWAP2 SWAP3 SWAP2 JUMPDEST DUP4 PUSH1 0x1 PUSH1 0x1 PUSH1 0xA0 SHL SUB AND PUSH2 0x4520 PUSH1 0x60 PUSH1 0xFF AND DUP5 PUSH1 0x1 PUSH1 0x1 PUSH1 0x80 SHL SUB AND SWAP1 SHL DUP7 DUP7 SUB PUSH1 0x1 PUSH1 0x1 PUSH1 0xA0 SHL SUB AND DUP7 PUSH1 0x1 PUSH1 0x1 PUSH1 0xA0 SHL SUB AND PUSH2 0x46CE JUMP JUMPDEST DUP2 PUSH2 0x4527 JUMPI INVALID JUMPDEST DIV SWAP5 SWAP4 POP POP POP POP JUMP JUMPDEST PUSH1 0x0 DUP3 PUSH1 0x1 PUSH1 0x1 PUSH1 0xA0 SHL SUB AND DUP5 PUSH1 0x1 PUSH1 0x1 PUSH1 0xA0 SHL SUB AND GT ISZERO PUSH2 0x4550 JUMPI SWAP2 SWAP3 SWAP2 JUMPDEST PUSH2 0x441F DUP3 PUSH1 0x1 PUSH1 0x1 PUSH1 0x80 SHL SUB AND DUP6 DUP6 SUB PUSH1 0x1 PUSH1 0x1 PUSH1 0xA0 SHL SUB AND PUSH1 0x1 PUSH1 0x60 SHL PUSH2 0x46CE JUMP JUMPDEST PUSH1 0x60 DUP3 SELFBALANCE LT ISZERO PUSH2 0x45B4 JUMPI PUSH1 0x40 MLOAD PUSH3 0x461BCD PUSH1 0xE5 SHL DUP2 MSTORE PUSH1 0x4 ADD DUP1 DUP1 PUSH1 0x20 ADD DUP3 DUP2 SUB DUP3 MSTORE PUSH1 0x26 DUP2 MSTORE PUSH1 0x20 ADD DUP1 PUSH2 0x48AD PUSH1 0x26 SWAP2 CODECOPY PUSH1 0x40 ADD SWAP2 POP POP PUSH1 0x40 MLOAD DUP1 SWAP2 SUB SWAP1 REVERT JUMPDEST PUSH2 0x45BD DUP6 PUSH2 0x4793 JUMP JUMPDEST PUSH2 0x460E JUMPI PUSH1 0x40 DUP1 MLOAD PUSH3 0x461BCD PUSH1 0xE5 SHL DUP2 MSTORE PUSH1 0x20 PUSH1 0x4 DUP3 ADD MSTORE PUSH1 0x1D PUSH1 0x24 DUP3 ADD MSTORE PUSH32 0x416464726573733A2063616C6C20746F206E6F6E2D636F6E7472616374000000 PUSH1 0x44 DUP3 ADD MSTORE SWAP1 MLOAD SWAP1 DUP2 SWAP1 SUB PUSH1 0x64 ADD SWAP1 REVERT JUMPDEST PUSH1 0x0 DUP1 DUP7 PUSH1 0x1 PUSH1 0x1 PUSH1 0xA0 SHL SUB AND DUP6 DUP8 PUSH1 0x40 MLOAD DUP1 DUP3 DUP1 MLOAD SWAP1 PUSH1 0x20 ADD SWAP1 DUP1 DUP4 DUP4 JUMPDEST PUSH1 0x20 DUP4 LT PUSH2 0x464C JUMPI DUP1 MLOAD DUP3 MSTORE PUSH1 0x1F NOT SWAP1 SWAP3 ADD SWAP2 PUSH1 0x20 SWAP2 DUP3 ADD SWAP2 ADD PUSH2 0x462D JUMP JUMPDEST PUSH1 0x1 DUP4 PUSH1 0x20 SUB PUSH2 0x100 EXP SUB DUP1 NOT DUP3 MLOAD AND DUP2 DUP5 MLOAD AND DUP1 DUP3 OR DUP6 MSTORE POP POP POP POP POP POP SWAP1 POP ADD SWAP2 POP POP PUSH1 0x0 PUSH1 0x40 MLOAD DUP1 DUP4 SUB DUP2 DUP6 DUP8 GAS CALL SWAP3 POP POP POP RETURNDATASIZE DUP1 PUSH1 0x0 DUP2 EQ PUSH2 0x46AE JUMPI PUSH1 0x40 MLOAD SWAP2 POP PUSH1 0x1F NOT PUSH1 0x3F RETURNDATASIZE ADD AND DUP3 ADD PUSH1 0x40 MSTORE RETURNDATASIZE DUP3 MSTORE RETURNDATASIZE PUSH1 0x0 PUSH1 0x20 DUP5 ADD RETURNDATACOPY PUSH2 0x46B3 JUMP JUMPDEST PUSH1 0x60 SWAP2 POP JUMPDEST POP SWAP2 POP SWAP2 POP PUSH2 0x46C3 DUP3 DUP3 DUP7 PUSH2 0x4799 JUMP JUMPDEST SWAP8 SWAP7 POP POP POP POP POP POP POP JUMP JUMPDEST PUSH1 0x0 DUP1 DUP1 PUSH1 0x0 NOT DUP6 DUP8 MULMOD DUP7 DUP7 MUL SWAP3 POP DUP3 DUP2 LT SWAP1 DUP4 SWAP1 SUB SUB SWAP1 POP DUP1 PUSH2 0x4704 JUMPI PUSH1 0x0 DUP5 GT PUSH2 0x46F9 JUMPI PUSH1 0x0 DUP1 REVERT JUMPDEST POP DUP3 SWAP1 DIV SWAP1 POP PUSH2 0xE8A JUMP JUMPDEST DUP1 DUP5 GT PUSH2 0x4710 JUMPI PUSH1 0x0 DUP1 REVERT JUMPDEST PUSH1 0x0 DUP5 DUP7 DUP9 MULMOD PUSH1 0x0 DUP7 DUP2 SUB DUP8 AND SWAP7 DUP8 SWAP1 DIV SWAP7 PUSH1 0x2 PUSH1 0x3 DUP10 MUL DUP2 XOR DUP1 DUP11 MUL DUP3 SUB MUL DUP1 DUP11 MUL DUP3 SUB MUL DUP1 DUP11 MUL DUP3 SUB MUL DUP1 DUP11 MUL DUP3 SUB MUL DUP1 DUP11 MUL DUP3 SUB MUL DUP1 DUP11 MUL SWAP1 SWAP2 SUB MUL SWAP2 DUP2 SWAP1 SUB DUP2 SWAP1 DIV PUSH1 0x1 ADD DUP7 DUP5 GT SWAP1 SWAP6 SUB SWAP5 SWAP1 SWAP5 MUL SWAP2 SWAP1 SWAP5 SUB SWAP3 SWAP1 SWAP3 DIV SWAP2 SWAP1 SWAP2 OR SWAP2 SWAP1 SWAP2 MUL SWAP2 POP POP SWAP4 SWAP3 POP POP POP JUMP JUMPDEST DUP1 PUSH1 0x1 PUSH1 0x1 PUSH1 0x80 SHL SUB DUP2 AND DUP2 EQ PUSH2 0x1CB2 JUMPI PUSH1 0x0 DUP1 REVERT JUMPDEST EXTCODESIZE ISZERO ISZERO SWAP1 JUMP JUMPDEST PUSH1 0x60 DUP4 ISZERO PUSH2 0x47A8 JUMPI POP DUP2 PUSH2 0xE8A JUMP JUMPDEST DUP3 MLOAD ISZERO PUSH2 0x47B8 JUMPI DUP3 MLOAD DUP1 DUP5 PUSH1 0x20 ADD REVERT JUMPDEST PUSH1 0x40 MLOAD PUSH3 0x461BCD PUSH1 0xE5 SHL DUP2 MSTORE PUSH1 0x20 PUSH1 0x4 DUP3 ADD DUP2 DUP2 MSTORE DUP5 MLOAD PUSH1 0x24 DUP5 ADD MSTORE DUP5 MLOAD DUP6 SWAP4 SWAP2 SWAP3 DUP4 SWAP3 PUSH1 0x44 ADD SWAP2 SWAP1 DUP6 ADD SWAP1 DUP1 DUP4 DUP4 PUSH1 0x0 DUP4 ISZERO PUSH2 0x301A JUMPI DUP2 DUP2 ADD MLOAD DUP4 DUP3 ADD MSTORE PUSH1 0x20 ADD PUSH2 0x3002 JUMP INVALID GASLIMIT MSTORE NUMBER ORIGIN ADDRESS GASPRICE KECCAK256 PUSH21 0x72616E7366657220746F20746865207A65726F2061 PUSH5 0x6472657373 MSTORE PUSH6 0x656E7472616E PUSH4 0x79477561 PUSH19 0x643A207265656E7472616E742063616C6C0045 MSTORE NUMBER ORIGIN ADDRESS GASPRICE KECCAK256 PUSH3 0x75726E KECCAK256 PUSH2 0x6D6F PUSH22 0x6E7420657863656564732062616C616E636545524332 ADDRESS GASPRICE KECCAK256 PUSH2 0x7070 PUSH19 0x6F766520746F20746865207A65726F20616464 PUSH19 0x65737345524332303A207472616E7366657220 PUSH2 0x6D6F PUSH22 0x6E7420657863656564732062616C616E636541646472 PUSH6 0x73733A20696E PUSH20 0x756666696369656E742062616C616E636520666F PUSH19 0x2063616C6C536166654D6174683A206D756C74 PUSH10 0x706C69636174696F6E20 PUSH16 0x766572666C6F7745524332303A207472 PUSH2 0x6E73 PUSH7 0x657220616D6F75 PUSH15 0x74206578636565647320616C6C6F77 PUSH2 0x6E63 PUSH6 0x45524332303A KECCAK256 PUSH3 0x75726E KECCAK256 PUSH7 0x726F6D20746865 KECCAK256 PUSH27 0x65726F206164647265737345524332303A207472616E7366657220 PUSH7 0x726F6D20746865 KECCAK256 PUSH27 0x65726F206164647265737345524332303A20617070726F76652066 PUSH19 0x6F6D20746865207A65726F2061646472657373 MSTORE8 PUSH2 0x6665 GASLIMIT MSTORE NUMBER ORIGIN ADDRESS GASPRICE KECCAK256 GASLIMIT MSTORE NUMBER ORIGIN ADDRESS KECCAK256 PUSH16 0x7065726174696F6E20646964206E6F74 KECCAK256 PUSH20 0x75636365656445524332303A2064656372656173 PUSH6 0x6420616C6C6F PUSH24 0x616E63652062656C6F77207A65726FA26469706673582212 KECCAK256 0x1F PUSH7 0xE2B666158599AD 0x26 0xBD 0xF9 0xD4 EQ 0xD9 0xAC SHL 0xCE PUSH18 0x8BD57FDE01B910B680F1F97D6164736F6C63 NUMBER STOP SMOD MOD STOP CALLER ",
  "sha1": "dccfef35b0009d565d03a73f32bf4e1ccc89677e",
  "source": "pragma solidity 0.7.6;\n\nimport \"../interfaces/external/IWETH9.sol\";\nimport \"@openzeppelin/contracts/math/Math.sol\";\nimport \"@openzeppelin/contracts/math/SafeMath.sol\";\nimport \"@openzeppelin/contracts/token/ERC20/ERC20.sol\";\nimport \"@openzeppelin/contracts/token/ERC20/IERC20.sol\";\nimport \"@openzeppelin/contracts/token/ERC20/SafeERC20.sol\";\nimport \"@openzeppelin/contracts/utils/ReentrancyGuard.sol\";\nimport \"@uniswap/v3-core/contracts/interfaces/callback/IUniswapV3MintCallback.sol\";\nimport \"@uniswap/v3-core/contracts/interfaces/callback/IUniswapV3SwapCallback.sol\";\nimport \"@uniswap/v3-core/contracts/interfaces/IUniswapV3Pool.sol\";\nimport \"@uniswap/v3-core/contracts/libraries/TickMath.sol\";\nimport \"@uniswap/v3-periphery/contracts/libraries/LiquidityAmounts.sol\";\nimport \"@uniswap/v3-periphery/contracts/libraries/PositionKey.sol\";\nimport \"../interfaces/IVault.sol\";\nimport \"../interfaces/IOrbitVault.sol\";\nimport \"./AlphaVault.sol\";\n\ncontract OrbitVault is \n    IVault,\n    IUniswapV3MintCallback,\n    IUniswapV3SwapCallback,\n    ERC20,\n    ReentrancyGuard,\n    AlphaVault\n{   \n    using SafeERC20 for IERC20;\n    using SafeMath for uint256;\n\n    address public weth;\n\n    constructor(address _pool,\n        uint256 _protocolFee,\n        uint256 _maxTotalSupply) \n\n        AlphaVault(_pool,\n        _protocolFee,\n        _maxTotalSupply) \n        \n        {\n        }\n\n    event EthRefund(\n        address indexed to,\n        uint256 amount\n    );\n\n    function depositEth(\n        uint256 amountTokenDesired,\n        uint256 amountTokenMin,\n        uint256 amountEthMin,\n        address to\n    )\n        external\n        nonReentrant\n        payable\n        returns (\n            uint256 shares,\n            uint256 amount0,\n            uint256 amount1\n        )\n    {      \n        require(amountTokenDesired > 0 || msg.value > 0, \"amountTokenDesired or value\");\n        require(to != address(0) && to != address(this), \"to\");\n\n        bool token0IsWeth;\n        token0IsWeth = address(token0) == weth;\n\n        uint256 amount0Desired;\n        uint256 amount1Desired;\n        uint256 amount1Min;\n        uint256 amount0Min;\n\n        if (token0IsWeth) {\n            amount0Desired = msg.value;\n            amount1Desired = amountTokenDesired;\n            amount0Min = amountEthMin;\n            amount1Min = amountTokenMin;\n        } else {\n            amount0Desired = amountTokenDesired;\n            amount1Desired = msg.value;\n            amount0Min = amountTokenMin;\n            amount1Min = amountEthMin;\n        }\n        \n        // Poke positions so vault's current holdings are up-to-date\n        _poke(baseLower, baseUpper);\n        _poke(limitLower, limitUpper);\n\n        // Calculate amounts proportional to vault's holdings\n        (shares, amount0, amount1) = _calcSharesAndAmounts(amount0Desired, amount1Desired);\n        require(shares > 0, \"shares\");\n        require(amount0 >= amount0Min, \"amount0Min\");\n        require(amount1 >= amount1Min, \"amount1Min\");\n\n        // Pull in tokens from sender\n        IWETH9(weth).deposit{value: (token0IsWeth ? amount0 : amount1) }();\n        if (msg.value >  (token0IsWeth ? amount0 : amount1) ) refundETH();\n        if (token0IsWeth) {\n            token1.safeTransferFrom(msg.sender, address(this), amount1);\n        }\n        else { \n            token0.safeTransferFrom(msg.sender, address(this), amount0);\n        }\n\n        // Mint shares to recipient\n        _mint(to, shares);\n        emit Deposit(msg.sender, to, shares, amount0, amount1);\n        require(totalSupply() <= maxTotalSupply, \"maxTotalSupply\");\n    }\n\n    function withdrawEth(\n        uint256 shares,\n        uint256 amount0Min,\n        uint256 amount1Min,\n        address to\n    ) external nonReentrant returns (uint256 amount0, uint256 amount1) {\n        require(shares > 0, \"shares\");\n        require(to != address(0) && to != address(this), \"to\");\n        uint256 totalSupply = totalSupply();\n\n        // Burn shares\n        _burn(msg.sender, shares);\n\n        // Calculate token amounts proportional to unused balances\n        uint256 unusedAmount0 = getBalance0().mul(shares).div(totalSupply);\n        uint256 unusedAmount1 = getBalance1().mul(shares).div(totalSupply);\n\n        // Withdraw proportion of liquidity from Uniswap pool\n        (uint256 baseAmount0, uint256 baseAmount1) =\n            _burnLiquidityShare(baseLower, baseUpper, shares, totalSupply);\n        (uint256 limitAmount0, uint256 limitAmount1) =\n            _burnLiquidityShare(limitLower, limitUpper, shares, totalSupply);\n\n        // Sum up total amounts owed to recipient\n        amount0 = unusedAmount0.add(baseAmount0).add(limitAmount0);\n        amount1 = unusedAmount1.add(baseAmount1).add(limitAmount1);\n        require(amount0 >= amount0Min, \"amount0Min\");\n        require(amount1 >= amount1Min, \"amount1Min\");\n\n        // Push tokens to recipient\n        //if (amount0 > 0) token0.safeTransfer(to, amount0);\n        //if (amount1 > 0) token1.safeTransfer(to, amount1);\n        if (address(token0) == weth) {\n            if (amount1 > 0) token1.safeTransfer(to, amount1);\n            if (amount0 > 0) {\n                IWETH9(weth).withdraw(amount0);\n                safeTransferETH(to, amount0);\n            }\n        }\n        else { \n            if (amount0 > 0) token0.safeTransfer(to, amount0);\n            if (amount1 > 0) {\n                IWETH9(weth).withdraw(amount1);\n                safeTransferETH(to, amount1);\n            }\n        }\n\n        emit Withdraw(msg.sender, to, shares, amount0, amount1);\n    }\n\n\n    function refundETH() internal {\n        if (address(this).balance > 0) safeTransferETH(msg.sender, address(this).balance);\n        emit EthRefund(msg.sender, address(this).balance);\n    }\n\n    /// @notice Transfers ETH to the recipient address\n    /// @dev Fails with `STE`\n    /// @param to The destination of the transfer\n    /// @param value The value to be transferred\n    function safeTransferETH(address to, uint256 value) internal {\n        (bool success, ) = to.call{value: value}(\"\");\n        require(success, 'STE');\n    }\n\n    function setAddressWeth(address _address) external onlyGovernance {\n        weth = _address;\n    }\n\n    fallback() external payable {\n    }\n\n}\n\n\n\n\n\n\n\n\n\n\n\n\n\n",
  "sourcePath": "contracts/OrbitVault.sol",
  "type": "contract"
}